:020000040000FA
:0600000002011A0222B504
:03002B000229E2C5
:0300530002232B5A
:03006B000229B0B7
:1000830002210BE5C754F84401F5C77901220000AA
:100093000080FB120086B90003020104E479217891
:1000A30008B800028004F709D8FCE479297802B87B
:1000B30000028004F709D8FCE49002817870791477
:1000C3008002F0A3D8FCD9FA781A90014A7A01BACF
:1000D30000028007E493A3F608DAF97AF07B15901F
:1000E300014B783879048015E493A3AD82AE838AFB
:1000F300828B83F0A3AA82AB838D828E83D8E9D9C6
:10010300E77582677583B4740312012C7582917548
:100113008300740012012C75D00075813F7518811E
:10012300751902759F00020096C09FF59FE473D076
:100133009F22D083D082C09FE493C0E0740193C018
:10014300E0740293F59F2201FF0000B40000280031
:100153002800283075A000A000A000A0000008001F
:1001630008E001F000100010001000100010001053
:100173000050005000500010001000D00700000095
:100183000000000F0001000500307507001000019A
:100193000081FF00000000FFFFFFA406C206AA06BD
:1001A300E606FF02020208025000A0000000E80376
:1001B300020A82010000FD810206820100004B1643
:1001C300021482010000BF020206820100004C16E5
:1001D300021282010000D5020206820100004D16C0
:1001E300021082010000D7020206820100004E16AF
:1001F300020082080000D8020206820100004F16A6
:100203000202820100005016FF0100FF20020A8251
:10021300010000FA81020682010000B41602048282
:1002230000000000000216820300000603170052BC
:100233000D520D520D520D520D520D520D520D52C3
:100243000D520D520D520D520D101022100A1002B4
:100253000202020202020202010D0000001001026A
:100263000A82010000F781020682010000F71602EC
:1002730028820100004007020682010000F81602EE
:1002830026820100001581020682010000F9160290
:1002930024820100000781020682010000FA16028F
:1002A3002282010000A580020682010000FB1602E3
:1002B30020820100008180020682010000FC1602F8
:1002C3001C82010000B780020682010000FD1602B5
:1002D3001A820100009380020682010000FE1602CA
:1002E3001882010000F980020682010000FF160255
:1002F3003682010000001701E8030577100AFFFFAB
:10030300FF00013075030201060000000000000039
:1003130000000000000000000000000000000000DA
:100323000000000000FFFF0600800CE8030B0945F6
:1003330052435F44657669636505125000200302EA
:100343000A000201060302F0FF53696D706C652019
:10035300424C45205065726970686572616CF01497
:100363000000F6140A43686172616374657269730D
:10037300746963203100024368617261637465725A
:10038300697374696320320008436861726163743E
:100393006572697374696320330010436861726125
:1003A300637465726973746963203400024368611E
:1003B3007261637465726973746963203500020A3C
:1003C30082010000F4810206820100000C18022C55
:1003D30082030000D915023C820100000D180206B9
:1003E300820100001E18022E82010000DA15023C71
:1003F300820100001F18020682010000301802303B
:1004030082020000DB15023C820100003118020663
:10041300820100004218023282000000DC1502163D
:1004230082030000E615023C820100004318020625
:10043300820100005418023482040000E815023CD3
:10044300820100005518104B657920507265737353
:1004530020537461746500020A82010000F1810275
:100463000682010000EE18021E82000000ED150254
:100473001682030000EE15023C82010000EF181201
:100483000135E18703120135F4870312013525880D
:10049300031201355F8803120135B8880312013551
:1004A300FF88031201354789031201357689031248
:1004B3000135A58903120135DC8903120135238A2D
:1004C300031201353C8A03120135918A0312013567
:1004D300AA8A03120135F88A03120135328B0312FB
:1004E3000135ACA802120135AFA902120135E8A902
:1004F300021201350BAA021201351DAA021201359F
:100503005BAA02120135D7AA021201359FAB021270
:100513000135C1AB0212013558AC02120135AAAC48
:1005230002120135DBAC02120135E8AC02120135CF
:1005330052AD02120135A9AD02120135ACAD021262
:100543000135E5AD02120135E8AD02120135F2AD18
:100553000212013546AE0212013587AE0212013591
:10056300BAAE02120135F7AE02120135F9AF02122B
:1005730001359DB00212013506B10212013544B1B5
:100583000212013500800312013528800312013560
:100593005580031201358D8003120135EB80031260
:1005A30001353781031201359E8103120135DE8146
:1005B300031201351B8203120135498203120135EF
:1005C300F38203120135FD82031201350A830312FC
:1005D30001353D83031201354983031201356183DC
:1005E300031201356B830312013527FF0112013515
:1005F30035FF011201354DFF0112013564FF011270
:100603000135F5A6011201359FA701120135B2A8E4
:10061300011201352EA9011201354CAA011201352F
:1006230088AA0112013523AB0112013507AC01126F
:100633000135D3AC0112013561AE01120135D2AEE1
:10064300011201358CAF011201357EB00112013563
:10065300BEB00112013572B101120135A4B101120C
:1006630001359AB301120135DCB301120135FAB336
:100673000112013560B4011201352FB501120135A4
:10068300F3B50112013512B8011201354EC1021240
:10069300013538C202120135E3C20212013534C3F7
:1006A30002120135E4C30212013555C402120135A9
:1006B3003AC5021201356EC50212013567C6021230
:1006C3000135A4C60212013580C702120135BFC726
:1006D30002120135DBC7021201353AA303120135B9
:1006E300BEA303120135E9A30312013503A50312C7
:1006F3000135F983031201350F84031201352D846B
:10070300031201353E850312013548850312013575
:100713007386031201356A8703120135D7870312E3
:1007230001353CC80212013572C902120135A9C94B
:100733000212013500CA0212013515CC021201352D
:100743003F8201120135CB82011201352F84011240
:1007530001353B8401120135768401120135E584AC
:1007630001120135EE8501120135F78601120135BB
:10077300BE87011201351B89011201353989011226
:100783000135568901120135038A01120135808A28
:1007930001120135A88A01120135728D011201354A
:1007A300778D01120135908F01120135DE8F011211
:1007B30001354E90011201358C900112013568917B
:1007C300011201352892011201357492011201358B
:1007D300779201120135BB92011201350393011285
:1007E3000135429301120135649301120135989347
:1007F30001120135FB930112013526D30212013593
:1008030034D30212013587D302120135A6D3021263
:100813000135EBD3021201352FD502120135CAD5AA
:10082300021201350ED60212013538D602120135F5
:10083300A7D602120135EDD60212013564D7021292
:10084300013515D802120135102A00120135202A6C
:1008530000120135C12A001201351D2B001201358A
:10086300DA2B00120135F62C00120135282D001267
:100873000135572D00120135042F001201357B314C
:1008830000120135EB3300120135DD34001201355E
:10089300D63500120135DD3700120135D13A001289
:1008A3000135003C00120135043E00120135143FAE
:1008B30000120135A34000120135944100120135A5
:1008C300E241001201355142001201357542001216
:1008D3000135C642001201356747001201356848E9
:1008E30000120135C94800120135F44800120135E0
:1008F300BA4900120135CFF202120135D9F20212C0
:1009030001351EF30212013532F302120135C2F32F
:1009130002120135FBF30212013536F402120135DE
:100923005FF402120135B3F402120135C8F4021266
:100933000135EAF402120135FFF40212013513F511
:100943000212013528F50212013562F50212013552
:100953008EF502120135D7F50212013549F602125E
:1009630001358CF602120135B6F602120135E1F6B5
:10097300021201355EAD03120135108B02120135EF
:10098300F38B021201356E8C02120135A98C02120F
:100993000135FA8D02120135888E021201351A9142
:1009A30002120135CC9102120135D892021201359F
:1009B3004B9402120135A494021201353DEA02124E
:1009C300013580EA0212013504EB02120135DBED39
:1009D30002120135CC9E031201357E9F03120135AD
:1009E3007AA003120135B9A00312013513A1031232
:1009F30001350CA7031201356FA7031201350CA8AB
:100A03000312013541A80312013571A80312013500
:100A1300ACA803120135CCA80312013527D8021262
:100A23000135B3D80212013572D9021201358ADABF
:100A330002120135A4DC02120135A3F301120135C0
:100A4300C8F30112013595F40112013569F501125C
:100A53000135D6F50112013516F601120135B2F64C
:100A630001120135E6F701120135C1F80112013512
:100A730020F901120135ACF9011201351AFA0112FC
:100A83000135A6FA01120135ECFA011201355EFBBC
:100A930001120135F0FB0112013591FC0112013500
:100AA300B1FC01120135F9FC0112013542FD0112BD
:100AB30001355EFD0112013584FD01120135FEFD94
:100AC300011201350CFE011201359BFE01120135A5
:100AD30004FF01120135DBDC0212013560DD021275
:100AE3000135A2DD0212013586DE02120135F3DE85
:100AF3000212013537DF021201357BDF02120135A5
:100B0300A8DF02120135D0DF0212013508E002121C
:100B1300013546E0021201356DE002120135E7E0CE
:100B23000212013531E1021201351FB801120135FC
:100B3300BEB901120135F6BB011201354ABC0112DF
:100B4300013575BC0112013551BD0112013581BD5D
:100B530001120135B0BD01120135C3BD01120135CA
:100B630004BE0112013531BE011201357FBE0112EF
:100B73000135BBBE0112013500BF011201354DBF66
:100B830001120135C7BF0112013508C20112013537
:100B9300F2C3011201352EC401120135BDC5011284
:100BA300013502C60112013575C601120135CAC6E7
:100BB30001120135CFC60112013559C701120135A2
:100BC30078C80112013589C8011201350D9F02123F
:100BD3000135869F0212013540A5021201354BA64D
:100BE30002120135F4A70212013582A8021201355F
:100BF300264A00120135A74A00120135D44A0012D1
:100C030001351D4B001201351E4C00120135774C86
:100C130000120135F34D00120135754E00120135F6
:100C2300904E00120135014F00120135BE4F0012E4
:100C330001358150001201350F5100120135C651A3
:100C430000120135D95100120135725200120135DB
:100C53000953001201353053001201359953001224
:100C63000135E35300120135315400120135D654D6
:100C73000012013574550012013501560012013579
:100C8300725600120135B956001201351157001280
:100C93000135435700120135FD5700120135045940
:100CA300001201354D59001201356A590012013500
:100CB300895900120135BC5A00120135735B0012C9
:100CC3000135985B00120135AD5B001201351D5CE7
:100CD300001201355E5C00120135825D00120135A0
:100CE300035E001201354D950212013598950212EB
:100CF3000135A495021201357896021201358F96BB
:100D030002120135CC9602120135FD96021201350D
:100D13003597021201358B9702120135A197021202
:100D23000135DD9702120135F0970212013517984C
:100D3300021201354B9802120135719902120135E5
:100D4300BB9A02120135B79B02120135D49C0212E1
:100D53000135052A00120135ACC801120135E7C877
:100D63000112013539CC0112013595CD011201353E
:100D730054CE01120135BBD101120135A5D20112A6
:100D83000135F1D2011201350BD30112013548D3DC
:100D93000112013553D30112013592D301120135EA
:100DA3009BD30112013545D4011201351CD5011223
:100DB300013570D501120135CDD5011201353FD66C
:100DC30001120135D3940112013532980112013514
:100DD300389801120135699F0112013570A3011280
:100DE30001359A8B03120135308C03120135468C81
:100DF300031201359F8C03120135E38C0312013575
:100E03001D8D03120135B58D03120135248E031296
:100E130001352D8E03120135398E03120135538EA0
:100E2300031201357D8E03120135928E03120135B3
:100E3300F48E031201351B8F031201358DEE02125E
:100E430001359AEE02120135B4EE02120135E7EED6
:100E53000212013525EF021201358AEF0212013524
:100E63009FEF02120135AAEF02120135B7EF02120A
:100E73000135CEEF02120135DCEF02120135E7EF47
:100E830002120135F3EF0212013502F002120135AD
:100E93000DF00212013530F002120135D4F00212C6
:100EA3000135E4F002120135FEF0021201351BF1A7
:100EB3000212013536F1021201355BF102120135DE
:100EC30066F1021201357BF1021201358FF1021234
:100ED3000135F0F102120135F6F102120135FCF190
:100EE3000212013502F2021201351AF20212013521
:100EF3004DF20212013520E601120135B7E6011267
:100F030001354FE7011201353FE80112013576E85B
:100F13000112013589E801120135F7E801120135A3
:100F230092EA01120135B9EA011201355BEB0112B4
:100F3300013590EB01120135A1EB011201351AECD9
:100F4300011201353BEC0112013553EC011201355D
:100F5300ABED01120135B4EF0112013504F20112B8
:100F6300013507F30112013556F3011201358ED70E
:100F7300011201358BD80112013576D901120135E1
:100F830080D901120135A2D901120135AED901125E
:100F9300013500DB011201352FDB011201355FDC66
:100FA30001120135A1DC01120135CDDD011201353C
:100FB300A3DE01120135F5DE0112013554DF011202
:100FC30001358BDF01120135C6DF0112013561E303
:100FD300011201357AE301120135FCE301120135F7
:100FE3000AE4011201355FE4011201356DE40112D7
:100FF3000135DAE4011201354CE50112013592E5C0
:1010030001120135008002120135228002120135DE
:101013000C8202120135B18502120135F4860212E7
:101023000135CE8702120135DAA803120135FFA874
:101033000312013570A9031201356AB10212013599
:1010430073B1021201357CB102120135ADB2021245
:101053000135CCB40212013502B5021201353CB59B
:101063000212013572B502120135ACB50212013517
:10107300E0B5021201350CB60212013555B6021263
:1010830001358FB602120135D7B6021201352DB7DD
:101093000212013562B702120135BDB702120135E2
:1010A300F7B70212013548B8021201357EB80212B1
:1010B3000135B8B802120135E6B80212013509B993
:1010C3000212013553B2031201357FB20312013507
:1010D300DAB203120135E4B203120135F4B203129A
:1010E30001359DB303120135A8B303120135E1B3F2
:1010F300031201353C99031201356399031201353B
:101103008E9903120135CF9203120135E392031234
:101113000135BD93031201352B940312013553940A
:101123000312013529950312013546950312013542
:10113300D09503120135E89503120135F395031297
:101143000135BFB403120135395E001201359060D9
:10115300001201354062001201359D620012013513
:101163009A63001201351764001201359F6400125F
:101173000135C464001201359F67001201351368FD
:101183000012013502690012013538690012013578
:101193007B6900120135F26A00120135346B0012CB
:1011A30001357D6B00120135E66B00120135086CC9
:1011B30000120135226C00120135406D0012013519
:1011C300506D00120135D36E00120135F36E00121B
:1011D3000135296F00120135AF7000120135EC7033
:1011E30000120135267200120135E0E502120135C5
:1011F30030E6021201356AE702120135D9E702121D
:1012030001357DE8021201359CE802120135EAE856
:10121300021201352CE902120135E77F0012013574
:1012230009B50312013548B503120135E2B50312BE
:10123300013574B10312013584B10312013599B13B
:10124300031201354DB20312013585AF0312013587
:1012530008B0031201356EB00312013532AC03122C
:10126300013559AC03120135AFAC03120135C2ACE1
:101273000312013513AD0312013552AD03120135CB
:1012830055AD0312013509F7021201351DF702129C
:10129300013596F7021201356AF8021201353CFA5C
:1012A30002120135A1FA02120135F4FA02120135D4
:1012B300F87F0012013532A503120135A8A60312E7
:1012C300013509A70312013587B003120135AAB00E
:1012D30003120135D3B003120135E9B0031201350E
:1012E3002BB103120135DCCD02120135E6CD02121A
:1012F300013526CE021201356FCE02120135A7CE7B
:1013030002120135FDCE021201351ACF0212013548
:1013130023CF0212013568CF0212013591CF021299
:101323000135A6CF0212013516D002120135A3D022
:1013330002120135F7D0021201351AD1021201351A
:1013430099D102120135D4D10212013509D2021208
:1013530001351BD2021201353AD20212013543D2B2
:1013630002120135FAD20212013590AA0312013595
:10137300E1AA031201356AAB03120135D4AB0312A0
:101383000135119C03120135399C031201352E9D41
:1013930003120135539D03120135E29D03120135FA
:1013A3001696031201350C97031201351D9703128C
:1013B30001351C99031201353EA10312013574A1B5
:1013C30003120135A7A10312013500A3031201354E
:1013D300FEB20312013514B3031201351EB3031217
:1013E300013572B30312013508B40312013597B9FD
:1013F3000212013551BA021201358CBA02120135BB
:10140300BDBA021201351DBB0212013567BB0212C0
:101413000135BCBB0212013547BC0212013540BD88
:1014230002120135B6BE0212013546BF0212013562
:10143300ACBF02120135BFBF02120135A4C00212B4
:101443000135EEC00212013571E10212013587E167
:101453000212013528E20212013567E20212013558
:1014630084E202120135B5E20212013502E30212EF
:10147300013535E30212013570E3021201356BE5E4
:1014830002120135D3E5021201354B720012013508
:10149300D37500120135627700120135B977001256
:1014A3000135D87700120135567800120135DC7901
:1014B30000120135AF7A00120135697E0012013541
:1014C300517F0012013572AE0312013587AE03124C
:1014D3000135B3AE0312013500AF0312013549AF35
:1014E3000312013507FB021201352AFD02120135F1
:1014F30038FE02120135D8FE02120135498F03125C
:101503000135AC8F03120135C98F03120135989051
:1015130003120135FA9003120135C5910312013507
:1015230006FF0212013568FF0212013552B503129C
:10153300013598B503120135C4B503E06670100890
:10154300A3E066700A08A3E066700408A3E06622BD
:10155300C3E7960809E7960809E7960809E796227C
:10156300C3E09608A3E09608A3E09608A3E09622BA
:10157300C008C3E096F50808A3E096420808A3E074
:1015830096420808A3E09645087001D3D0082208C4
:101593000808EAC0E0EBC0E086F0E7A4FA18098681
:1015A300F0E7A42AFA180986F0E7A42AFA180986AC
:1015B300F0E7A42AFA1986F0E7A4FBE5F02AFA1962
:1015C3000886F0E7A42BFBE5F03AFA190886F0E762
:1015D300A42BFBE5F03AFA18180986F0E7A4C5F046
:1015E3002BFBE43AFA1908E7C5F0C6A426F6E5F0A2
:1015F3003BFBE43AFA1886F0E7A4F6E5F00826F692
:10160300E43B08F6E43A08F6D0E0FBD0E0FA22E443
:10161300CFC0E0E4CEC0E0E4CDC0E0E4CCC0E075F0
:10162300F020E626F608E633F608E633F608E63356
:10163300F6181818EC33FCED33FDEE33FEEF33FFF1
:10164300C3EC9709ED9709EE9709EF97191919401C
:101653000FFFEC97FC09ED97FD09EE97FE191906AC
:10166300D5F0BFECF709EDF709EEF709EFF7191914
:1016730019D0E0FCD0E0FDD0E0FED0E0FF22601600
:10168300080808C6C313C618C613C618C613C61857
:10169300C613C6D5E0EA22700908080822601618A6
:1016A3001818C6C333C608C633C608C633C608C629
:1016B30033C6D5E0EA22E627F60809E637F6080935
:1016C300E637F60809E637F622E026F608A3E03601
:1016D300F608A3E036F608A3E036F622E026F00883
:1016E300A3E036F008A3E036F008A3E036F022C307
:1016F300E697F60809E697F60809E697F60809E675
:1017030097F622C3E096F008A3E096F008A3E096CC
:10171300F008A3E096F022E056F608A3E056F60898
:10172300A3E056F608A3E056F622E056F008A3E03D
:1017330056F008A3E056F008A3E056F022E0F608BE
:10174300A3E0F608A3E0F608A3E0F622E6F008A378
:10175300E6F008A3E6F008A3E6F022E0FAA3E0FB34
:10176300A3E0FCA3E0FD22E0F8A3E0F9A3E0FAA3E1
:10177300E0FB22E8F0A3E9F0A3EAF0A3EBF022CA2E
:10178300C0E0E6F0A308DAFAD0E0FA22CAC0E0E04B
:10179300A3C582CCC582C583CDC583F0A3C582CC46
:1017A300C582C583CDC583DAE6D0E0CA22C3E498F7
:1017B300F8E499F91217F18026C3E49AFAE49BFB43
:1017C300E920E7E91217F1E498F8E499F922C3E470
:1017D30098F8E499F91217F1E498F8E499F9C3E455
:1017E3009AFAE49BFB22EB20E7CFE920E7E0B9007C
:1017F30010BB0008E88AF084F8AAF022E4FBC8FAD8
:1018030022EB70227B10C833C8C933C9335007C3D6
:101813009AC3DBF280069A50012ADBEAC833F4C884
:10182300C933F4C9FA2275F008E4C833C8C933C907
:1018330033C99AC99B5004C92AC93BD5F0ECFBC8EC
:1018430033F4C8E4C9FA22600D08C6A2E713C61828
:10185300C613C6D5E0F322600C08C6C313C618C668
:1018630013C6D5E0F422700422600D18C6C333C634
:1018730008C633C6D5E0F41822251810AF08F518AA
:10188300400C15198008F51840021519D2AF220033
:10189300C0D0251810AF08F518500C05198008F5AD
:1018A3001850020519D2AFD0D0222518F58210AFF7
:1018B30008F518400C15198008F51840021519D2BF
:1018C300AF851983222518F582E43519F58322257E
:1018D30018F8E43519F9222518FAE43519FB2225FD
:1018E30018FCE43519FD22E4732518C582C0E0E530
:1018F3001934FFC583C0E0E518C3958224F810AFFF
:10190300088583198582188008858319858218D2F2
:10191300AFCEF0A3E520F0A37808E608F0A3DEFA43
:10192300EFF0A3E58124FAF8E608F0A3E608F0A3B4
:10193300E608F0A30808E608F0A3E608F0A315817B
:101943001581D0E0FED0E0F8158115811581E8C03E
:10195300E0EEC0E0222518C582C0E0E51934FFC5DA
:1019630083C0E0E518C3958224F910AF0885831975
:101973008582188008858319858218D2AFCEF0A39B
:10198300E520F0A37808E608F0A3DEFAEFF0A3E57C
:101993008124FBF8E608F0A3E608F0A30808E608AC
:1019A300F0A3E608F0A315811581D0E0FED0E0F89E
:1019B30015811581E8C0E0EEC0E022851983851802
:1019C30082E0A3FEE0A3F5207808E0A3F608DFFA9F
:1019D300E0A3FFE0A3C0E0E0A3C0E0E0A3C0E0E039
:1019E300A3C0E0E0A3C0E010AF0885821885831987
:1019F3008008858218858319D2AFD083D0820201F3
:101A030032851983851882E0A3FEE0A3F5207808C8
:101A1300E0A3F608DFFAE0A3FFE0A3C0E0E0A3C081
:101A2300E0E0A3C0E0E0A3C0E010AF088582188522
:101A330083198008858218858319D2AFD083D08219
:101A430022C0D02518C582C0E0E51934FFC583C084
:101A5300E0E518C3958224F310AF088583198582C6
:101A6300188008858319858218D2AFC8F0A3E9F0DE
:101A7300A3EAF0A3EBF0A37908E709F0A3D8FAEC03
:101A8300F0A3EDF0A3EEF0A3EFF0A3D0E0F0A3D02A
:101A9300E0F0A3D0E0F0A3E520F0A3E5F0F0A3226B
:101AA300851983851882E0C0E0A3E0F9A3E0FAA3D7
:101AB300E0FBA37808E0F608A3DFFAE0FCA3E0FD6F
:101AC300A3E0FEA3E0FFA3E0C0E0A3E0C0E0A3E047
:101AD300F5D0A3E0F520A3E0A3F5F010AF088583CC
:101AE300198582188008858319858218D2AFD08220
:101AF300D083D0E0F8D0E032740480067402800210
:101B03007401C0E0F4041218ADD0E01217822274FD
:101B130004800474028000CCC0E0EDC0E0E518C38B
:101B23009CCCAD1950011D10AF068C188D19800681
:101B33008C188D19D2AF12178FD0E0FDD0E0FC22A4
:101B4300D083D082E9C0E0E493A3C386F0C5F095C7
:101B5300F0F908E493A386F0C5F095F0700BE493D5
:101B6300A3C3994005E9048002A3E475F002A42508
:101B730082F582E5F03583F583D0E0F9E493A3C0E1
:101B8300E0E493C0E022D083D082ECC0E0EDC0E07B
:101B9300E493A3FCE493A3FDED4C600D121BD5EC81
:101BA30024FFFCED34FFFD80EFE493A3FCE493A357
:101BB300FDED4C600D121C14EC24FFFCED34FFFD15
:101BC30080EFD0E0FDD0E0FCE493A3C0E0E493C059
:101BD300E022C0E0C3E49396087401939618400F83
:101BE300E49366700808740193661870007019A373
:101BF300A3C3E49396087401939618A3A3400DD04E
:101C0300E0D0E0D0E0021BC5A3A3A3A3A3A3D0E02D
:101C130022C0E0C0F088F0E4936670080874019372
:101C230066187000A8F0A3A3700BD0F0D0E0D0E04A
:0C1C3300D0E0021BC5A3A3D0F0D0E0223B
:101C400074F6121958EAFEEBFF8C088D09EE243465
:101C5000F8E43FF9E8FCE9FDEE2435121F53FAEEF3
:101C60002437121F53F88508F0A4C885F00A8509A7
:101C7000F0A4250AF9EA28F8E439F97A257B00125C
:101C800017F1EA8C828D83F0FA131313541FF8EEC8
:101C900028F8E43FF9E8245DF582E439F583E0C0F3
:101CA000E074075AF8D0E0B800028004C313D8FCEF
:101CB000A2E0EE50082434F582E43F801824361266
:101CC0001F53F5F0EA84A8F0EE28F8E43FF9E82481
:101CD00038F582E439F583E0F97F03021A0474F7DA
:101CE000121958EAFEEBFFEE2434121F53C0E0EE47
:101CF0002435F582E43FF583D0E0F08E828F83A314
:101D0000A3A3A3A3A3A3C082C0838E828F83A3A314
:101D1000A3A3A3E0F8A3E0F9D083D082E0C398F5B1
:101D200008A3E099F509EE247F121F536401703E69
:101D3000EE2480F582E43FF583C082C0838E828FDB
:101D400083A3A3A3A3A3E0240108A3E03400F9D054
:101D500083D082E0687003A3E06970127CB17D04D7
:101D6000120C92EE247FF582E43FF583E4F0AC0898
:101D7000AD09EEFAEFFB121C40E9F91229A27F022D
:101D8000021A04C082C083851882851983E0F8A3F3
:101D9000E0F9C3EA9CEB9D5010C3EC98ED99401B11
:101DA000C3EA98EB995014800EC3EA98EB99400768
:101DB000C3EC98ED994004790180027900D083D07A
:101DC0008222EAC39CFAEB9DFB2274EF1219589011
:101DD0000376E064086005E06407702A9061C8E05B
:101DE00060249003A4E0F4601DE0F875F00BA4C833
:101DF000AAF02AF974A628FE740339FF8E828F8315
:101E0000A3A3A3E07003021ED8906060E0C0E0EEE0
:101E10002468F582E43FF583D0E0F0750C21750D60
:101E200005750800750900E5D914F50AE5D95403CC
:101E3000F50E60127403650E6043E50A600AEE2435
:101E400067121F537002807590051CE06401601FCB
:101E5000121F5060047A0480027A00E50AC39AFADD
:101E600095E0FB120B3C8A088B09EA4509700512C4
:101E70000ED88064121F5070048A0C8B0DE50A6026
:101E800012850C82850D83F50BE5D9F0A3150BE5C2
:101E90000B70F6121F50604474FC250AF50A780C8A
:101EA000121AFFAC0AA90EEEFAEFFB120D4C7402E7
:101EB000121892E97026AA08AB09121370793D8EA8
:101EC000828F83A3A3A3A3E0FA7B0012099EEEFAFC
:101ED000EFFB120CB6120D5E7900806F7403650E75
:101EE0006051850A107511007810121AFFAC0CAD04
:101EF0000DAA08AB09120D107402121892EE246894
:101F0000121F5364807004747F8001E0F50C780C1C
:101F1000121B03E50EF50C780C121B03A90AAC0882
:101F2000AD099003A4E0FA7B001209747402121840
:101F3000928013900376E06408600BAC0CAD0DEE5C
:101F4000FAEFFB120DD6120EE479017F0A021A0491
:101F5000EE2483F582E43FF583E02274F2121958EF
:101F600074FC12187CEAFEEBFF8909A2AFE433F59A
:101F700008C2AF022025E0601B780C121AFFAC0BE0
:101F8000A90EEEFAEFFB120D4674021218927404B9
:101F9000250BF50B7401250BF5D9850ED9E50B60E2
:101FA00018F50A850C82850D83E0F5D9A385820C8E
:101FB00085830D150AE50A70EA75E195EE2463F84C
:101FC000E43FF97A007B00A2AFE433F50BC2AF889F
:101FD000828983E0FCA3E0FDEC4D603A888289832E
:101FE000E0FAA3E0FB8A828B83E0FCA3E0FD888219
:101FF0008983ECF0A3EDF08A828B83E4F0A3F08870
:10200000828983E0FCA3E0FDEC4D700A888289831D
:10201000A3A3E4F0A3F0E50BA2E092AF121370903B
:1020200004B8E004F0EE2463121F53F8A3E0F9E8CB
:10203000496064EE2463121F532402F8A3E03400C5
:10204000F988828983E5822402F50CE43583F50D55
:10205000E0F50BA3E0F50EEE2462121F536401704D
:10206000369061D0E0F8121F5060047C0480027C3E
:10207000007480C398FA95E0FBE50B2CF8E434007B
:10208000F9E82402F8500109C3EA98EB99A2D26555
:10209000D0334003021F769004B8E0604D9004B93D
:1020A000E0F89004B8E0C398500C74026509703AE7
:1020B0009004BAE060348E828F83A3A3A3A3E0854B
:1020C00018828519831220FA74021218C8E81220A7
:1020D000FA9004B7E028F074021218E2AA18AB19BB
:1020E00079011209C89004B8E4F0E508A2E092AFC3
:1020F00074041218927F07021A04F0A3E4F090040B
:10210000B8E0F8228521878522C622C0E074EB1250
:102110001A44A2AFE433F508C2AF759B0090618208
:10212000E0A2E05030E591A2E0502A7591FE7401E2
:102130006521702112229E120E2412228C121B1273
:1021400012274C7404121892E96401700579011287
:102150000E6C121DCA906182E0A2E5505DE591A26D
:10216000E550577591DF900376E064076005E06401
:1021700008702F12229E74016521703E120E2412E7
:10218000228C121B1212274C7404121892E964015B
:1021900070057901120E6C7901EEFAEFFB121F5BEC
:1021A0008018E0640D7013900398E004F0642870C8
:1021B00002E4F07A00E0F9120EEA906182E0A2E611
:1021C0004003022261E591A2E6400302226175917B
:1021D000BF900376E064057008120E0C120E188092
:1021E00003120E12752100120E78E9900377F07930
:1021F00000120E6C120C027A017B00900375E0F95C
:10220000121340907803E064427056900520E01469
:10221000F0704EC2AF12221800782AD0E0F618D023
:10222000E0F6E59F5407F87005750DFF8003750D06
:102230007FC4C0E07829E6F50A08E6550DF50B7471
:102240000B780A12185AD0E0250AF8906270E0A2C2
:10225000E740F8E8C333906272F0906270E0D2E039
:10226000F0906181E0A2E35009E5E9A2E350037533
:10227000E9F7A3E0A2E75009E591A2E750037591C1
:102280007FE508A2E092AF7F08021AA38E828F83B7
:10229000E0F8A3E0C82416F582E438F58322900321
:1022A000A4E0F875F00BA4C8AAF02AF974A628FED9
:1022B000740339FF22C0E0C0D0C082C08390618324
:1022C000E0A2E05009E5BFA2E0500375BFFEE0A226
:1022D000E15009E5BFA2E1500375BFFDE0A2E25065
:1022E00009E5BFA2E2500375BFFBE0A2E35009E598
:1022F000BFA2E3500375BFF7E0A2E45009E5BFA217
:10230000E4500375BFEFE0A2E55009E5BFA2E55038
:102310000375BFDFE0A2E65009E5BFA2E6500375F2
:10232000BFBFD083D082D0D0D0E032C0E074F212F0
:102330001A44E5A7A2E6500FE5A1A2E6500953A76B
:10234000BF75A1BF12237FE5A7A2E5500CE5A1A2AE
:10235000E5500653A7DF75A1DFE5A7A2E15009E527
:10236000A1A2E1500375A1FDE5A7A2E2500CE5A1F1
:10237000A2E2500653A7FB75A1FB7F01021AA374CA
:10238000F7121958752101900376E0640670151252
:102390000D828A828B83A3A3A3A3A3A3E0FAA3E065
:1023A000FB120DFAA2AFE433FED2AF90037CE064DF
:1023B0000170187A207B00900375E0F912146C7A92
:1023C000207B00900375E0F9121346906182E0D201
:1023D000E6F090051DE0602185C622801690037B03
:1023E000E064017008E5C654F84405F5C653BEFC28
:1023F0001221047401652160E4EEA2E092AF7F0235
:10240000021A04008E238F2485822885832785184D
:1024100082851983E0CEA3E0CF852882852783EBD0
:10242000C9EAC8EDCBECCA75F010C3E833C8E9338C
:10243000C9EA33CAEB33CBC3EA9EF526EB9FF525F9
:10244000B35004AB25AA26EC33CCED33CDD5F0DA6E
:10245000AE23AF242274E912195874FA12187CEAD8
:10246000FEEBFF8C0A8D0B120E30EAF8EBF9ECFA5A
:10247000EDFB8E828F83121776900376E024F7C3EC
:10248000940550067514010225BC120D828A088B32
:1024900009EA450970030225B9EEFCEFFDAA18AB65
:1024A00019120E2A850882850983A3A3780C1217B6
:1024B00040908171780C12171A85188285198378DB
:1024C00010121740908171781012171A780C791039
:1024D000121553501F780C79101216F290816578FE
:1024E0000C1215734047850C14850D15850E168545
:1024F0000F1780459081658510148511158512167A
:102500008513177814790C1216F27814121573507B
:102510001C7514007515007516007517017814796F
:10252000101216F27814790C1216B9800C75140179
:102530007515007516007517007409781412169A2F
:102540009081E9780C1217407814790C12161285D4
:102550000882850983A3A3A3A3A3A31225DA1217D4
:10256000F1880C890DE4F50EF50F7814790C12162C
:10257000B974041218C81225DA1217F1E8FA8A0C95
:10258000E4F50D7814790C12155350077814790C72
:102590001216F2900376E06408600AE064066005B3
:1025A000E0640570209081697814121573501690BC
:1025B000816D78141216CC800C7514007515007599
:1025C0001600751700850A82850B83781412174F41
:1025D00074061218927F10021A04E0F8A3E0F97A48
:1025E000D07B032274F7121958120E4290051BE09B
:1025F00064017010906245E4F0A3F053F4F343FEDD
:102600000C5390F3120DE8E5C654B84441F5C6E505
:102610009E5447644170F8906185740FF0900519DD
:10262000E0F47002A3E0604E90051AE060081460C8
:102630001B14602E8040750801750900900519E093
:102640007808121869E508F45280802A7508017527
:102650000900900519E07808121869E508F452900D
:102660008014750801750900900519E078081218A2
:1026700069E508F452A079007F02021A0474F71287
:102680001958E9FEEAFF120E4274016E700C7A804E
:102690007B00900375E0F9121340902A08E493F44C
:1026A0006008E493F9120BF6800953C6B8E59E540E
:1026B0004770FA120DEE90051BE064017003120CD6
:1026C00014900519E0F47002A3E0604B90051AE045
:1026D000600814601A14602C803D750801750900AB
:1026E000900519E07808121869E50842808028757D
:1026F0000801750900900519E07808121869E508C5
:1027000042908013750801750900900519E078085A
:10271000121869E50842A0120D828A088B09A808E0
:10272000A909E8496014E5E170FCE82414F582E4A5
:1027300039F583E0F46003E0F5E174016F700A7A23
:1027400001900375E0F91213DC02267874F1121976
:10275000588A088B098C0A8D0B90817178081217A2
:102760001A740F1218C8780C121740908171780CE7
:1027700012171A7808790C12155390816550107849
:1027800008790C1216F278081215734014800E782E
:102790000C79081216F2780C121573500479018026
:1027A0000279007F08021A0474ED1219588A088B06
:1027B000098C0A8D0B908171780812171A74131204
:1027C00018C8780C121740908171780C12171A787B
:1027D0000C790812155340117808790C1216F2AAD8
:1027E00008AB09AC0AAD0B8022751000751100759D
:1027F00012007513017810790C1216F2781079080E
:102800001216B9AA10AB11AC12AD137F0C021A0448
:1028100090817178081217408A828B83780812178A
:102820002D7F04021A0474F51219588C828D837856
:10283000081217408A828B83780812170612287EA6
:10284000C3E09CF0A3E09D1228704022908195780F
:10285000081217408A828B8378081216DF8A828BCF
:1028600083A3A3A3A3E02420F0A3E0344EF080A030
:10287000F088828983C3E09420A3E0944E22EA2466
:1028800004F8E43BF98C828D83A3A3A3A3E0FCA30B
:10289000E0FD888289832274F5121958E9FE9004BC
:1028A000D3E0FAA3E0FBEE29F8E433F974C928F584
:1028B00082748039F583E02AF508A3E03BF50978B6
:1028C00008121AFF9081D912175E122404740212A2
:1028D00018928A088B098C0A8D0B741078081216CE
:1028E00081AA08AB097F04021A0474F11219588AEC
:1028F0000C8B0D8C0E8D0F74111218C8121B1674D0
:10290000111218C8E02401F508A3E03400F509E429
:10291000F50AF50B780C79081215929081797808F0
:10292000121740780C7908121592AA0CAB0DAC0E58
:10293000AD0F12240474021218928B09EA45096043
:10294000047A0180027A00EC2AFCE43DFD74131243
:1029500018C8E0F8A3E0F9E8FEE9FFECF8EDF97A31
:10296000717B021217F188088909E4F50AF50B8ECC
:10297000828F83780812174FECF8EDF97A717B0299
:102980001217F18A088B09740578081218698E826B
:102990008F83A3A3A3A3E508F0A3E509F07F0802B2
:1029A0001A04C082C083E9906000F0D083D08222F4
:1029B000C0E074F2121A44A2AFE433FED2AFE5894C
:1029C000A2E04006E589A2E1500312127475890065
:1029D000758900C2C5751A00EEA2E092AF7F0102B0
:1029E0001AA3C0E0C0D0E8C0E0A8A8D2AFC2C775A3
:1029F0001A00E8A2E792AFD0E0F8D0D0D0E032C21F
:102A0000AF02000022020132FFFFFFFFFFFFFFFFC6
:102A1000C082C083E99016B3F0D083D08202013225
:102A200074F61218ECE99002E8F0900348E0F5081B
:102A300075090074027808121869AA08AB09121304
:102A4000C49002E91233D39002E91237C0606F904C
:102A50000348E075F003A4FAABF01213C490030628
:102A60001233D39003061237C0700B9002E912376D
:102A7000911213CA80489003061247257AFF7BFF04
:102A80001211EA7A0080198A087509007402780820
:102A90001218691241CD74FF122BD3E4F0A3F00A8F
:102AA000900348E0F8EAC39840DD79051208609089
:102AB00002E8E0F912074C7AEA7B08120ADC0242CB
:102AC0007074F41218EC8A088B09EB5480604790FC
:102AD00002E8E0F91213288A0A8B0BAE0AAF0BEE5C
:102AE0004F602A8E828F83E064B0701A120872E9F8
:102AF00060148E828F83A3A3A3A3E0F9EE2405FACA
:102B0000E43FFB120842EEFAEFFB121316AA08E5A7
:102B1000096480FB80047A007B00022D2374F2128A
:102B200018EC74FB12187CEAFEEBFFEE4F60457464
:102B3000031218C8EEF0A3EFF0851882851983EC14
:102B4000F0A3EDF074021218C8E9F0AA18AB19123C
:102B50000746E9F508707574131218C8E0F50AA362
:102B6000E0F50BE50A450B60638E828F8312315CC2
:102B7000EE4F700575080280537A067B001213C46D
:102B80008A0C8B0DA80CA90DE849700575081380F7
:102B90003B88828983E4122BD3EEF0A3EF122CEF53
:102BA000E50AF0A3E50BF09002EC122CE89002ECA1
:102BB0006017E0FCA3E08003EAFCEBFD8C828D83D0
:102BC000122CE870F38C828D83123DE8A9087405FD
:102BD0000249A5F0A3124707A32274F21218EC8948
:102BE00008890C750D007403780C121869850C0A9D
:102BF000850D0B9002EBF09002E9123BF3122CE6EC
:102C0000602E1213CA7900801D890C750D007402A4
:102C1000780C1218699002E912408C8882F583A31F
:102C2000A3E4F0A3F009900348E0F8E9C39840D981
:102C3000900348E0FA850AF0A4CAA8F0850BF0A436
:102C400028FB1213C48A0C8B0DAE0CAF0DEE4F7027
:102C500003022CDC900348E0FC850AF0A4CCA8F029
:102C6000850BF0A428FD79001213047C0080318DBF
:102C70000C750D007403780C1218698A828B83120C
:102C80002CE188828983E4F0122CEEA3A3F0A3F058
:102C90000DEDC3950840D8EE250AFEEF350BFF0C6D
:102CA000900348E0F8ECC39850288C0C750D007424
:102CB00002780C1218699002E9122CE1E824025003
:102CC0000109FAE9FB8A828B83EEF0A3EFF07D0025
:102CD00080BFE5089002EBF0790080027913024989
:102CE000A8124090F922A3A3123795EA4B22A3120F
:102CF0004707A3A3A32274F41218EC7900EAA2E018
:102D0000501F75084C7509817808121AFF79107CDC
:102D1000047D007AB57B1612085A7402121892E9E3
:102D2000F980007F040219BEC082C0839002EC12B9
:102D300037C0601C88828983A3A3E06A7003A3E084
:102D40006B8882898370E8A3A3A3A31237918004C0
:102D50007A007B00022A1974F21218EC74FD121822
:102D60007CEAFEEBFF851882851983E4F0A3F074FA
:102D7000021218C87401F01237BD7014120A16122C
:102D800013C49002EF1233D31237BD7003022EE941
:102D90001234D3EE2404F50AE43FF50B850A82F5DC
:102DA00083E024FE603C24FC607424FE607E24FEEC
:102DB0007003022E3924FE7003022E4624FE700397
:102DC000022E5324FE7003022E6024FE7003022E96
:102DD0006D24FC7003022E8E24FE7003022EA602C8
:102DE0002EE2120A169002F1EAF0A3EB122EF5126F
:102DF000048EE96003022EE29002F1121B168E820D
:102E00008F83A3A3A3A3A3124725850882850983E3
:102E100012379112082A7402121892022EE2AC188C
:102E2000AD19EEFAEFFB120878022EB1AC18AD190D
:102E3000EEFAEFFB12087E8078AC18AD19EEFAEFCF
:102E4000FB120884806BAC18AD19EEFAEFFB120888
:102E50008A805EAC18AD19EEFAEFFB120890805133
:102E6000AC18AD19EEFAEFFB12089680447402120A
:102E700018D2880C890D780C121AFF74021218E20D
:102E8000EEFAEFFB12089C74021218928023AC1821
:102E9000AD19EEFAEFFB1208A2E9F87016740212EF
:102EA00018C8E4F0803CAC18AD19EEFAEFFB12083C
:102EB000A8E9F8E8602C8E828F83A3E06414602276
:102EC000850A82850B83E09002F1F08518828519CE
:102ED000831237919002F21233D3E8A3122EF51227
:102EE0000488EEFAEFFB12080074021218C8E0F929
:102EF00074030249A5F07CF17D028508828509836F
:102F00001237952274E81218EC74FA12187C7404C3
:102F10001218C8ECF0A3EDF08A128B13EA2405F521
:102F20000EE43513F50FEA2402F510E43513F5111C
:102F3000851082F58312379112057E8A0A8B0B75F4
:102F400008007C037D0079007AF17B02121304E50E
:102F50000E2402F516E4350FF51774021218D28804
:102F60000C890D780C121AFF850E82850F83A3A39E
:102F7000A3A3E0F50C750D00780C121AFFE50E24E2
:102F800005F50CE4350FF50D780C121AFF85168245
:102F9000851783123A9812076474061218928A0CE5
:102FA0008B0DE50C450D70030231258020851882BC
:102FB000851983E088828983F00508851882851940
:102FC00083A3E0C0E0123166D0E0F00508E50A24F2
:102FD000FBFAE50B34FFFBC3E5089AE49B400302D0
:102FE00031257E007F00851282851383A3A3A3A3CE
:102FF000E0F5097809121B03E4F514F515781412AD
:103000001AFF7514EE7515027814121AFF9002EF6C
:10301000121B1674091218C8121B16E50A24F9F9B6
:10302000AC0CAD0D8510828511831237911208D238
:103030007409121892E960030230C6850E82850F6A
:1030400083A3A3A3A3A3A3A3E0F89002EEE0687078
:1030500075E0F5148E157814121AFF124722850EAA
:1030600082850F83A3A3A3A3A3A3A3A312379112C3
:1030700012FE7402121892E9604C9002F21237C0EC
:10308000703BE4F5147814121AFF7CFF7DFF79077A
:1030900085108285118312379112083C7402121830
:1030A000921237C67017850E82850F831248BF743F
:1030B000041218C8124180123AC9023159850C8293
:1030C000850D8312315CA818A91988148915781404
:1030D000121AFF74041218C8121B1685168285175F
:1030E000831233C912077074041218928A0C8B0D64
:1030F000EE4F7003022FA2123166EE123171123AB6
:103100007FEF123171F8A3E03400F9E50C450D6052
:1031100003022FAD8882898374FFF005081231669F
:1031200074FFF00508E508601A1313543F1233D9F1
:1031300012049AE960099002F21237911213707921
:10314000008016850E82850F831248BF7404121802
:10315000C8124180123DE8790A023A52A3A3A3A300
:10316000E0FEA3E0FF22A8089002F2E028123A7FD6
:1031700022F00508089002F2E0282274E81218EC08
:1031800074FA12187C74021218C81233D374041221
:1031900018C8ECF0A3EDF074021218C8E024051270
:1031A0003A68E0F50CA3E0F50D74021218C8E024AB
:1031B00002F510A3E03400F511851082F583123773
:1031C0009112057E750800750900EA24FCFEEB34B7
:1031D000FFFF8008050CE50C7002050DA808C3EE82
:1031E00098EF94005003023385A818A919880E8916
:1031F0000F780E121AFF851482851583A3A3A3A34B
:10320000124729121AFFE5142405F50EE43515F5C9
:103210000F780E121AFF8514828515831233C71298
:10322000076474061218928A0E8B0FEA450F70031A
:10323000023385EA2404F516E4350FF51785168266
:10324000F583E0F50CA3E0F50D851882851983124E
:1032500047258A828B83A3A3A3E0F9851082851179
:1032600083123791120752E9F5096003023385741E
:10327000021218C8123A8FF5097809121B03E4F5F7
:1032800012F5137812121AFF7512EE7513027812E6
:10329000121AFF9002EF121B1674071218C8121BA5
:1032A00016EEF9AC0EAD0F851082851183123791A1
:1032B0001208D27409121892E9F5096003023385E5
:1032C000E508703FE4F50EF50F780E121AFF7CFF4B
:1032D0007DFF790985108285118312379112083C90
:1032E0007402121892123AB5700D74041218C812B2
:1032F00033BC79110233B99002EEE024029002F25D
:10330000F080149002F2E0FA9002EEE079002402DC
:103310005001096A497072A8089002EEE0FAE82AA2
:10332000FAE43400FBEE9AEF9B405A85168285172B
:1033300083E0C0E09002F312316BD0E0F005088525
:103340001682851783A3E0C0E0089002F312316B68
:10335000D0E0F005089002EE124729121AFF12473A
:1033600022A808123A5C1212EC740212189290020F
:10337000EEE02508F50874FF650C700474FF650D18
:1033800060030231D4E508601F9002F2E0F5F0E539
:1033900008841233D91204A0E960099002F31237AD
:1033A0009112137079008011E509700375090A7490
:1033B000041218C81233BCA909023A52123BF7E5AD
:1033C0000CF0A3E50DF022A3A31249B4AA0CAB0D97
:1033D00022A3A3EAF0A3EBF0229002F1F07CF17DAE
:1033E000028510828511831237952274EC1218EC35
:1033F00074FC12187C123EF874021218E212378B19
:1034000012076A8A0C8B0DEA450D70030234C31251
:1034100034D3A818A919881089117810121AFF7CC2
:10342000FF7DFF790B850882850983123791120889
:103430003C74021218921235C9700C850A82850BF1
:1034400083123AC60234D08E828F83A3A3A3A3E053
:10345000F5127812121B03E4F512F5137812121A02
:10346000FF7512F17513027812121AFF7810121AF2
:10347000FF74091218C8121B1674091218C8E0F953
:10348000AC0CAD0D8508828509831237911208D2E4
:103490007409121892E9FE70157CF17D028508828C
:1034A0008509831237911204A6E9700980207416E9
:1034B0006E70027E009002F2123791121370EE705D
:1034C00004800B7E01850A82850B83123DE5EEF9AF
:1034D000023DFAEE2402F508E43FF5092274EC12ED
:1034E00018EC74FC12187CEAFEEBFF8C0E8D0FEECC
:1034F0002405F508E43FF50974021218E2850882F4
:1035000085098312379112076A8A0C8B0DEA450DE3
:1035100070030235B9EE2402F50AE43FF50BA81852
:10352000A919881089117810121AFF7CFF7DFF7984
:103530000D12378B12083C74021218921235C970A2
:103540000B850882850983123AC6807A8E828F8322
:10355000A3A3A3A3E0F5127812121B0385088285AA
:103560000983A3A3121B167512F1751302781212A8
:103570001AFF7810121AFF74091218C8121B167459
:10358000091218C8E0F91237871208D27409121804
:1035900092E9FE700F7CF17D0212378B1204ACE9C8
:1035A0007009802074166E70027E009002F212374D
:1035B00091121370EE7004800B7E018508828509DC
:1035C00083123DE5EEF9023DFA1237D0F510A3E083
:1035D000F511EA45112274E81218EC74FE12187CF9
:1035E0008A168B178C148D15EA2405F50CE4351713
:1035F000F50DEA2402F50EE43517F50F850E82F578
:103600008312379112057E8A088B09750B007C03A3
:103610007D0079007AF17B02121304750A00E50837
:1036200014F5100424FFF508E50934FFF50980546A
:103630009002F1E0FA9002EEE0F8EA28F8E43400B3
:10364000F9E50898E50999500D9002F1E0F8E510C8
:10365000C3989002EEF0E0F5127513007812121A7A
:10366000FF1247229002F2E02AFAA3E03400FB1294
:1036700012EC74021218929002EEE0F89002F1E05F
:1036800028F0050A850C82850D83A3A312409C4077
:103690000302376C9002F1E0C39508E495094003FA
:1036A00002376CAE0AEE2EFEE433FF1237ABAC18D5
:1036B000AD1912473DE439FB12076A8A128B13AC2D
:1036C00012AD13EC4D701B750B0112379B123DE9C7
:1036D0009002F2122CE86003121370A90B7402021C
:1036E0003A54851682851783A3A3A3A3E0F50B782C
:1036F0000B121B03E4F512F5137812121AFF751260
:10370000EE7513027812121AFF9002EF121B167454
:10371000071218C8121B16A910850E82850F831276
:1037200037911208D27409121892E9F50B709B9028
:1037300002F21237C06003023630E4F512F5137856
:1037400012121AFF7CFF7DFF790F850E82850F8391
:1037500012379112083C74021218921237C6600395
:1037600002363012379B123ACA0236DD7CF17D02F6
:10377000850E82850F831237911204B2E96003022D
:1037800036D079000236DDAC0CAD0D850A82850B92
:103790008312379522E0FAA3E0FB221237ABE0FA5E
:1037A000A3E0F9EA85148285158322850C82850DB4
:1037B00083E02EF8A3E03FF988828983229002EF0C
:1037C0001248C3E849221237D0F8A3E0F9E84922A9
:1037D0009002F2EAF0A3EBF09002F2E02274E81219
:1037E00018EC74FA12187C74041218C81233D38CB3
:1037F000168D1774041218C8E02405F50EA3E034E2
:1038000000F50F74041218C8E02402123A68123747
:103810009112057E8A0A8B0B7F007E00A818A919D9
:10382000880889097808121AFF850E82850F83A3FC
:10383000A3A3A3E0F5088E097808121AFFE50E2469
:1038400005F508E4350FF5097808121AFF850E8290
:10385000850F83A3A3123A98120764740612189274
:103860008A0C8B0D8029123A89F00F123A89F00FD9
:103870009002EE123DD4121AFF124722EFF8123ACC
:103880005C1212EC74021218929002EEE02FFFE527
:103890000C450D7003023918851882851983123F73
:1038A0000AA3A3A3E0F98514828515831237911228
:1038B0000752E9FEE50C2404F510E4350DF511EE90
:1038C000705074041218C8123A8FF5087808121B49
:1038D00003E4F508F5097808121AFF7508EE750972
:1038E000027808121AFF9002EF121B1674071218C2
:1038F000C8121B16E50A24FAF9AC0CAD0D8514822A
:103900008515831237911208D27409121892E9FEB4
:103910006039123AA5123DE8EF7003023A3F900277
:10392000F2E0F5F0EF849002F1F07CF17D02851475
:10393000828515831237911204B8E960099002F369
:103940001237911213707900023A528F08EF703BD0
:10395000E4F512F5137812121AFF7CFF7DFF79113E
:1039600085148285158312379112083C740212184F
:1039700092123AB57009123AA5123AC9023A529017
:1039800002EEE024049002F2F080359002EEE0F8BE
:103990009002F2E0FAE82404FCE43400FDEC6A4D05
:1039A000600302391EE50A24FAFAE50B34FFFBE551
:1039B0000828F8E43400F9EA98EB99500302391E1C
:1039C000851082851183E0C0E09002F3E02FF8A318
:1039D000E034008882F583D0E0F00F8510828511F5
:1039E00083A3E0C0E0123A76D0E0F00F7402121820
:1039F000D2880889097808121AFF74021218C812AE
:103A00001B16850E82850F831233C712077074044C
:103A10001218928A0C8B0DEA450D700302386674F9
:103A2000021218C8E0C0E0123A76D0E0F00F74023B
:103A30001218C8A3E0C0E0123A76D0E002386EEE69
:103A400070027E0A850E82850F83123AAB123DE822
:103A5000EEF974061218927F100219BE9002F3E07C
:103A600028FAA3E03400FB22F514A3E03400F51596
:103A7000851482F58322123A7A229002F3E02FFA1B
:103A8000A3E034008A82F58322123A7A74FF22126C
:103A90003BF7A3A3A3A3E0221249B4850E82850FAE
:103AA00083123795228510828511831248C38516AB
:103AB00082851783229002F3EAF0A3EBF09002F3E1
:103AC0001248C3E84922123DEEE8F0A3E9F079116B
:103AD0002274EA1218EC74FE12187C8A088B098C86
:103AE000128D13EA2405FEE43509FFAC18AD198EDA
:103AF000828F8312379112076A8A0C8B0DEE24068F
:103B0000F50EE43FF50FEA450D7003023BC9E508E9
:103B10002402F50AE43509F50B8A828B83A3A3A35B
:103B2000E0A2E55028851882851983123791120882
:103B3000C68A108B11EA45116020791212378785E9
:103B400010828511831218EAE9F50C707F850E82C8
:103B5000850F83E0600979528011750C0E806D85A8
:103B60000882850983A3A3A3A3E0F9E4F508F50976
:103B70007808121AFF8E828F83A3A3E0F5087808D5
:103B8000121AFF8E828F83A3A3A3121B168E828F1D
:103B90008312472512378B1208D87406121892E93F
:103BA000F50C7011850E82850F83E0702D12378B16
:103BB0001204BE80257416650C7011750C00741803
:103BC0001218C8123BF3E48010750C011248BB8533
:103BD0001282851383E8F0A3E9F0850E82850F83B6
:103BE000E0600479008002A90C74021218927F0E22
:103BF0000219BE123BF722E0F8A3E0F58388822287
:103C000074EC1218EC74F712187C8A0A8B0B8C1067
:103C10008D11EA2405FEE4350BFF750C00AC18ADE0
:103C2000198E828F8312379112076A8A088B09EAEC
:103C300045097003023DBFE50A2402F50A5002055A
:103C40000B8A828B83A3A3A3E0A2E5502F85188261
:103C50008519831237911208C68A0C8B0DEA450D1F
:103C6000604F7912AC08AD0912378B850C82850D37
:103C7000831218EAE9F50C6003023DC2850A8285C9
:103C80000B83E0F508A3E0F509AA08FB1208BAEADD
:103C90004B70197AFF7BFF1208BAEA4B7003023DA2
:103CA000B58A828B83E508F0A3E509F075080080EA
:103CB00008750C0E023DC205089002EBE0F8E5081D
:103CC000C3984003023DB585080E750F0074037854
:103CD0000E1218698A828B83A3A3E0250EF8A3E055
:103CE000350F12418970D08E828F83123DDD1233E1
:103CF000D38E828F83A3A3123DDD1233D1EE240431
:103D0000F508E43FF509850882F583E08882898318
:103D1000A3A3A3A3F0A3E4F0EE2405F50EE43FF57E
:103D20000F850E82F583123DDDA3A3A3A31233D129
:103D30007512077513007812121AFFEEFCEFFD746E
:103D4000041218DA1212EC7402121892E4F51278C6
:103D500012121AFF850882850983E0FC7D0079171D
:103D600012378B12083C740212189274071218C88A
:103D70001233D374071218C8E0FA4B603D850882ED
:103D8000850983123DD4121AFF850E82850F831296
:103D900047251212EC740212189274021218E212E1
:103DA000378B1204C4E9602674071218C8123791C1
:103DB0001213708019750C098008750C1180037539
:103DC0000C011248BB851082851183123DE8A90CB5
:103DD00074098028E0F508750900780822123795E3
:103DE0008882898322123DEEE8F0A3E9F022E0F810
:103DF000A3E0F9850E82850F832274041218927F46
:103E00000C0219BE74EC1218EC123EF8751000EE9C
:103E10002402F50CE43FF50D850C82F583123791F1
:103E20001208BA8A088B09EA45097003023EDC854C
:103E30000A82850B83E064016003023ED1AC08ADC9
:103E400009AA0AAB0B1208AEE9606E8508828509E3
:103E50008312315EEE2406F50AE43FF50B8E828F65
:103E600083A3A3121B168E828F83A3A3A3A3121B6B
:103E700016850A82850B83121B1679188E828F8312
:103E8000123F0A1237911208D87406121892E9F8F4
:103E9000741668700B850A82850B83E4F0A3801486
:103EA000E860128E828F83123791850E82850F8390
:103EB000EAF0A3EBF088108018780E121AFFAC0815
:103EC000AD09EEFAEFFB1208B47402121892E9F58C
:103ED00010AA08AB091208C0E510700E850C828587
:103EE0000D831237911204CA80097416651070038D
:103EF000751000A910023DFFEAFEEBFF8C0E8D0F3E
:103F0000EE2405F50AE43FF50B221249B4850C8234
:103F1000850D832274EA1218EC7508007509007E7D
:103F2000007F00750A00EC2402F510E43DF51180D5
:103F300035EC65087003ED65096003023FC98882AE
:103F40008983A3A3E06A7003A3E06B707C888289F5
:103F500083A3A3A3A31248BFEE28FEEF39FFEA28EC
:103F6000FAEB39FB050A124099503A850A0C750D97
:103F7000007403780C121869851082851183124031
:103F80008C124189601FE508450970A58C088D09D0
:103F90008882898312315C88828983A3A3E02EFA08
:103FA000A3E03F80BEE50AC3940250030240877538
:103FB0000800750900EE4F6010EEFAEFFB12136A6D
:103FC0008A0E8B0FEA450F70057900024089750B48
:103FD0000002405C850B0C750D007403780C121800
:103FE00069851082851183E0250CF50CA3E0350D61
:103FF000F50DE50C2406F514E4350DF51585148250
:10400000F58312418E6042E50C2404F512E4350D6F
:10401000F513851282F583121B16E50E2508FAE5C5
:104020000F3509FB1212EC74021218928512828568
:104030001383E02508F508A3E03509F50985148206
:10404000851583123791121370E50B600D7C087D86
:10405000007900AA0CAB0D121304050BE50BC395F8
:104060000A5003023FD48510828511831248BF880D
:10407000828983A3A3A3A3A3A3E50EF0A3E50F1254
:104080002CEFEEF0A3EFF07901023BEE124090220C
:10409000E0250CF8A3E0350D229002EBE0F8E50AEC
:1040A000C3982274F01218EC8A0E8B0F8C0A8D0BB9
:1040B000750D00750C0080507916EE2406F508E4A5
:1040C0003FF5098E828F83A3A3121B168E828F83E6
:1040D000A3A3A3A3121B16850882850983121B16AE
:1040E000850E82850F83A3A31237911208D8740618
:1040F000121892E9F50D7416650D706C85088285AD
:104100000983E4F0A3F0050C9002EBE0F8E50CC3A2
:10411000985066AA0C8A087509007403780812186A
:1041200069850A82850B83A3A31241D8E8FEE9FFC3
:104130008E828F8312418E6040EA2401F508E434B8
:1041400000F5099002EBE065087002E5096014884B
:10415000828983A3A3A3A3A3A3A3A31237C060034D
:104160000240B879180240BAE9609B1248BB74104B
:104170001218C8124180123DE8A90D7F080219BE2D
:10418000E0FAA3E0F5838A8222F9888289831249C2
:10419000B4EC4D2274F61218EC7C0080010C9003F4
:1041A00048E0F8ECC398501E8C087509007402783A
:1041B000081218691241CDE06A7003A3E06B70DD4C
:1041C000E8FAE9FB80047A007B000242709002E981
:1041D0001241D88882898322E02508F8A3E03509B6
:1041E000F92274F21218EC8A088B09750A008027EC
:1041F0008E828F83A3A3A3A3122CE66003121370F5
:104200007C087D007900EEFAEFFB1213048E828F9A
:1042100083E4F0A3F0050A1240995027850A0C7533
:104220000D007403780C121869850882850983A330
:10423000A3E0250CFEA3E0350DFF8E828F8312379D
:10424000C070AD85088285098374FFF0A3F0024930
:10425000A874F61218EC12086C8A828B83E58245EA
:104260008370067A007B008007A3A3A3A312379173
:104270007F020219BE74F41218EC89088C828D83B7
:10428000E06402703C12485EFEA3E0F9EEF87402AE
:104290006870037429697029750A02750B00780A21
:1042A000121AFF74101218C8121B1674101218C8B4
:1042B000121B16A9081211FC7406121892E9F98053
:1042C000027901022D2374E81218EC74FB12187C99
:1042D000E9851882851983F08A168B17ECFEEDFFAD
:1042E0007510008E828F83A3A3A3E0A2E4502D74E7
:1042F0001D1218C81237911208C68A828B83E58274
:10430000458370030246FD790AEEFCEFFDAA16AB69
:10431000171218EAE9F5106003024700741F12181B
:10432000C8E0F508A3E0F50974211218C8E0F50A01
:10433000A3E0F50B74231218C8E0F50EA3E0F50F07
:104340008E828F83E06402600302469EA31248BF00
:10435000850882850983A3858212858313EE24064E
:10436000F50CE43FF50D8882898312473DF514E48E
:1043700039F5157814121B89010000280128A04383
:104380000700022865440328D343002994450129E6
:10439000BF450229604503299445042938469E46B5
:1043A000E50E450F6003024699850C82850D831248
:1043B00048BFE8FAE9FB8A828B83E0850A82850B95
:1043C00083124748121AFF8A828B83A3E0FCA3E082
:1043D000024622E50E450F6003024699850A828552
:1043E0000B837401F0124732850882850983F07CC3
:1043F000007D008E828F83A3A3A3A3E02401FAA3F0
:10440000E03400FB12076AEA4B60408A828B83E04B
:104410002402F8850A82850B83E028F0EA2404F858
:10442000E43BF988828983E08512828513831247F1
:1044300056124748121AFF8A828B83A3124725E53A
:10444000082403FAE43509FB024627850A82850B16
:1044500083E02404F07C047D007900AA12AB1312DF
:104460001304024700E50E450F6003024699124708
:1044700032FEA3E0FF850A82850B837404F0EE858B
:104480000882850983F0EF851282851383F0740317
:104490001218E2EEFAEFFB12076A8A0C8B0DEA455E
:1044A0000D70030245438A828B83A3A312315C748F
:1044B000011218D2880E890F780E121AFF74051295
:1044C00018C8121B167CFF7DFF12077074041218A7
:1044D000928B0FEA450F7033850C82850D8312474E
:1044E00029121AFF850C82850D83A3121B167C02EC
:1044F0007D007A087B8212056C7404121892E970B0
:104500000A74011218C874FFF0A3F08E828F83E042
:1045100064027039750C02750D00780C121AFF8E4A
:10452000828F83A3124725E5082404FAE43509FBAA
:104530001212EC7402121892850A82850B83E02411
:1045400002800974011218C8EEF0A3EFF074011292
:1045500018C812471774011218C812470E02469362
:10456000E50E450F6003024699850C82850D831286
:1045700049ADAA16AB17121202850A82850B837405
:1045800002F0850882850983EAF08512828513830B
:10459000EB024696E50E450F60030246991247323C
:1045A000F8A3E0F9850A82850B837402F0E8850898
:1045B00082850983F0E985128285138302469685F8
:1045C0000C82850D831237911212E6EAFAF8C39530
:1045D0000EE4950F405CE8650E450F70047A00808C
:1045E00021851882851983E0FCE50E2CFCE4350F4B
:1045F000FDC3EC98ED94005003E08005E50ECAC3BE
:104600009AFAEA850A82850B83F08A0A750B00788C
:104610000A121AFF850C82850D83E0250EFCA3E0AB
:10462000350FFDAA08AB091212EC7402121892029F
:104630004700751007024700E50E450F705B850CBB
:1046400082850D831248BF850A82850B837407F02B
:104650008882898312470F124707E08512828513EB
:1046600083F0E82402FAE439FB8A828B831247172D
:104670008A828B8312470EA3A3122CEE12471CF0E2
:10468000E82405F85001098882898312471CA31287
:104690004756A3A3A3A3F0806775100B8062741D17
:1046A0001218C812379112086C8A828B83E58245F2
:1046B00083604A1248BF880C890DE8450D603E743E
:1046C000251218C8E0F5107810121B03780E121A84
:1046D000FF780A121AFF7808121AFF74071218C816
:1046E000E0F9EEFCEFFDAA16AB17850C82850D8371
:1046F0001218EA7407121892E9F510800375100E6B
:10470000A9107405023A54F088828983A322A3E099
:104710008508828509832212475DF02212475DA336
:10472000A3229002EF1249B422E0F50E750F007833
:104730000E22850C82850D83123BF7E022E0FAA35E
:10474000E0F8E4C8F9EA2822F08A828B83E0F50ACF
:10475000750B00780A2212470712475D22E0850890
:1047600082850983A3A32274EE1218EC74FE12183A
:104770007C8A088B09ECFEEDFF890AAC18AD19EEB6
:10478000FAEFFB12076A8A0C8B0DEA450D700302E3
:10479000484F85188285198312379112086C8A82D6
:1047A0008B83E5824583700302484AA3A31248BF66
:1047B000880E890FE8450F700302484A74141218D6
:1047C000C8E0F510A3E0F511E50AF50B780B121B14
:1047D0000374191218C8121B167810121AFF741BD2
:1047E0001218C8E0F9AC0CAD0DAA08AB09850E8211
:1047F000850F831218EA7405121892E9F50B7052AE
:1048000074FE650A604C850C82850D83E06402703D
:104810004112485EFAA3E0F9EAF874026870037482
:104820002969702E85108285118312473DF50CE4AD
:1048300039F50D780C121AFFEEFCEFFDAA08AB0952
:104840001208F074021218928008750B0E8003751E
:104850000B01A90B74021218927F0A0219BEA3124F
:1048600048C388828983E02274F61218EC74FE1221
:10487000187C740C1218C81248BFE8851882851974
:1048800083F074011218C8E9F0E4F508F509780816
:10489000121AFF7508027808121AFF74041218D24F
:1048A000880889097808121AFF79FE1208D8740658
:1048B00012189274021218920242708E828F831222
:1048C00048C322E0F8A3E0F92274F71218ECEAFEDC
:1048D000EBFF8908900306124725121202EA5402E0
:1048E000600BA908EEFAEFFB12075E800279017FE8
:1048F000010219BE74F21218EC74FE12187CEAFE62
:10490000EBFF890A7401650A60147402650A60038A
:104910000249A37901120AFAE960030249A3EEFAF7
:10492000EFFB1208BAEA4B60031208C0A818A919D5
:10493000880889097808121AFF7508027509007835
:1049400008121AFF7508167509827808121AFF7C7A
:10495000FF7DFF7A017B00120764740612189280B3
:1049600038850882850983A3A3A3A3A3A31249AD15
:10497000EEFAEFFB1211EAE4F50CF50D780C121AC1
:10498000FF74021218C8121B167CFF7DFFAA08AB29
:104990000912077074041218928A088B09E50845F9
:1049A0000970BE74021218927F060219BE123BF7FC
:1049B0001249B422E0FCA3E0FD2274F41218EC8A40
:1049C000088B09ECFEEDFF9016B3E0F4604B7A091A
:1049D0007B00121310EA4B60408A828B8374B1F023
:1049E000A3E4124A1CF08A828B83A3A3E508F0A3F8
:1049F000E509124A1CA3EEF0A3EFF0740C1218C8DC
:104A00001248BF8A828B83A3A3A3A3A3A3A3123DAF
:104A1000E89016B3E0F912131C022D23F08A828B62
:104A200083A3A3A3A322C082C0839061907404F0E7
:104A3000A37448F0A37402F09061807440F0906118
:104A4000BC7403F09061877419F0906265741BF078
:104A5000906249E0C3941390619C40107409F090F7
:104A600060667401F090619F7428800D740BF09063
:104A70006066E4F090619F742CF0124C117009C2D2
:104A80009190037A7467800590037A7461F0124CF8
:104A900062902A08E493F46006E493F9120BF67925
:104AA00005120ECC024C70C082C083E9540FF990FD
:104AB0006185E0696012E5C654B84441F5C6E59EDB
:104AC0005447644170F8E9F053C6B8E59E54477006
:104AD000FA024C70C082C083A8A853A87E9061815E
:104AE000E41258F1C2BA539AFEC289759B00C2C241
:104AF00075E90075910075BF0075A91175B905902C
:104B00006181F0A374C0F0A3E4F0D2BA439A0174B7
:104B1000805842A8024C70F0A3F0024C70C082C0D2
:104B20008374F812187C900378125DF17003024CC4
:104B300009900378E0544060177908AA18AB19125D
:104B40000CF2AA18AB1912095C900378E054BFF07C
:104B5000E054806010790C7A417B05120CF29003CE
:104B600078E0547FF0E0A2E0501E124C117009C2B0
:104B70009190037A7467800590037A7461F012094A
:104B800062900378E054FEF0E05402601E124C552F
:104B90007009D29190037A7471800590037A746AD7
:104BA000F0120962900378E054FDF0E054046010C4
:104BB000902A0C124C65120968900378E054FBF0BF
:104BC000E054086010902A0D124C65120968900399
:104BD00078E054F7F0E05410600D124C621209684E
:104BE000900378E054EFF0E05420600A12096890D6
:104BF0000378E054DFF0A3E05401600D120C1412AE
:104C0000096E900379E054FEF07408121892024C79
:104C10007090619A124E6290051BE0640122C0827E
:104C2000C083E960051460178029124C117009C215
:104C30009190037A7467801A90037A7461801312DA
:104C40004C557009D29190037A7471800590037A63
:104C5000746AF0801B90619A124E5490051BE064B8
:104C60000122902A0EE493906186F022A2E092AF96
:104C7000D083D08202013274EA1218EC74F4121854
:104C80007C9081CDAC18AD19740412178F902A0C4A
:104C900093F46003024DE9907808E0C39402500356
:104CA000024DCD90812C74041218E2740812178FF3
:104CB000A818A9198814891574041218D2880889AB
:104CC00009AE08AF097510FF7511FF750EFF7C0066
:104CD000750C48750D78801274086C7003024D6372
:104CE00074096C607E740A6C6079850C82850D8312
:104CF00078081217408E828F83A909E50AC9F888BF
:104D00001274187808121681E5124508F8C3E09865
:104D1000A3E099850C82850D83780812174040180E
:104D20008E828F8374187808121681E5124508F870
:104D3000E0C398F8A3E0801A74187808121681E589
:104D4000124508FAE9FB8E828F83125AB8EAC3989B
:104D5000F8EB99F9C3E89510E99511500688108988
:104D6000118C0E0CE50C2404F50C5002050DECC35F
:104D700094135003024CD874FF6510700474FF65DF
:104D8000116024850E087402780812186974482589
:104D900008F58274783509F5837808121740851470
:104DA00082851583E508F0EE2402FE50010F85147C
:104DB00082851583A3858214858315740C1218C807
:104DC000E5826E7003E5836F6003024CC5750801D0
:104DD0007509007808121AFF74021218E27A837BB0
:104DE0000A1212507402121892740C1218927F0E4A
:104DF0000219BEC082C0839061AE7468F0A3746A69
:104E0000F090624574FBF0A304F053F4FD43FE02FE
:104E100090051B7401F09061A0E0643A90619A7073
:104E200019124E62740164017009C29190037A7480
:104E300067801E90037A74618017124E5474016467
:104E4000017009D29190037A7471800590037A748D
:104E50006A024B19743FF0A3745AF09061A0747FFA
:104E6000F0227433F0A37455F09061A0743AF022EC
:104E70007F040219BEC082C0839004CDE06401703B
:104E80000A9004D2E06004790C80027900024C7030
:104E9000C082C08375E1F19004D0E06051146009D4
:104EA00014605514604D147054120C269004BFE029
:104EB000F97AC07B04120E4E9081C912175E120E51
:104EC0008490817D12175E120E5A9004D1E0F9127F
:104ED0000E667901120EC0124FAF241AF582E43823
:104EE000F583743EF0A3740CF07900024C70120C40
:104EF0002C80B9120C3280B4120C3880AF79128039
:104F0000EA74F41218EC75D90D9004C6E0A2E0E43E
:104F1000331313F81250E7484401F5D97582C07570
:104F200083041250F17004E583640470F57582C740
:104F3000758304125230E58264CD7004E583640405
:104F400070F175E1959004C6E0F97AC77B04120E02
:104F5000549016D774CCF0A3740B125026125070D4
:104F60001250671251AA9004D0E064019004BD7001
:104F70000B124FB81217409081BD8009124FB81222
:104F800017409081B578081216CC9081717808127C
:104F9000171A124FAF12505E780812174F124FAF08
:104FA0001250557413F09003767402F0024E709014
:104FB00004BDE0F8A3E0C822125D6078082274F70F
:104FC0001218EC1250D7F5D97582C07583041250AF
:104FD000F17004E583640470F59004D6E0600A780B
:104FE000D77904FA1250CBDAFB1251781250F170D3
:104FF00004E583640470F59004F6E0600A78F779BC
:1050000004FA1250CBDAFB75E1959016D774D8F0FC
:10501000A3740B1250261250307412F09003767461
:1050200001F0FF0219BE12519374D2F0A3740B2247
:105030001250701250671251AE9004BDE0F8A3E018
:10504000C812505E74FF1258DF9004BDE0F8A3E070
:10505000C8125055222414F582E438F58322240E18
:10506000F582E438F58322F0A374EAF0A3740B22EE
:105070001250742212507822F0A37452F0A3740DCF
:105080002274F71218EC1250D74402F5D97582C079
:105090007583041250F17004E583640470F5900484
:1050A000D6E0600A78D77904FA1250CBDAFB75E1C2
:1050B000959016D71250F9F0A31250F9125033748C
:1050C00014F09003767404F002542C8882898312C1
:1050D0005234A882A983229004D61250DE22E02402
:1050E00007F5D91250E7229004BFE0C4333354C00F
:1050F00022125234E58264C62274E412510612511F
:1051000006F0A3740B22F0A3740BF0A374E42274D2
:10511000F71218EC1250D74406F5D97582C0758382
:10512000041250F17004E583640470F59004D6E035
:10513000600A78D77904FA1250CBDAFB1251781250
:1051400050F17004E583640470F59004F6E0600AA1
:1051500078F77904FA1250CBDAFB75E1959016D7FF
:1051600074DEF0A3740B1251891250307415F09054
:1051700003767403F002542C9004F61250DE4404BB
:10518000F5D97582C0758304221251937452F0A32D
:10519000740D22125197221251A47452F0A3740D6F
:1051A0001251A422125078F0A3221251AE22F09094
:1051B00016E57452F0A3740D1251977452F0A37453
:1051C0000D125074F022C082C083124FAF2406F536
:1051D00082E438F583E4024B1774F71218EC90035D
:1051E000A4125AAA74A628F8740339F9E82405FA17
:1051F000E439FB8A828B83125B6D88828983A3A347
:10520000A3A3A3A3A3A3A3ECF0A3ED125229A3A3EA
:10521000A3A3A3A3E024FFF8A3E034FFF98A828BC1
:1052200083E8F0A3E9F002542CF088828983A3225A
:1052300012523422E0F5D9A3229061D0E0F87480B4
:10524000C398FC12524C22F012524C22EA2483F5ED
:1052500082E43BF583E0221252622404F8E43583B1
:10526000F922F582E43FF583E58222125234E865A3
:10527000822274F71218ECEAFEEBFF9061D0E07026
:105280007875D90E75D90375D904EE248C1252FEA7
:1052900012526B7003E9658370F6EE248412525744
:1052A00012526B7003E9658370F675E1957908EE2B
:1052B000248CFAE43FFB120CE67904EE2484FAE431
:1052C0003FFB120CE67C00EE24ABF8E43FF9ECFA6D
:1052D000C3E49AFA95E0FBEE2AFAEF3BFBEA248B53
:1052E000125D7A88828983F00CA3A882A983ECC31B
:1052F000940840DA12540D8002790002542C1252A4
:10530000622408F8E43583F922C082C08375D9028B
:1053100075D90375D90575E195EA246FF582E43BEB
:10532000125AB6EA2471F582E43B12541A024C7008
:1053300074F61218ECEAFEEBFF9005217406125386
:105340008F121AFF7C017903120D46740212189213
:1053500075D90675D9037582217583051253877037
:1053600004E583640570F575E195900376E06408C3
:105370007010EE246FF582E43F125AB6EE247112DB
:105380005BEE7901025555125234E582642622F013
:1053900075082175090578082274F61218ECEAFEE2
:1053A000EBFF9061D0E070367801900521740BF02E
:1053B000900376E06407701975082175090578086F
:1053C000121AFF7C017903120D46740212189278AA
:1053D0000512565D125230DAFB12540A800279002F
:1053E00002555574F71218ECEAFEEBFF75D90375F8
:1053F000D90375D90DEE24DE125D54F5D975E1950A
:105400007904120E8A12540D802275E195EE246FF4
:10541000125DF7EE2471F582E43FF583E8F0A3E92D
:10542000F0790122F0EEA2E092AF79007F0102193B
:10543000BE74F61218EC125562600478048002788B
:1054400000E8240BF8EAC39840457C09900521EC5C
:105450001254A91254B8DDFB125D51601B7508216E
:105460007509057808121AFF7903EEFAEFFB120DA1
:105470004674021218927C0D12549412555A70FB05
:1054800075E1957904120E8A1255DD790180027951
:105490000002555512549A8C082274012CF5D975C6
:1054A000D90375822175830522F0EE24E3F8E43FE9
:1054B000F97A227B057D08221254BC2288828983D6
:1054C000E08A828B83125229A882A9838A828B83E5
:1054D000A3AA82AB832274F61218EC125562600400
:1054E000780480027800E82408F8EAC398406478D9
:1054F00006900521740CF0900393E0900522F09043
:105500000394E0900523F0900395E0900524F0903B
:105510000396E0900525F0900397E090052612553C
:10552000F1601B7508217509057808121AFF7C06C1
:105530007903EEFA120D467402121892780A125587
:10554000EB12555A70FB75E1957904120E8A1254CC
:105550000D800279007F020219BE1252341508E54F
:105560000822EAFEEBFF9061D0E0F87480C398FA5D
:105570001255F62274F61218EC1255626004780483
:1055800080027800E82404F8EAC398404B7802903F
:105590000521E8F0EE24F5125D549005221255F134
:1055A000601B7508217509057808121AFF7C0279BD
:1055B00003EEFA120D46740212189278061255EB99
:1055C00012555A70FB75E1951255DD7904120E8A59
:1055D000EE240D12541080027900025555EE241D60
:1055E000F582E43FF583E4F0A3F0221256638808C5
:1055F00022F01255F622EE2483F582E43FF583E093
:105600002274F61218EC1252396004780480027881
:1056100000E82404F8ECC398403E78029005217419
:1056200007F0EA24F6125D7A9005221252476019BB
:105630007508217509057808121AFF7C0279031292
:105640000D467402121892780612565D125230DA24
:10565000FB75E19579018002790002555512566378
:10566000E8FA22740128F5D975D90375822175836A
:10567000052274F71218ECE9FFA2AFE433FEC2AFC3
:105680007C0080010C1257095011ECF8EA28F8E46C
:105690003BF91256FFE06F70EB8016EA246EF8E4D7
:1056A0003BF9E0FCEA2CFAE43BFB12572CEF1257D3
:1056B000F0EEA2E092AF02542CC082C083A2AFE40D
:1056C00033FDC2AF125D7714F07C00801BECF8EA6A
:1056D00028F8E43BF9E8246BF582E439F583E0C06F
:1056E000E01256FFD0E0F00C12570940E0EA246DBA
:1056F000F582E43BF58374FF125736ED024C6CE8FB
:10570000246AF582E439F58322125D77F8ECC398B8
:1057100022C082C083A8A8C2AF12572CE912573604
:10572000E8A2E7E433FAE8A2E7024C6EEA246AF55D
:1057300082E43BF58322F0EA2469F582E43BF583B9
:10574000E4F02274F31218ECEAFEEBFFECFAEDFB46
:105750008A828B83A3A3A3A3E0541FF0EE2436F523
:1057600082E43FF583E4F0750A00EE245DFCE43F3B
:10577000FD8A828B83E08C828D83F0750B00E50AB5
:1057800033333354F8F50C8A828B83E0F5087509BE
:1057900000E50B780812184AE508A2E05027EE242D
:1057A00036F8E43FF988828983E0F508EE2508F5AC
:1057B00008E43FF509E5082438F582E43509F58366
:1057C000E50C1257F0050B050CE50BC3940840B728
:1057D000050A8A828B83A3AA82AB838C828D83A3E2
:1057E000AC82AD83E50AC3940540867F050219BEED
:1057F0001257F604F022F088828983E02274F712AF
:1058000018EC9003A2E0640170030258D79003A83B
:10581000E060030258D77401F0A3E4F0A3F0900411
:105820000804F090040DF09003AB1258DE9003B51D
:1058300004F09003DBE4F09003BE1258E5A3F0906F
:105840000425F0900419F0900428F090040E748060
:10585000F0A3E4F0900414F09004911258FC90042A
:105860009AF0900429F09004791258FCA3F0A3F068
:10587000900485F0900487F0900483F090049D12CA
:1058800058FC9004B0F09004AA1258E574FF9004FC
:10589000107804F0A3D8FC7A037B0478B179041261
:1058A00058F764B67003E9640470F47A897B04786D
:1058B0008A79031258F764927003E9640370F490D4
:1058C00003A2E004F0640170089003AAE09003A42E
:1058D000F07AA67B0380047A007B0002542CE41249
:1058E00058F1A3F0221258E9221258F1A31258F1EC
:1058F00022F0A3F0A3F0221254BCE8221258E9A32C
:10590000F0A3F022C082C0838A828B83A3A3A3E08A
:10591000600F8A828B83A3A3A3E4F09003A3E01417
:10592000F09003A2E014F070069003A474FFF08AD4
:10593000828B83A3A3E4F09004B6E0700D9003A3E0
:10594000E0640170057900120E6C024C70C082C0D8
:10595000839003A9E4F09003A8F09003A2F0A3F0D1
:10596000A374FFF075E1F1024C70C082C08378002F
:1059700079009003A9E0600478A67903888289837E
:10598000A3A3A3A3E0F9024C7074EE1218EC8A0AE8
:10599000890C9003A3E0F8E9C398502278FF79FFBF
:1059A0009003A9E06013900419E06401700590046D
:1059B0001F80039003D4125AB8E8FEE98011E96011
:1059C00009A3125AAA125A9B8005EA2AFEEB33FF5A
:1059D0008E0E8F0F7403780E12185A9003A3E0F8FE
:1059E000C3E50E98E50F94005003025A87E50A2597
:1059F000E0F50AEB33F50BEC2CF508ED33F509ACCB
:105A00000AAD0B8007EC2402FCE43DFDC3E5089CD5
:105A1000E5099D4060C3EC9EED9F403FECF8EDF939
:105A2000EEFAEFFB1217F18B0FEA450F60068E0EB0
:105A30008F0F8006750E00750F00ECF8EDF9EEFA89
:105A4000EFFB1217F18A108B11EC9510F8ED951100
:105A5000F9E8250EFCE9350FFD801AE0F8E50CC3E6
:105A6000985012EEF8EFF9ECFAEDFB1217F18B0FEC
:105A7000EA450F7090C3EC950AED950B4009C3E51C
:105A8000089CE5099D50067AFF7BFF8009ECFAED42
:105A9000C313FBEA13FA7F0A0219BE74D428F582F5
:105AA000740339F583E0FEA3E022E0F875F00BA45F
:105AB000C8AAF02AF922F583125DFD2274F61218A5
:105AC000EC74FC12187CEAFEEBFF803CEE2463F8D9
:105AD000E43FF97A007B00A2AFE433F508125B677C
:105AE000EC4D600F125DB6700A88828983A3A3E42F
:105AF000F0A3F0E508A2E092AF1213709004B7E0B3
:105B000004F09004B8E004F0EE2463F582E43FF57D
:105B100083125DF170B69004B8E060358E828F8399
:105B2000A3A3A3A3E0851882851983F0A3E4F090D2
:105B300004B8E0F874021218C8E8F0A3E4F07402A4
