:020000040000FA
:0600000002010702225577
:03002B0002269D0D
:0300330002267F23
:030053000222CBBB
:03006B0002265911
:100083000220ABE5C754F84401F5C779012200000B
:100093000080FB120086B900030200F1E4792178A5
:1000A30008B800028004F709D8FCE479297802B87B
:1000B30000028004F709D8FCE490028178B979132F
:1000C3008002F0A3D8FCD9FA7A397B1590013778EE
:1000D3003879048015E493A3AD82AE838A828B833F
:1000E300F0A3AA82AB838D828E83D8E9D9E7758288
:1000F300677583B074031201197582917583007457
:100103000012011975D00075813F751881751902A8
:10011300759F00020096C09FF59FE473D09F22D085
:1001230083D082C09FE493C0E0740193C0E0740263
:1001330093F59F22FF0000B4000028002800283018
:1001430075A000A000A000A00000080008E001F0D6
:10015300001000100010001000100010005000509C
:1001630000500010001000D0070000000000000F36
:100173000001000500307507001000010081FF0039
:10018300000000FFFFFF9006AE069606D206FF02B0
:10019300020208025000A0000000E80302D5820119
:1001A3000000BA8202D182010000941502CB8201C1
:1001B3000000BF0202D182010000951502C982012D
:1001C3000000D50202D182010000961502C582010A
:1001D3000000D70202D182010000971502C38208F2
:1001E3000000D80202D182010000981502C18201E9
:1001F30000009915FF0100FF2002D582010000F9DC
:100203008102D182010000FD1502BF8200000000BF
:100213000002CD82030000060317003E0D3E0D3E93
:100223000D3E0D3E0D3E0D3E0D3E0D3E0D3E0D3E73
:100233000D3E0D3E0DE40FF60FDE0F020202020229
:1002430002020202010D000000100102D58201002A
:1002530000B18202D182010000401602F782010040
:1002630000400702D182010000411602E982010029
:10027300005D8102D182010000421602E782010083
:10028300004F8102D182010000431602E582010082
:1002930000DF8002D182010000441602E3820100E4
:1002A30000CD8002D182010000451602DF820100E9
:1002B30000BB8002D182010000461602DD820100EC
:1002C30000A98002D182010000471602DB820100EF
:1002D30000418102D182010000481602D982010047
:1002E30000491601E8030577100AFFFFFF000130FC
:1002F300750302010600000000000000000000007A
:1003030000000000000000000000000000000000EA
:1003130000FFFF0600800CE8030B094552435F44CE
:100323006576696365051250002003020A00020125
:10033300060302F0FF53696D706C6520424C452043
:100343005065726970686572616C8214000088146C
:100353000A436861726163746572697374696320C7
:100363003100024368617261637465726973746911
:100373006320320008436861726163746572697354
:10038300746963203300104368617261637465723A
:100393006973746963203400024368617261637432
:1003A3006572697374696320350002D582010000A8
:1003B300B48202D182010000551702ED82030000CE
:1003C300221502CF82010000561702D182010000DC
:1003D300671702EF82010000231502CF820100009C
:1003E300681702D182010000791702F1820200002E
:1003F300241502CF820100007A1702D18201000086
:100403008B1702F382000000251502CD8203000042
:100413002F1502CF820100008C1702D18201000048
:100423009D1702F582040000311502CF82010000FE
:100433009E17104B65792050726573732053746156
:1004430074650002D582010000B78202D1820100E7
:1004530000371802C782000000361502CD82030060
:1004630000371502CF820100003818120122DF87FE
:1004730003120122F28703120122238803120122AD
:100483005D8803120122B68803120122FD8803123C
:100493000122458903120122748903120122A389CF
:1004A30003120122DA8903120122218A0312012293
:1004B3003A8A031201228F8A03120122A88A0312A5
:1004C3000122F68A03120122308B03120122ACA807
:1004D30002120122AFA902120122E8A9021201228B
:1004E3000BAA021201221DAA021201225BAA021206
:1004F3000122D7AA021201229FAB02120122C1AB31
:100503000212012258AC02120122AAAC02120122E9
:10051300DBAC02120122E8AC0212012252AD02123C
:100523000122A9AD02120122ACAD02120122E5ADF6
:1005330002120122E8AD02120122F2AD02120122DF
:1005430046AE0212012287AE02120122BAAE021295
:100553000122F7AE02120122F9AF021201229DB06D
:100563000212012206B10212012244B10212012237
:1005730043FA021201226BFA0212012298FA0212C2
:100583000122D0FA021201222EFB021201227AFB6F
:1005930002120122E1FB0212012221FC02120122BA
:1005A3005EFC021201228CFC0212012236FD0212B1
:1005B300012240FD021201224DFD0212012280FDA3
:1005C300021201228CFD02120122A4FD0212012259
:1005D300AEFD0212012239AD0312012247AD03120F
:1005E30001225FAD0312012276AD03120122B5A7EA
:1005F300011201225FA80112012272A90112012234
:10060300EEA9011201220CAB0112012248AB011227
:100613000122E3AB01120122C7AC0112012293AD07
:100623000112012221AF0112012292AF0112012214
:100633004CB0011201223EB1011201227EB101121E
:10064300012232B20112012264B2011201225AB410
:10065300011201229CB401120122BAB40112012237
:1006630020B501120122EFB501120122B3B6011226
:100673000122D2B80112012212C902120122FCC9BD
:1006830002120122A7CA02120122F8CA021201228F
:10069300A8CB0212012219CC02120122FECC0212B3
:1006A300012232CD021201222BCE0212012268CE88
:1006B3000212012244CF0212012283CF021201222D
:1006C3009FCF02120122BFA10312012243A20312F0
:1006D30001226EA20312012288A303120122F783CF
:1006E300031201220D84031201222B84031201221F
:1006F3003C850312012246850312012271860312EF
:100703000122688703120122D5870312012200D038
:100713000212012236D1021201226DD102120122EC
:10072300C4D102120122D9D302120122FF82011283
:1007330001228B8301120122EF8401120122FB8427
:1007430001120122368501120122A585011201221F
:10075300AE8601120122B787011201227E8801129F
:100763000122DB8901120122F98901120122168A71
:1007730001120122C38A01120122408B01120122BC
:10078300688B01120122328E01120122378E01126F
:1007930001225090011201229E90011201220E911A
:1007A300011201224C91011201222892011201220D
:1007B300E8920112012234930112012237930112AC
:1007C30001227B9301120122C3930112012202949D
:1007D30001120122249401120122589401120122D0
:1007E300BB9401120122CFDA02120122DDDA0212D6
:1007F300012230DB021201224FDB0212012294DBC1
:1008030002120122D8DC0212012273DD021201223C
:10081300B7DD02120122E1DD0212012250DE0212D3
:10082300012296DE021201220DDF02120122BEDF37
:1008330002120122C82600120122D8260012012228
:10084300792700120122D5270012012292280012D3
:100853000122AE2900120122E029001201220F2AEF
:1008630000120122BC2B00120122332E001201229E
:10087300A330001201229531001201228E320012A0
:100883000122953400120122893700120122B8385F
:1008930000120122BC3A00120122CC3B00120122B9
:1008A3005B3D001201224C3E001201229A3E0012CF
:1008B3000122093F001201222D3F001201227E3F37
:1008C300001201221F4400120122204500120122BE
:1008D300814500120122AC4500120122724600122A
:1008E300012209F60212012213F60212012258F61E
:1008F300021201226CF602120122FCF602120122FC
:1009030035F70212012270F70212012299F702123F
:100913000122EDF70212012202F80212012224F849
:100923000212012239F8021201224DF802120122A9
:1009330062F8021201229CF802120122C8F8021284
:10094300012211F90212012283F902120122C6F9CE
:1009530002120122F0F9021201221BFA02120122F1
:100963002BAA03120122108B02120122F38B021213
:1009730001226E8C02120122A98C02120122FA8D2D
:1009830002120122888E021201221A9102120122FE
:10099300CC9102120122D892021201224B9402122C
:1009A3000122A4940212012277ED02120122BAED70
:1009B300021201223EEE0212012215F1021201225D
:1009C3004E9B03120122009C03120122FC9C031282
:1009D30001223B9D03120122959D03120122B7A31D
:1009E300031201221AA403120122B7A40312012243
:1009F300ECA4031201221CA50312012257A5031222
:100A0300012277A503120122D0DF021201225CE04A
:100A1300021201221BE10212012233E2021201221D
:100A23004DE40212012272F10112012297F1011227
:100A3300012264F20112012238F301120122A5F30B
:100A430001120122E5F30112012281F401120122B4
:100A5300B5F50112012290F601120122EFF60112FF
:100A630001227BF701120122E9F70112012275F835
:100A730001120122BBF8011201222DF901120122F8
:100A8300BFF90112012260FA0112012280FA011258
:100A93000122C8FA0112012211FB011201222DFBCE
:100AA3000112012253FB01120122CDFB011201228B
:100AB300DBFB011201226AFC01120122D3FC0112A9
:100AC300012284E40212012209E5021201224BE50C
:100AD300021201222FE6021201229CE602120122D7
:100AE300E0E60212012224E70212012251E7021278
:100AF300012279E702120122B1E702120122EFE794
:100B03000212012216E80212012290E802120122C7
:100B1300DAE802120122036F00120122A27000120E
:100B23000122DA72001201222E730012012259737C
:100B33000012012235740012012265740012012291
:100B4300947400120122A77400120122E8740012A7
:100B530001221575001201226375001201229F758F
:100B630000120122E47500120122317600120122E3
:100B7300AB7600120122EC7800120122D67A001221
:100B83000122127B00120122A17C00120122E67CC9
:100B930000120122597D00120122AE7D00120122B2
:100BA300B37D001201223D7E001201225C7F001200
:100BB30001226D7F001201220D9F02120122869FE6
:100BC3000212012240A5021201224BA602120122A7
:100BD300F4A70212012282A802120122DE460012A9
:100BE30001225F47001201228C4700120122D547E0
:100BF30000120122D648001201222F4900120122BD
:100C0300AB4A001201222D4B00120122484B001265
:100C13000122B94B00120122764C00120122394DF8
:100C230000120122C74D001201227E4E0012012242
:100C3300914E001201222A4F00120122C14F0012CD
:100C43000122E84F001201225150001201229B5051
:100C530000120122E950001201228E5100120122DA
:100C63002C5200120122B952001201222A530012FF
:100C73000122715300120122C95300120122FB53B6
:100C830000120122B55400120122BC5500120122A8
:100C9300055600120122225600120122415600126B
:100CA30001227457001201222B58001201225058BE
:100CB30000120122655800120122D55800120122A8
:100CC3001659001201223A5A00120122BB5A00128D
:100CD30001224D9502120122989502120122A49538
:100CE300021201227896021201228F960212012229
:100CF300CC9602120122FD960212012235970212AE
:100D030001228B9702120122A19702120122DD9781
:100D130002120122F09702120122179802120122F5
:100D23004B9802120122719902120122BB9A0212FC
:100D33000122B79B02120122D49C02120122BD267A
:100D430000120122DFB8011201221AB90112012295
:100D53006CBC01120122C8BD0112012287BE01121F
:100D63000122EEC101120122D8C20112012224C3C1
:100D7300011201223EC3011201227BC3011201228F
:100D830086C301120122C5C301120122CEC301127F
:100D9300012278C4011201224FC501120122A3C509
:100DA3000112012200C60112012272C601120122A0
:100DB300939501120122F29801120122F89801126F
:100DC300012229A00112012230A4011201227A95E5
:100DD300031201225796031201229B96031201224A
:100DE300D596031201226D9703120122DC97031299
:100DF3000122E59703120122F197031201220B98B6
:100E0300031201223598031201226598031201226D
:100E1300C7F102120122D4F102120122EEF10212F1
:100E2300012221F2021201225FF202120122C4F214
:100E330002120122D9F202120122E4F20212012269
:100E4300F1F20212012208F30212012216F3021236
:100E5300012221F3021201222DF3021201223CF39B
:100E63000212012247F3021201226AF30212012243
:100E73000EF4021201221EF40212012238F40212AD
:100E8300012255F40212012270F40212012295F498
:100E930002120122A0F402120122B5F4021201226D
:100EA300C9F4021201222AF50212012230F50212BC
:100EB300012236F5021201223CF50212012254F5F9
:100EC3000212012287F502120122EFE3011201222D
:100ED30086E4011201221EE5011201220EE601122F
:100EE300012245E60112012258E601120122C6E65B
:100EF3000112012261E80112012288E80112012294
:100F03002AE9011201225FE90112012270E90112AB
:100F13000122E9E9011201220AEA0112012222EA6D
:100F2300011201227AEB0112012283ED0112012247
:100F3300D3EF01120122D6F00112012225F1011291
:100F43000122C1C701120122BEC801120122A9C98F
:100F530001120122B3C901120122D5C901120122D2
:100F6300E1C90112012233CB0112012262CB01122A
:100F7300012292CC01120122D4CC0112012200CE13
:100F830001120122D6CE0112012228CF0112012221
:100F930087CF01120122BECF01120122F9CF011224
:100FA300012294D301120122ADD3011201222FD4C5
:100FB300011201223DD40112012292D40112012215
:100FC300A0D4011201220DD5011201227FD50112F5
:100FD3000122C5D5011201220080021201222280C2
:100FE300021201220C8202120122B1850212012295
:100FF300F48602120122CE87021201223CFE021263
:10100300012261FE02120122D2FE021201226AB102
:101013000212012273B1021201227CB102120122D7
:10102300ADB202120122CCB40212012202B50212A5
:1010330001223CB50212012272B502120122ACB5A3
:1010430002120122E0B5021201220CB602120122A1
:1010530055B6021201228FB602120122D7B602122E
:1010630001222DB70212012262B702120122BDB77B
:1010730002120122F7B70212012248B8021201221A
:101083007EB802120122B8B802120122E6B8021297
:10109300012209B902120122BAAE03120122E6AEFD
:1010A3000312012241AF031201224BAF03120122AB
:1010B3005BAF0312012293B1031201229EB103120B
:1010C3000122F6FC011201221DFD0112012248FD3D
:1010D30001120122C09D03120122E19D031201228C
:1010E300989E03120122A59F03120122B89F0312A7
:1010F3000122BAB003120122F15A00120122485D03
:1011030000120122F85E00120122555F0012012233
:10111300526000120122CF600012012257610012B7
:1011230001227C6100120122576400120122CB6468
:1011330000120122BA6500120122F0650012012299
:10114300336600120122AA6700120122EC67001223
:1011530001223568001201229E6800120122C06834
:1011630000120122DA6800120122F869001201223A
:10117300086A001201228B6B00120122AB6B001272
:101183000122E16B00120122676D00120122A46D9E
:1011930000120122DE6E001201221AE9021201225C
:1011A3006AE902120122A4EA0212012213EB0212DB
:1011B3000122B7EB02120122D6EB0212012224EC28
:1011C3000212012266EC0212012206AE0312012270
:1011D30017AE0312012204B10312012243B1031219
:1011E300012255B20312012265AF0312012275AF2A
:1011F300031201228AAF03120122F0AF031201226C
:101203003FAB03120122C2AB0312012228AC03122B
:101213000122AEA803120122D7A80312012244A976
:101223000312012297A903120122F0A9031201223A
:101233001E8F03120122338F0312012231900312F6
:101243000122C990031201223D91031201225791F9
:10125300031201226E91031201227C9103120122D7
:10126300949103120122A99103120122CE91031238
:1012730001221F9203120122EF7F0012012227A7EE
:10128300031201224AA70312012273A703120122A8
:101293000DA80312012223A80312012265A8031239
:1012A300012297B902120122A1B902120122E1B966
:1012B300021201222ABA0212012262BA0212012286
:1012C300B8BA02120122D5BA0212012254BD021287
:1012D30001225DBD02120122A2BD02120122CBBD79
:1012E30002120122E0BD0212012250BE02120122AB
:1012F300DDBE0212012231BF0212012254BF0212CB
:101303000122D3BF021201220EC00212012243C0E6
:101313000212012255C00212012274C002120122DC
:101323007DC0021201222FC10212012285A50312E0
:101333000122D6A5031201225FA603120122C9A628
:1013430003120122939803120122BB980312012274
:10135300B09903120122D59903120122649A031250
:1013630001225492031201224A93031201225B9336
:10137300031201225A9503120122C39F0312012271
:10138300F99F031201222CA00312012285A103124B
:101393000122F3AF0312012209B00312012213B099
:1013A30003120122907F001201225BC1021201226B
:1013B30015C20212012250C20212012281C202127C
:1013C3000122E1C2021201222BC30212012280C3B5
:1013D300021201220BC40212012204C502120122CD
:1013E3007AC6021201220AC70212012270C7021230
:1013F300012283C70212012268C802120122B2C865
:10140300021201220080031201221680031201221C
:10141300BA8003120122F9800312012216810312FA
:101423000122478103120122948103120122C78101
:10143300031201220282031201224ED6011201225B
:10144300D6D90112012265DB01120122BCDB011294
:101453000122DBDB0112012259DC01120122DFDD53
:1014630001120122B2DE011201226CE201120122F9
:1014730054E301120122A0D502120122CCD7021299
:101483000122DAD8021201226EDA02120122988BAB
:1014930003120122FB8B03120122188C0312012277
:1014A300E78C03120122498D03120122148E0312C9
:1014B300012246AC03120122A8AC031201224DB152
:1014C30003120122CBFF01120122D7B10312012221
:1014D3000EB20312012237B203E066701008A3E0D4
:1014E30066700A08A3E066700408A3E06622C3E7F7
:1014F300960809E7960809E7960809E79622C3E0E4
:101503009608A3E09608A3E09608A3E09622C008F5
:10151300C3E096F50808A3E096420808A3E09642C4
:101523000808A3E09645087001D3D00822080808EC
:10153300EAC0E0EBC0E086F0E7A4FA180986F0E71A
:10154300A42AFA180986F0E7A42AFA180986F0E70C
:10155300A42AFA1986F0E7A4FBE5F02AFA1908860B
:10156300F0E7A42BFBE5F03AFA190886F0E7A42B81
:10157300FBE5F03AFA18180986F0E7A4C5F02BFB4F
:10158300E43AFA1908E7C5F0C6A426F6E5F03BFBF2
:10159300E43AFA1886F0E7A4F6E5F00826F6E43B09
:1015A30008F6E43A08F6D0E0FBD0E0FA22E4CFC034
:1015B300E0E4CEC0E0E4CDC0E0E4CCC0E075F020D0
:1015C300E626F608E633F608E633F608E633F618B9
:1015D3001818EC33FCED33FDEE33FEEF33FFC3ECB1
:1015E3009709ED9709EE9709EF97191919400FFF1E
:1015F300EC97FC09ED97FD09EE97FE191906D5F056
:10160300BFECF709EDF709EEF709EFF7191919D050
:10161300E0FCD0E0FDD0E0FED0E0FF226016080839
:1016230008C6C313C618C613C618C613C618C613EE
:10163300C6D5E0EA227009080808226016181818AF
:10164300C6C333C608C633C608C633C608C633C6C0
:10165300D5E0EA22E627F60809E637F60809E63771
:10166300F60809E637F622E026F608A3E036F60880
:10167300A3E036F608A3E036F622E026F008A3E05E
:1016830036F008A3E036F008A3E036F022C3E6976D
:10169300F60809E697F60809E697F60809E697F6C5
:1016A30022C3E096F008A3E096F008A3E096F008C2
:1016B300A3E096F022E056F608A3E056F608A3E06E
:1016C30056F608A3E056F622E056F008A3E056F0DB
:1016D30008A3E056F008A3E056F022E0F608A3E0E2
:1016E300F608A3E0F608A3E0F622E6F008A3E6F086
:1016F30008A3E6F008A3E6F022E0FAA3E0FBA3E0E8
:10170300FCA3E0FD22E0F8A3E0F9A3E0FAA3E0FBE9
:1017130022E8F0A3E9F0A3EAF0A3EBF022CAC0E0C9
:10172300E6F0A308DAFAD0E0FA22CAC0E0E0A3C5E3
:1017330082CCC582C583CDC583F0A3C582CCC582C7
:10174300C583CDC583DAE6D0E0CA22C3E498F8E4C2
:1017530099F912178F8026C3E49AFAE49BFBE920D8
:10176300E7E912178FE498F8E499F922C3E498F8AB
:10177300E499F912178FE498F8E499F9C3E49AFA13
:10178300E49BFB22EB20E7CFE920E7E0B90010BBA5
:101793000008E88AF084F8AAF022E4FBC8FA22EBF6
:1017A30070227B10C833C8C933C9335007C39AC3E7
:1017B300DBF280069A50012ADBEAC833F4C8C93346
:1017C300F4C9FA2275F008E4C833C8C933C933C968
:1017D3009AC99B5004C92AC93BD5F0ECFBC833F422
:1017E300C8E4C9FA22600D08C6A2E713C618C613D7
:1017F300C6D5E0F322600C08C6C313C618C613C6C9
:10180300D5E0F422700422600D18C6C333C608C69F
:1018130033C6D5E0F41822251810AF08F518400C8C
:1018230015198008F51840021519D2AF2200C0D04F
:10183300251810AF08F518500C05198008F5185035
:10184300020519D2AFD0D0222518F58210AF08F5C2
:1018530018400C15198008F51840021519D2AF85E8
:101863001983222518F582E43519F583222518F802
:10187300E43519F9222518FAE43519FB222518FC59
:10188300E43519FD22E4732518C582C0E0E5193457
:10189300FFC583C0E0E518C3958224F810AF08851F
:1018A30083198582188008858319858218D2AFCE63
:1018B300F0A3E520F0A37808E608F0A3DEFAEFF042
:1018C300A3E58124FAF8E608F0A3E608F0A3E60806
:1018D300F0A30808E608F0A3E608F0A31581158134
:1018E300D0E0FED0E0F8158115811581E8C0E0EE67
:1018F300C0E0222518C582C0E0E51934FFC583C0C6
:10190300E0E518C3958224F910AF08858319858211
:10191300188008858319858218D2AFCEF0A3E520FD
:10192300F0A37808E608F0A3DEFAEFF0A3E581243C
:10193300FBF8E608F0A3E608F0A30808E608F0A31E
:10194300E608F0A315811581D0E0FED0E0F81581FB
:101953001581E8C0E0EEC0E022851983851882E096
:10196300A3FEE0A3F5207808E0A3F608DFFAE0A3DE
:10197300FFE0A3C0E0E0A3C0E0E0A3C0E0E0A3C0B9
:10198300E0E0A3C0E010AF088582188583198008C2
:10199300858218858319D2AFD083D08202011F8537
:1019A3001983851882E0A3FEE0A3F5207808E0A35D
:1019B300F608DFFAE0A3FFE0A3C0E0E0A3C0E0E0A5
:1019C300A3C0E0E0A3C0E010AF08858218858319A7
:1019D3008008858218858319D2AFD083D08222C034
:1019E300D02518C582C0E0E51934FFC583C0E0E502
:1019F30018C3958224F310AF088583198582188054
:101A030008858319858218D2AFC8F0A3E9F0A3EA49
:101A1300F0A3EBF0A37908E709F0A3D8FAECF0A35D
:101A2300EDF0A3EEF0A3EFF0A3D0E0F0A3D0E0F04D
:101A3300A3D0E0F0A3E520F0A3E5F0F0A3228519FD
:101A430083851882E0C0E0A3E0F9A3E0FAA3E0FBFA
:101A5300A37808E0F608A3DFFAE0FCA3E0FDA3E027
:101A6300FEA3E0FFA3E0C0E0A3E0C0E0A3E0F5D065
:101A7300A3E0F520A3E0A3F5F010AF088583198553
:101A830082188008858319858218D2AFD082D083CB
:101A9300D0E0F8D0E032740480067402800274014E
:101AA300C0E0F40412184BD0E01217202274048013
:101AB3000474028000CCC0E0EDC0E0E518C39CCC08
:101AC300AD1950011D10AF068C188D1980068C18A6
:101AD3008D19D2AF12172DD0E0FDD0E0FC22D083B8
:101AE300D082E9C0E0E493A3C386F0C5F095F0F992
:101AF30008E493A386F0C5F095F0700BE493A3C3B9
:101B0300994005E9048002A3E475F002A42582F557
:101B130082E5F03583F583D0E0F9E493A3C0E0E4F4
:101B230093C0E022D083D082ECC0E0EDC0E0E49328
:101B3300A3FCE493A3FDED4C600D121B73EC24FF97
:101B4300FCED34FFFD80EFE493A3FCE493A3FDEDF0
:101B53004C600D121BB2EC24FFFCED34FFFD80EF53
:101B6300D0E0FDD0E0FCE493A3C0E0E493C0E02226
:101B7300C0E0C3E49396087401939618400FE4936E
:101B830066700808740193661870007019A3A3C3E4
:101B9300E49396087401939618A3A3400DD0E0D064
:101BA300E0D0E0021B63A3A3A3A3A3A3D0E022C0BE
:101BB300E0C0F088F0E49366700808740193661837
:101BC3007000A8F0A3A3700BD0F0D0E0D0E0D0E079
:0A1BD300021B63A3A3D0F0D0E022B0
:101BE00074F61218F6EAFEEBFF8C088D09EE243429
:101BF000F8E43FF9E8FCE9FDEE2435121EF3FAEEB5
:101C00002437121EF3F88508F0A4C885F00A850968
:101C1000F0A4250AF9EA28F8E439F97A257B0012BC
:101C2000178FEA8C828D83F0FA131313541FF8EE8A
:101C300028F8E43FF9E8245DF582E439F583E0C053
:101C4000E074075AF8D0E0B800028004C313D8FC4F
:101C5000A2E0EE50082434F582E43F8018243612C6
:101C60001EF3F5F0EA84A8F0EE28F8E43FF9E82442
:101C700038F582E439F583E0F97F030219A274F79D
:101C80001218F6EAFEEBFFEE2434121EF3C0E0EE6B
:101C90002435F582E43FF583D0E0F08E828F83A374
:101CA000A3A3A3A3A3A3C082C0838E828F83A3A375
:101CB000A3A3A3E0F8A3E0F9D083D082E0C398F512
:101CC00008A3E099F509EE247F121EF36401703E2B
:101CD000EE2480F582E43FF583C082C0838E828F3C
:101CE00083A3A3A3A3A3E0240108A3E03400F9D0B5
:101CF00083D082E0687003A3E06970127CB17D0438
:101D0000120C7EEE247FF582E43FF583E4F0AC080C
:101D1000AD09EEFAEFFB121BE0E9F912264B7F0248
:101D20000219A2C082C083851882851983E0F8A3B6
:101D3000E0F9C3EA9CEB9D5010C3EC98ED99401B71
:101D4000C3EA98EB995014800EC3EA98EB994007C8
:101D5000C3EC98ED994004790180027900D083D0DA
:101D60008222EAC39CFAEB9DFB2274EF1218F690D4
:101D70000376E064086005E06407702A9061C8E0BB
:101D800060249003A4E0F4601DE0F875F00BA4C893
:101D9000AAF02AF974A628FE740339FF8E828F8375
:101DA000A3A3A3E07003021E78906060E0C0E0EEA1
:101DB0002468F582E43FF583D0E0F0750C21750DC1
:101DC00005750800750900E5D914F50AE5D954032D
:101DD000F50E60127403650E6043E50A600AEE2496
:101DE00067121EF37002807590051CE06401601F8D
:101DF000121EF060047A0480027A00E50AC39AFA9F
:101E000095E0FB120B288A088B09EA450970051238
:101E10000EAC8064121EF070048A0C8B0DE50A6013
:101E200012850C82850D83F50BE5D9F0A3150BE522
:101E30000B70F6121EF0604474FC250AF50A780C4B
:101E4000121A9DAC0AA90EEEFAEFFB120D387402BD
:101E5000121830E97026AA08AB09121332793D8EA8
:101E6000828F83A3A3A3A3E0FA7B0012098AEEFA70
:101E7000EFFB120CA2120D4A7900806F7403650EFD
:101E80006051850A107511007810121A9DAC0CADC6
:101E90000DAA08AB09120CFC7402121830EE24686B
:101EA000121EF364807004747F8001E0F50C780CDE
:101EB000121AA1E50EF50C780C121AA1A90AAC08A9
:101EC000AD099003A4E0FA7B0012096074021218B5
:101ED000308013900376E06408600BAC0CAD0DEE1F
:101EE000FAEFFB120DC2120EB879017F0A0219A295
:101EF000EE2483F582E43FF583E02274F21218F6B3
:101F000074FC12181AEAFEEBFF8909A2AFE433F55C
:101F100008C2AF021FC5E0601B780C121A9DAC0B03
:101F2000A90EEEFAEFFB120D32740212183074048F
:101F3000250BF50B7401250BF5D9850ED9E50B6042
:101F400018F50A850C82850D83E0F5D9A385820CEE
:101F500085830D150AE50A70EA75E195EE2463F8AC
:101F6000E43FF97A007B00A2AFE433F50BC2AF88FF
:101F7000828983E0FCA3E0FDEC4D603A888289838E
:101F8000E0FAA3E0FB8A828B83E0FCA3E0FD888279
:101F90008983ECF0A3EDF08A828B83E4F0A3F088D0
:101FA000828983E0FCA3E0FDEC4D700A888289837E
:101FB000A3A3E4F0A3F0E50BA2E092AF12133290DA
:101FC00004B8E004F0EE2463121EF3F8A3E0F9E88D
:101FD000496064EE2463121EF32402F8A3E0340087
:101FE000F988828983E5822402F50CE43583F50DB6
:101FF000E0F50BA3E0F50EEE2462121EF36401700F
:10200000369061D0E0F8121EF060047C0480027CFF
:10201000007480C398FA95E0FBE50B2CF8E43400DB
:10202000F9E82402F8500109C3EA98EB99A2D265B5
:10203000D0334003021F169004B8E0604D9004B9FD
:10204000E0F89004B8E0C398500C74026509703A47
:102050009004BAE060348E828F83A3A3A3A3E085AB
:10206000188285198312209A7402121866E81220C9
:102070009A9004B7E028F07402121880AA18AB19DD
:1020800079011209B49004B8E4F0E508A2E092AF37
:1020900074041218307F070219A2F0A3E4F0900430
:1020A000B8E0F8228521878522C622C0E074EB12B1
:1020B00019E2A2AFE433F508C2AF759B00906182CC
:1020C000E0A2E05030E591A2E0502A7591FE740143
:1020D0006521702112223E120E0412222C121AB017
:1020E0001223F57404121830E964017005790112A5
:1020F0000E40121D6A906182E0A2E5505DE591A25A
:10210000E550577591DF900376E064076005E06461
:1021100008702F12223E74016521703E120E0412C7
:10212000222C121AB01223F57404121830E964013B
:1021300070057901120E407901EEFAEFFB121EFBD9
:102140008018E0640D7013900398E004F064287028
:1021500002E4F07A00E0F9120EBE906182E0A2E69D
:102160004003022201E591A2E6400302220175919B
:10217000BF900376E064057008120DEC120DF88034
:1021800003120DF2752100120E4CE9900377F079DD
:1021900000120E40120BEE7A017B00900375E0F9FD
:1021A000121302907803E064427056900520E01408
:1021B000F0704EC2AF1221B800782AD0E0F618D0E5
:1021C000E0F6E59F5407F87005750DFF8003750D67
:1021D0007FC4C0E07829E6F50A08E6550DF50B74D2
:1021E0000B780A1217F8D0E0250AF8906270E0A286
:1021F000E740F8E8C333906272F0906270E0D2E09A
:10220000F0906181E0A2E35009E5E9A2E350037593
:10221000E9F7A3E0A2E75009E591A2E75003759121
:102220007FE508A2E092AF7F08021A418E828F8379
:10223000E0F8A3E0C82416F582E438F58322900381
:10224000A4E0F875F00BA4C8AAF02AF974A628FE39
:10225000740339FF22C0E0C0D0C082C08390618384
:10226000E0A2E05009E5BFA2E0500375BFFEE0A286
:10227000E15009E5BFA2E1500375BFFDE0A2E250C5
:1022800009E5BFA2E2500375BFFBE0A2E35009E5F8
:10229000BFA2E3500375BFF7E0A2E45009E5BFA277
:1022A000E4500375BFEFE0A2E55009E5BFA2E55099
:1022B0000375BFDFE0A2E65009E5BFA2E650037553
:1022C000BFBFD083D082D0D0D0E032C0E074F21251
:1022D00019E2E5A7A2E6500FE5A1A2E6500953A72F
:1022E000BF75A1BF12231FE5A7A2E5500CE5A1A26F
:1022F000E5500653A7DF75A1DFE5A7A2E15009E588
:10230000A1A2E1500375A1FDE5A7A2E2500CE5A151
:10231000A2E2500653A7FB75A1FB7F01021A41748C
:10232000F71218F6752101900376E0640670151215
:102330000D6E8A828B83A3A3A3A3A3A3E0FAA3E0D9
:10234000FB120DDAA2AFE433FED2AF90037CE0645F
:102350000170187A207B00900375E0F91214287A36
:10236000207B00900375E0F9121308906182E0D29F
:10237000E6F090051DE0602185C622801690037B63
:10238000E064017008E5C654F84405F5C653BEFC88
:102390001220A47401652160E4EEA2E092AF7F02F6
:1023A0000219A2008E238F24858228858327851811
:1023B00082851983E0CEA3E0CF852882852783EB31
:1023C000C9EAC8EDCBECCA75F010C3E833C8E933ED
:1023D000C9EA33CAEB33CBC3EA9EF526EB9FF5255A
:1023E000B35004AB25AA26EC33CCED33CDD5F0DACF
:1023F000AE23AF242274F11218F68A088B098C0AD6
:102400008D0B90823D78081216B8740F12186678FA
:102410000C1216DE90823D780C1216B87808790CF2
:102420001214F190825550107808790C1216907899
:10243000081215114014800E780C79081216907845
:102440000C12151150047901800279007F080219DD
:10245000A274ED1218F68A088B098C0A8D0B9082F3
:102460003D78081216B87413121866780C1216DE2E
:1024700090823D780C1216B8780C79081214F1404D
:10248000117808790C121690AA08AB09AC0AAD0BAA
:1024900080227510007511007512007513017810F7
:1024A000790C12169078107908121657AA10AB11F1
:1024B000AC12AD137F0C0219A290823D780812165F
:1024C000DE8A828B8378081216CB7F040219A274ED
:1024D000F51218F68C828D8378081216DE8A828BAC
:1024E0008378081216A4122527C3E09CF0A3E09D70
:1024F000122519402290828978081216DE8A828B72
:1025000083780812167D8A828B83A3A3A3A3E02479
:1025100020F0A3E0344EF080A0F088828983C3E0ED
:102520009420A3E0944E22EA2404F8E43BF98C8240
:102530008D83A3A3A3A3E0FCA3E0FD88828983226B
:1025400074F51218F6E9FE9004D3E0FAA3E0FBEE6E
:1025500029F8E433F9740228F582748139F583E0AF
:102560002AF508A3E03BF5097808121A9D908269C4
:102570001216FC1223A474021218308A088B098CDC
:102580000A8D0B7410780812161FAA08AB097F0475
:102590000219A274F11218F68A0C8B0D8C0E8D0F95
:1025A0007411121866121AB47411121866E024011C
:1025B000F508A3E03400F509E4F50AF50B780C7989
:1025C0000812153090823178081216DE780C7908DE
:1025D000121530AA0CAB0DAC0EAD0F1223A4740271
:1025E0001218308B09EA450960047A0180027A00EA
:1025F000EC2AFCE43DFD7413121866E0F8A3E0F940
:10260000E8FEE9FFECF8EDF97A717B0212178F888A
:10261000088909E4F50AF50B8E828F837808121673
:10262000EDECF8EDF97A717B0212178F8A088B09AD
:10263000740578081218078E828F83A3A3A3A3E5DD
:1026400008F0A3E509F07F080219A2C082C083E95F
:10265000906000F0D083D08222C0E074F21219E2C0
:10266000A2AFE433FED2AFE589A2E1500312122AF1
:10267000758900C2C5EEA2E092AF7F01021A41C087
:10268000E074F21219E2A2AFE433FED2AFE58BA2FE
:10269000E0500312122A758B00C2E880D8C0E0C057
:1026A000D0E8C0E0A8A8D2AFC2C7E8A2E792AFD0F6
:1026B000E0F8D0D0D0E032C2AF0200002202011F09
:1026C000FFFFFFFFFFFFFFFFC082C083E99015FC03
:1026D000F0D083D08202011F74F612188AE99002AA
:1026E000E8F0900348E0F5087509007402780812D4
:1026F0001807AA08AB091213869002E912308B90D2
:1027000002E9123478606F900348E075F003A4FA90
:10271000ABF012138690030612308B90030612342E
:1027200078700B9002E912344912138C80489003A0
:10273000061243DD7AFF7BFF12119A7A0080198A14
:102740000875090074027808121807123E8574FF94
:1027500012288BE4F0A3F00A900348E0F8EAC3984B
:1027600040DD790512084C9002E8E0F91207387A4A
:10277000D67B08120AC8023F2874F412188A8A0805
:102780008B09EB548060479002E8E0F91212EA8A64
:102790000A8B0BAE0AAF0BEE4F602A8E828F83E05E
:1027A00064B0701A12085EE960148E828F83A3A34E
:1027B000A3A3E0F9EE2405FAE43FFB12082EEEFA9B
:1027C000EFFB1212D8AA08E5096480FB80047A00A6
:1027D0007B000229DB74F212188A74FB12181AEAC1
:1027E000FEEBFFEE4F60457403121866EEF0A3EFA8
:1027F000F0851882851983ECF0A3EDF074021218AD
:1028000066E9F0AA18AB19120732E9F50870757479
:1028100013121866E0F50AA3E0F50BE50A450B6014
:10282000638E828F83122E14EE4F7005750802801E
:10283000537A067B001213868A0C8B0DA80CA90D07
:10284000E8497005750813803B88828983E4122863
:102850008BEEF0A3EF1229A7E50AF0A3E50BF090A9
:1028600002EC1229A09002EC6017E0FCA3E08003C8
:10287000EAFCEBFD8C828D831229A070F38C828D93
:1028800083123AA0A908740502465DF0A31243BF63
:10289000A32274F212188A8908890C750D0074033A
:1028A000780C121807850C0A850D0B9002EBF0903E
:1028B00002E91238AB12299E602E12138C79008027
:1028C0001D890C750D007402780C1218079002E92E
:1028D000123D448882F583A3A3E4F0A3F00990039A
:1028E00048E0F8E9C39840D9900348E0FA850AF037
:1028F000A4CAA8F0850BF0A428FB1213868A0C8BBF
:102900000DAE0CAF0DEE4F7003022994900348E01A
:10291000FC850AF0A4CCA8F0850BF0A428FD790072
:102920001212C07C0080318D0C750D007403780C80
:102930001218078A828B8312299988828983E4F08E
:102940001229A6A3A3F0A3F00DEDC3950840D8EE7D
:10295000250AFEEF350BFF0C900348E0F8ECC39816
:1029600050288C0C750D007402780C121807900218
:10297000E9122999E82402500109FAE9FB8A828BBD
:1029800083EEF0A3EFF07D0080BFE5089002EBF04E
:10299000790080027913024660123D48F922A3A310
:1029A00012344DEA4B22A31243BFA3A3A32274F413
:1029B00012188A7900EAA2E0501F7508267509826C
:1029C0007808121A9D79107C047D007AFE7B15121E
:1029D00008467402121830E9F980007F0402195C7D
:1029E000C082C0839002EC123478601C8882898394
:1029F000A3A3E06A7003A3E06B8882898370E8A3D5
:102A0000A3A3A312344980047A007B000226D17468
:102A1000F212188A74FD12181AEAFEEBFF8518826A
:102A2000851983E4F0A3F074021218667401F012A1
:102A300034757014120A021213869002EF12308B52
:102A40001234757003022BA112318BEE2404F50AA7
:102A5000E43FF50B850A82F583E024FE603C24FC0C
:102A6000607424FE607E24FE7003022AF124FE704E
:102A700003022AFE24FE7003022B0B24FE700302C5
:102A80002B1824FE7003022B2524FC7003022B4616
:102A900024FE7003022B5E022B9A120A029002F1AE
:102AA000EAF0A3EB122BAD12047AE96003022B9A31
:102AB0009002F1121AB48E828F83A3A3A3A3A31250
:102AC00043DD850882850983123449120816740291
:102AD000121830022B9AAC18AD19EEFAEFFB12085F
:102AE00064022B69AC18AD19EEFAEFFB12086A808C
:102AF00078AC18AD19EEFAEFFB120870806BAC18C9
:102B0000AD19EEFAEFFB120876805EAC18AD19EE47
:102B1000FAEFFB12087C8051AC18AD19EEFAEFFB0E
:102B200012088280447402121870880C890D780C87
:102B3000121A9D7402121880EEFAEFFB12088874C4
:102B4000021218308023AC18AD19EEFAEFFB120810
:102B50008EE9F870167402121866E4F0803CAC1826
:102B6000AD19EEFAEFFB120894E9F8E8602C8E82BA
:102B70008F83A3E064146022850A82850B83E09032
:102B800002F1F08518828519831234499002F212FD
:102B9000308BE8A3122BAD120474EEFAEFFB120790
:102BA000EC7402121866E0F9740302465DF07CF1E1
:102BB0007D0285088285098312344D2274E812183B
:102BC0008A74FA12181A7404121866ECF0A3EDF065
:102BD0008A128B13EA2405F50EE43513F50FEA2467
:102BE00002F510E43513F511851082F5831234498E
:102BF00012056A8A0A8B0B7508007C037D00790038
:102C00007AF17B021212C0E50E2402F516E4350FAC
:102C1000F5177402121870880C890D780C121A9D21
:102C2000850E82850F83A3A3A3A3E0F50C750D0089
:102C3000780C121A9DE50E2405F50CE4350FF50D00
:102C4000780C121A9D851682851783123750120749
:102C50005074061218308A0C8B0DE50C450D70036C
:102C6000022DDD8020851882851983E08882898382
:102C7000F00508851882851983A3E0C0E0122E1E96
:102C8000D0E0F00508E50A24FBFAE50B34FFFBC3AE
:102C9000E5089AE49B4003022DDD7E007F0085124B
:102CA00082851383A3A3A3A3E0F5097809121AA1CF
:102CB000E4F514F5157814121A9D7514EE751502C5
:102CC0007814121A9D9002EF121AB4740912186641
:102CD000121AB4E50A24F9F9AC0CAD0D8510828501
:102CE00011831234491208BE7409121830E96003C6
:102CF000022D7E850E82850F83A3A3A3A3A3A3A386
:102D0000E0F89002EEE0687075E0F5148E15781426
:102D1000121A9D1243DA850E82850F83A3A3A3A303
:102D2000A3A3A3A31234491212BA7402121830E9F1
:102D3000604C9002F2123478703BE4F5147814126F
:102D40001A9D7CFF7DFF79078510828511831234DF
:102D500049120828740212183012347E7017850E3A
:102D600082850F831245777404121866123E38125A
:102D70003781022E11850C82850D83122E14A8181E
:102D8000A919881489157814121A9D7404121866EA
:102D9000121AB485168285178312308112075C746B
:102DA000041218308A0C8B0DEE4F7003022C5A124D
:102DB0002E1EEE122E29123737EF122E29F8A3E01D
:102DC0003400F9E50C450D6003022C658882898387
:102DD00074FFF00508122E1E74FFF00508E5086068
:102DE0001A1313543F123091120486E960099002BD
:102DF000F212344912133279008016850E82850F43
:102E0000831245777404121866123E38123AA0797C
:102E10000A02370AA3A3A3A3E0FEA3E0FF22A808A7
:102E20009002F2E02812373722F00508089002F2EB
:102E3000E0282274E812188A74FA12181A7402121E
:102E4000186612308B7404121866ECF0A3EDF0745F
:102E500002121866E02405123720E0F50CA3E0F515
:102E60000D7402121866E02402F510A3E03400F598
:102E700011851082F58312344912056A75080075B0
:102E80000900EA24FCFEEB34FFFF8008050CE50C8A
:102E90007002050DA808C3EE98EF940050030230AD
:102EA0003DA818A919880E890F780E121A9D85144D
:102EB00082851583A3A3A3A31243E1121A9DE514EF
:102EC0002405F50EE43515F50F780E121A9D8514BC
:102ED0008285158312307F12075074061218308ACB
:102EE0000E8B0FEA450F700302303DEA2404F516FD
:102EF000E4350FF517851682F583E0F50CA3E0F5B0
:102F00000D8518828519831243DD8A828B83A3A3E2
:102F1000A3E0F985108285118312344912073EE936
:102F2000F509600302303D7402121866123747F546
:102F3000097809121AA1E4F512F5137812121A9DF4
:102F40007512EE7513027812121A9D9002EF121A82
:102F5000B47407121866121AB4EEF9AC0EAD0F85F0
:102F600010828511831234491208BE740912183078
:102F7000E9F509600302303DE508703FE4F50EF520
:102F80000F780E121A9D7CFF7DFF790985108285CE
:102F90001183123449120828740212183012376D46
:102FA000700D740412186612307479110230719029
:102FB00002EEE024029002F2F080149002F2E0FAB5
:102FC0009002EEE0790024025001096A497072A86B
:102FD000089002EEE0FAE82AFAE43400FBEE9AEFF9
:102FE0009B405A851682851783E0C0E09002F31259
:102FF0002E23D0E0F00508851682851783A3E0C054
:10300000E0089002F3122E23D0E0F005089002EEC3
:103010001243E1121A9D1243DAA808123714121251
:10302000A874021218309002EEE02508F50874FF2B
:10303000650C700474FF650D6003022E8CE508605A
:103040001F9002F2E0F5F0E5088412309112048C32
:10305000E960099002F312344912133279008011A9
:10306000E509700375090A7404121866123074A910
:103070000902370A1238AFE50CF0A3E50DF022A3E0
:10308000A312466CAA0CAB0D22A3A3EAF0A3EBF0AB
:10309000229002F1F07CF17D02851082851183126D
:1030A000344D2274EC12188A74FC12181A123BB0B8
:1030B00074021218801234431207568A0C8B0DEAE0
:1030C000450D700302317B12318BA818A9198810A5
:1030D00089117810121A9D7CFF7DFF790B8508827B
:1030E00085098312344912082874021218301232EA
:1030F00081700C850A82850B8312377E0231888E9F
:10310000828F83A3A3A3A3E0F5127812121AA1E47D
:10311000F512F5137812121A9D7512F175130278D3
:1031200012121A9D7810121A9D7409121866121A3A
:10313000B47409121866E0F9AC0CAD0D85088285EF
:1031400009831234491208BE7409121830E9FE705E
:10315000157CF17D028508828509831234491204A9
:1031600092E97009802074166E70027E009002F25F
:10317000123449121332EE7004800B7E01850A82EC
:10318000850B83123A9DEEF9023AB2EE2402F5085D
:10319000E43FF5092274EC12188A74FC12181AEA3A
:1031A000FEEBFF8C0E8D0FEE2405F508E43FF509CC
:1031B0007402121880850882850983123449120727
:1031C000568A0C8B0DEA450D7003023271EE240213
:1031D000F50AE43FF50BA818A91988108911781091
:1031E000121A9D7CFF7DFF790D123443120828745A
:1031F00002121830123281700B8508828509831201
:10320000377E807A8E828F83A3A3A3A3E0F5127802
:1032100012121AA1850882850983A3A3121AB47514
:1032200012F17513027812121A9D7810121A9D74F9
:1032300009121866121AB47409121866E0F91234E9
:103240003F1208BE7409121830E9FE700F7CF17D40
:1032500002123443120498E97009802074166E70CB
:10326000027E009002F2123449121332EE70048092
:103270000B7E01850882850983123A9DEEF9023A98
:10328000B2123488F510A3E0F511EA45112274E872
:1032900012188A74FE12181A8A168B178C148D1540
:1032A000EA2405F50CE43517F50DEA2402F50EE4E1
:1032B0003517F50F850E82F58312344912056A8A97
:1032C000088B09750B007C037D0079007AF17B0285
:1032D0001212C0750A00E50814F5100424FFF50861
:1032E000E50934FFF50980549002F1E0FA9002EE0E
:1032F000E0F8EA28F8E43400F9E50898E50999507F
:103300000D9002F1E0F8E510C3989002EEF0E0F5C0
:10331000127513007812121A9D1243DA9002F2E02D
:103320002AFAA3E03400FB1212A87402121830909B
:1033300002EEE0F89002F1E028F0050A850C8285A3
:103340000D83A3A3123D5440030234249002F1E004
:10335000C39508E495094003023424AE0AEE2EFE1C
:10336000E433FF123463AC18AD191243F5E439FBB2
:103370001207568A128B13AC12AD13EC4D701B75ED
:103380000B01123453123AA19002F21229A06003E9
:10339000121332A90B740202370C8516828517832B
:1033A000A3A3A3A3E0F50B780B121AA1E4F512F581
:1033B000137812121A9D7512EE7513027812121AF2
:1033C0009D9002EF121AB47407121866121AB4A96B
:1033D00010850E82850F831234491208BE740912BB
:1033E0001830E9F50B709B9002F2123478600302FA
:1033F00032E8E4F512F5137812121A9D7CFF7DFF76
:10340000790F850E82850F831234491208287402C1
:1034100012183012347E60030232E812345312372D
:10342000820233957CF17D02850E82850F831234F2
:103430004912049EE960030233887900023395AC97
:103440000CAD0D850A82850B8312344D22E0FAA360
:10345000E0FB22123463E0FAA3E0F9EA85148285E6
:10346000158322850C82850D83E02EF8A3E03FF9B9
:1034700088828983229002EF12457BE84922123428
:1034800088F8A3E0F9E849229002F2EAF0A3EBF011
:103490009002F2E02274E812188A74FA12181A7470
:1034A0000412186612308B8C168D1774041218666D
:1034B000E02405F50EA3E03400F50F74041218663D
:1034C000E0240212372012344912056A8A0A8B0B53
:1034D0007F007E00A818A919880889097808121A9F
:1034E0009D850E82850F83A3A3A3A3E0F5088E0913
:1034F0007808121A9DE50E2405F508E4350FF50944
:103500007808121A9D850E82850F83A3A312375067
:1035100012075074061218308A0C8B0D802912374E
:1035200041F00F123741F00F9002EE123A8C121A4E
:103530009D1243DAEFF81237141212A8740212180F
:10354000309002EEE02FFFE50C450D70030235D000
:10355000851882851983123BC2A3A3A3E0F98514C1
:103560008285158312344912073EE9FEE50C2404D6
:10357000F510E4350DF511EE705074041218661252
:103580003747F5087808121AA1E4F508F509780814
:10359000121A9D7508EE7509027808121A9D90029C
:1035A000EF121AB47407121866121AB4E50A24FA54
:1035B000F9AC0CAD0D8514828515831234491208BF
:1035C000BE7409121830E9FE603912375D123AA054
:1035D000EF70030236F79002F2E0F5F0EF8490020C
:1035E000F1F07CF17D028514828515831234491235
:1035F00004A4E960099002F31234491213327900ED
:1036000002370A8F08EF703BE4F512F513781212B7
:103610001A9D7CFF7DFF79118514828515831234F4
:1036200049120828740212183012376D70091237C7
:103630005D12378102370A9002EEE024049002F214
:10364000F080359002EEE0F89002F2E0FAE824040F
:10365000FCE43400FDEC6A4D60030235D6E50A2433
:10366000FAFAE50B34FFFBE50828F8E43400F9EA40
:1036700098EB9950030235D6851082851183E0C0FE
:10368000E09002F3E02FF8A3E034008882F583D0C5
:10369000E0F00F851082851183A3E0C0E012372E81
:1036A000D0E0F00F740212187088088909780812A7
:1036B0001A9D7402121866121AB4850E82850F8341
:1036C00012307F12075C74041218308A0C8B0DEADA
:1036D000450D700302351E7402121866E0C0E01238
:1036E000372ED0E0F00F7402121866A3E0C0E0128B
:1036F000372ED0E0023526EE70027E0A850E8285D6
:103700000F83123763123AA0EEF974061218307F55
:103710001002195C9002F3E028FAA3E03400FB22C7
:10372000F514A3E03400F515851482F583221237D1
:1037300032229002F3E02FFAA3E034008A82F5836C
:103740002212373274FF221238AFA3A3A3A3E022C0
:1037500012466C850E82850F8312344D22851082AD
:1037600085118312457B851682851783229002F38B
:10377000EAF0A3EBF09002F312457BE84922123AFB
:10378000A6E8F0A3E9F079112274EA12188A74FE0F
:1037900012181A8A088B098C128D13EA2405FEE48C
:1037A0003509FFAC18AD198E828F83123449120788
:1037B000568A0C8B0DEE2406F50EE43FF50FEA4514
:1037C0000D7003023881E5082402F50AE43509F595
:1037D0000B8A828B83A3A3A3E0A2E55028851882DD
:1037E0008519831234491208B28A108B11EA4511E7
:1037F0006020791212343F85108285118312188857
:10380000E9F50C707F850E82850F83E0600979529F
:103810008011750C0E806D850882850983A3A3A392
:10382000A3E0F9E4F508F5097808121A9D8E828F55
:1038300083A3A3E0F5087808121A9D8E828F83A3D4
:10384000A3A3121AB48E828F831243DD1234431263
:1038500008C47406121830E9F50C7011850E8285C3
:103860000F83E0702D1234431204AA80257416656C
:103870000C7011750C0074181218661238ABE480C5
:1038800010750C01124573851282851383E8F0A32D
:10389000E9F0850E82850F83E0600479008002A93B
:1038A0000C74021218307F0E02195C1238AF22E03D
:1038B000F8A3E0F58388822274EC12188A74F71258
:1038C000181A8A0A8B0B8C108D11EA2405FEE43538
:1038D0000BFF750C00AC18AD198E828F8312344922
:1038E0001207568A088B09EA45097003023A77E500
:1038F0000A2402F50A5002050B8A828B83A3A3A334
:10390000E0A2E5502F8518828519831234491208E8
:10391000B28A0C8B0DEA450D604F7912AC08AD09E7
:10392000123443850C82850D83121888E9F50C60EA
:1039300003023A7A850A82850B83E0F508A3E0F555
:1039400009AA08FB1208A6EA4B70197AFF7BFF123E
:1039500008A6EA4B7003023A6D8A828B83E508F071
:10396000A3E509F07508008008750C0E023A7A0587
:10397000089002EBE0F8E508C3984003023A6D8531
:10398000080E750F007403780E1218078A828B8355
:10399000A3A3E0250EF8A3E0350F123E4170D08EB0
:1039A000828F83123A9512308B8E828F83A3A3125B
:1039B0003A95123089EE2404F508E43FF5098508AC
:1039C00082F583E088828983A3A3A3A3F0A3E4F014
:1039D000EE2405F50EE43FF50F850E82F583123ACD
:1039E00095A3A3A3A312308975120775130078124B
:1039F000121A9DEEFCEFFD74041218781212A874CE
:103A000002121830E4F5127812121A9D8508828588
:103A10000983E0FC7D0079171234431208287402F0
:103A2000121830740712186612308B740712186659
:103A3000E0FA4B603D850882850983123A8C121AA0
:103A40009D850E82850F831243DD1212A874021227
:103A5000183074021218801234431204B0E9602640
:103A600074071218661234491213328019750C0942
:103A70008008750C118003750C0112457385108246
:103A8000851183123AA0A90C74098028E0F5087505
:103A9000090078082212344D8882898322123AA6BE
:103AA000E8F0A3E9F022E0F8A3E0F9850E82850FA3
:103AB000832274041218307F0C02195C74EC121803
:103AC0008A123BB0751000EE2402F50CE43FF50DB0
:103AD000850C82F5831234491208A68A088B09EAFC
:103AE00045097003023B94850A82850B83E06401DB
:103AF0006003023B89AC08AD09AA0AAB0B12089A15
:103B0000E9606E850882850983122E16EE2406F57B
:103B10000AE43FF50B8E828F83A3A3121AB48E8220
:103B20008F83A3A3A3A3121AB4850A82850B8312E1
:103B30001AB479188E828F83123BC212344912084C
:103B4000C47406121830E9F8741668700B850A827E
:103B5000850B83E4F0A38014E860128E828F8312B9
:103B60003449850E82850F83EAF0A3EBF08810803C
:103B700018780E121A9DAC08AD09EEFAEFFB120888
:103B8000A07402121830E9F510AA08AB091208ACAB
:103B9000E510700E850C82850D831234491204B62F
:103BA0008009741665107003751000A910023AB7E9
:103BB000EAFEEBFF8C0E8D0FEE2405F50AE43FF5CF
:103BC0000B2212466C850C82850D832274EA121832
:103BD0008A7508007509007E007F00750A00EC24D4
:103BE00002F510E43DF5118035EC65087003ED65D4
:103BF000096003023C8188828983A3A3E06A700381
:103C0000A3E06B707C88828983A3A3A3A31245776A
:103C1000EE28FEEF39FFEA28FAEB39FB050A123DE0
:103C200051503A850A0C750D007403780C12180770
:103C3000851082851183123D44123E41601FE508C4
:103C4000450970A58C088D0988828983122E1488F5
:103C5000828983A3A3E02EFAA3E03F80BEE50AC3D6
:103C600094025003023D3F750800750900EE4F6055
:103C700010EEFAEFFB12132C8A0E8B0FEA450F7031
:103C8000057900023D41750B00023D14850B0C7552
:103C90000D007403780C121807851082851183E0DB
:103CA000250CF50CA3E0350DF50DE50C2406F514F7
:103CB000E4350DF515851482F583123E466042E524
:103CC0000C2404F512E4350DF513851282F58312E8
:103CD0001AB4E50E2508FAE50F3509FB1212A8748F
:103CE00002121830851282851383E02508F508A397
:103CF000E03509F5098514828515831234491213BC
:103D000032E50B600D7C087D007900AA0CAB0D122A
:103D100012C0050BE50BC3950A5003023C8C8510BD
:103D20008285118312457788828983A3A3A3A3A3E5
:103D3000A3E50EF0A3E50F1229A7EEF0A3EFF079AB
:103D4000010238A6123D4822E0250CF8A3E0350D0B
:103D5000229002EBE0F8E50AC3982274F012188A68
:103D60008A0E8B0F8C0A8D0B750D00750C00805020
:103D70007916EE2406F508E43FF5098E828F83A3B9
:103D8000A3121AB48E828F83A3A3A3A3121AB4859D
:103D90000882850983121AB4850E82850F83A3A336
:103DA0001234491208C47406121830E9F50D74165D
:103DB000650D706C850882850983E4F0A3F0050C1D
:103DC0009002EBE0F8E50CC3985066AA0C8A0875DF
:103DD000090074037808121807850A82850B83A3EB
:103DE000A3123E90E8FEE9FF8E828F83123E46606A
:103DF00040EA2401F508E43400F5099002EBE0659F
:103E0000087002E509601488828983A3A3A3A3A391
:103E1000A3A3A31234786003023D707918023D72A7
:103E2000E9609B1245737410121866123E38123AFC
:103E3000A0A90D7F0802195CE0FAA3E0F5838A824D
:103E400022F98882898312466CEC4D2274F612188E
:103E50008A7C0080010C900348E0F8ECC398501E67
:103E60008C0875090074027808121807123E85E064
:103E70006A7003A3E06B70DDE8FAE9FB80047A0066
:103E80007B00023F289002E9123E908882898322BB
:103E9000E02508F8A3E03509F92274F212188A8A9D
:103EA000088B09750A0080278E828F83A3A3A3A3A2
:103EB00012299E60031213327C087D007900EEFA0D
:103EC000EFFB1212C08E828F83E4F0A3F0050A127A
:103ED0003D515027850A0C750D007403780C12189B
:103EE00007850882850983A3A3E0250CFEA3E0359E
:103EF0000DFF8E828F8312347870AD85088285091C
:103F00008374FFF0A3F002466074F612188A120858
:103F1000588A828B83E582458370067A007B008015
:103F200007A3A3A3A31234497F0202195C74F412FD
:103F3000188A89088C828D83E06402703C124516D1
:103F4000FEA3E0F9EEF87402687003742969702921
:103F5000750A02750B00780A121A9D741012186601
:103F6000121AB47410121866121AB4A9081211ACFD
:103F70007406121830E9F9800279010229DB74E82D
:103F800012188A74FB12181AE9851882851983F0B1
:103F90008A168B17ECFEEDFF7510008E828F83A3BF
:103FA000A3A3E0A2E4502D741D1218661234491226
:103FB00008B28A828B83E582458370030243B57918
:103FC0000AEEFCEFFDAA16AB17121888E9F510608F
:103FD000030243B8741F121866E0F508A3E0F50960
:103FE0007421121866E0F50AA3E0F50B7423121889
:103FF00066E0F50EA3E0F50F8E828F83E064026029
:1040000003024356A3124577850882850983A38559
:104010008212858313EE2406F50CE43FF50D8882A9
:1040200089831243F5F514E439F5157814121B272A
:104030000100002801285840070002281D410328DC
:104040008B4000294C42012977420229184203295A
:104050004C420429F0425643E50E450F60030243EB
:1040600051850C82850D83124577E8FAE9FB8A8237
:104070008B83E0850A82850B83124400121A9D8A85
:10408000828B83A3E0FCA3E00242DAE50E450F60D9
:1040900003024351850A82850B837401F01243EABF
:1040A000850882850983F07C007D008E828F83A342
:1040B000A3A3A3E02401FAA3E03400FB120756EA0D
:1040C0004B60408A828B83E02402F8850A82850B4C
:1040D00083E028F0EA2404F8E43BF988828983E04D
:1040E00085128285138312440E124400121A9D8A8F
:1040F000828B83A31243DDE5082403FAE43509FB30
:104100000242DF850A82850B83E02404F07C047D73
:10411000007900AA12AB131212C00243B8E50E4593
:104120000F60030243511243EAFEA3E0FF850A82B7
:10413000850B837404F0EE850882850983F0EF8592
:104140001282851383F07403121880EEFAEFFB12CB
:1041500007568A0C8B0DEA450D70030241FB8A82DB
:104160008B83A3A3122E147401121870880E890F6A
:10417000780E121A9D7405121866121AB47CFF7D0F
:10418000FF12075C74041218308B0FEA450F70336E
:10419000850C82850D831243E1121A9D850C828560
:1041A0000D83A3121AB47C027D007AD37B821205A0
:1041B000587404121830E9700A740112186674FFFA
:1041C000F0A3F08E828F83E064027039750C027563
:1041D0000D00780C121A9D8E828F83A31243DDE5A9
:1041E000082404FAE43509FB1212A87402121830EC
:1041F000850A82850B83E024028009740112186607
:10420000EEF0A3EFF074011218661243CF7401129E
:1042100018661243C602434BE50E450F6003024386
:1042200051850C82850D83124665AA16AB171211B3
:10423000B2850A82850B837402F085088285098322
:10424000EAF0851282851383EB02434EE50E450F9B
:1042500060030243511243EAF8A3E0F9850A82851C
:104260000B837402F0E8850882850983F0E98512E2
:104270008285138302434E850C82850D8312344957
:104280001212A2EAFAF8C3950EE4950F405CE865B5
:104290000E450F70047A008021851882851983E00D
:1042A000FCE50E2CFCE4350FFDC3EC98ED940050BA
:1042B00003E08005E50ECAC39AFAEA850A82850BF7
:1042C00083F08A0A750B00780A121A9D850C828584
:1042D0000D83E0250EFCA3E0350FFDAA08AB091203
:1042E00012A874021218300243B87510070243B8BE
:1042F000E50E450F705B850C82850D831245778531
:104300000A82850B837407F0888289831243C7125F
:1043100043BFE0851282851383F0E82402FAE43972
:10432000FB8A828B831243CF8A828B831243C6A37C
:10433000A31229A61243D4F0E82405F850010988F5
:104340008289831243D4A312440EA3A3A3A3F080B3
:104350006775100B8062741D1218661234491208BA
:10436000588A828B83E5824583604A124577880CA0
:10437000890DE8450D603E7425121866E0F5107849
:1043800010121AA1780E121A9D780A121A9D780836
:10439000121A9D7407121866E0F9EEFCEFFDAA16DA
:1043A000AB17850C82850D8312188874071218309C
:1043B000E9F510800375100EA910740502370CF092
:1043C00088828983A322A3E085088285098322123B
:1043D0004415F022124415A3A3229002EF12466C5A
:1043E00022E0F50E750F00780E22850C82850D8374
:1043F0001238AFE022E0FAA3E0F8E4C8F9EA282294
:10440000F08A828B83E0F50A750B00780A2212434A
:10441000BF12441522E0850882850983A3A3227474
:10442000EE12188A74FE12181A8A088B09ECFEED37
:10443000FF890AAC18AD19EEFAEFFB1207568A0C89
:104440008B0DEA450D700302450785188285198397
:104450001234491208588A828B83E582458370039F
:10446000024502A3A3124577880E890FE8450F7015
:10447000030245027414121866E0F510A3E0F5116A
:10448000E50AF50B780B121AA17419121866121AA4
:10449000B47810121A9D741B121866E0F9AC0CADBA
:1044A0000DAA08AB09850E82850F83121888740542
:1044B000121830E9F50B705274FE650A604C850CD9
:1044C00082850D83E064027041124516FAA3E0F97B
:1044D000EAF87402687003742969702E8510828569
:1044E00011831243F5F50CE439F50D780C121A9D81
:1044F000EEFCEFFDAA08AB091208DC7402121830BA
:104500008008750B0E8003750B01A90B740212183D
:10451000307F0A02195CA312457B88828983E022DE
:1045200074F612188A74FE12181A740C1218661295
:104530004577E8851882851983F07401121866E9B9
:10454000F0E4F508F5097808121A9D750802780854
:10455000121A9D7404121870880889097808121AB2
:104560009D79FE1208C474061218307402121830B5
:10457000023F288E828F8312457B22E0F8A3E0F968
:104580002274F712188AEAFEEBFF890890030612DC
:1045900043DD1211B2EA5402600BA908EEFAEFFBF8
:1045A00012074A800279017F0102195C74F2121825
:1045B0008A74FE12181AEAFEEBFF890A7401650A72
:1045C00060147402650A600302465B7901120AE610
:1045D000E9600302465BEEFAEFFB1208A6EA4B60C5
:1045E000031208ACA818A919880889097808121AB2
:1045F0009D7508027509007808121A9D7508CD7519
:1046000009827808121A9D7CFF7DFF7A017B0012D7
:10461000075074061218308038850882850983A3F4
:10462000A3A3A3A3A3124665EEFAEFFB12119AE42B
:10463000F50CF50D780C121A9D7402121866121AF8
:10464000B47CFF7DFFAA08AB0912075C7404121842
:10465000308A088B09E508450970BE7402121830CB
:104660007F0602195C1238AF12466C22E0FCA3E010
:10467000FD2274F412188A8A088B09ECFEEDFF9073
:1046800015FCE0F4604B7A097B001212D2EA4B6011
:10469000408A828B8374B1F0A3E41246D4F08A82FC
:1046A0008B83A3A3E508F0A3E5091246D4A3EEF09B
:1046B000A3EFF0740C1218661245778A828B83A3DD
:1046C000A3A3A3A3A3A3123AA09015FCE0F912128E
:1046D000DE0229DBF08A828B83A3A3A3A322C082FC
:1046E000C0839061907404F0A37448F0A37402F046
:1046F0009061807440F09061BC7403F090618774A5
:1047000019F0906265741BF0906249E0C3941390B5
:10471000619C40107409F09060667401F090619F94
:104720007428800D740BF0906066E4F090619F74C3
:104730002CF01248C97009C29190037A7467800501
:1047400090037A7461F012491A9026C0E493F460E1
:1047500006E493F9120BE27905120EA0024928C073
:1047600082C083E9540FF9906185E0696012E5C663
:1047700054B84441F5C6E59E5447644170F8E9F0E9
:1047800053C6B8E59E544770FA024928C082C083D8
:10479000A8A853A87E906181E41255A9C2BA539A81
:1047A000FEC289759B00C2C275E90075910075BF94
:1047B0000075A91175B905906181F0A374C0F0A3CB
:1047C000E4F0D2BA439A0174805842A8024928F012
:1047D000A3F0024928C082C08374F812181A90030B
:1047E00078125AA970030248C1900378E0544060DF
:1047F000177908AA18AB19120CDEAA18AB191209FE
:1048000048900378E054BFF0E054806010790C7A4F
:10481000417B05120CDE900378E0547FF0E0A2E0CB
:10482000501E1248C97009C29190037A74678005BE
:1048300090037A7461F012094E900378E054FEF010
:10484000E05402601E12490D7009D29190037A74EF
:1048500071800590037A746AF012094E900378E033
:1048600054FDF0E0540460109026C412491D120952
:1048700054900378E054FBF0E0540860109026C593
:1048800012491D120954900378E054F7F0E05410D7
:10489000600D12491A120954900378E054EFF0E0C9
:1048A0005420600A120954900378E054DFF0A3E02A
:1048B0005401600D120C0012095A900379E054FE65
:1048C000F0740812183002492890619A124B1A901D
:1048D000051BE0640122C082C083E96005146017F3
:1048E00080291248C97009C29190037A7467801AAE
:1048F00090037A7461801312490D7009D29190036C
:104900007A7471800590037A746AF0801B90619AC2
:10491000124B0C90051BE06401229026C6E4939094
:104920006186F022A2E092AFD083D08202011F7490
:10493000EA12188A74F412181A908281AC18AD1910
:10494000740412172D9026C493F46003024AA190B8
:104950007808E0C394025003024A859081E1740410
:10496000121880740812172DA818A919881489150F
:10497000740412187088088909AE08AF097510FF11
:104980007511FF750EFF7C00750C48750D7880124F
:1049900074086C7003024A1B74096C607E740A6CA4
:1049A0006079850C82850D8378081216DE8E828FE1
:1049B00083A909E50AC9F888127418780812161F25
:1049C000E5124508F8C3E098A3E099850C82850DAF
:1049D0008378081216DE40188E828F837418780848
:1049E00012161FE5124508F8E0C398F8A3E0801AF4
:1049F0007418780812161FE5124508FAE9FB8E8232
:104A00008F83125770EAC398F8EB99F9C3E89510B1
:104A1000E995115006881089118C0E0CE50C2404C0
:104A2000F50C5002050DECC3941350030249907429
:104A3000FF6510700474FF65116024850E08740210
:104A4000780812180774482508F58274783509F536
:104A50008378081216DE851482851583E508F0EE4A
:104A60002402FE50010F851482851583A3858214CC
:104A7000858315740C121866E5826E7003E5836FEA
:104A8000600302497D7508017509007808121A9DB6
:104A900074021218807AB17B09121206740212187D
:104AA00030740C1218307F0E02195CC082C08390E3
:104AB00061AE7468F0A3746AF090624574FBF0A371
:104AC00004F053F4FD43FE0290051B7401F0906165
:104AD000A0E0643A90619A7019124B1A7401640153
:104AE0007009C29190037A7467801E90037A746192
:104AF0008017124B0C740164017009D29190037AF3
:104B00007471800590037A746A0247D1743FF0A3F0
:104B1000745AF09061A0747FF0227433F0A374553E
:104B2000F09061A0743AF0227F0402195CC082C048
:104B3000839004CDE06401700A9004D2E0600479AF
:104B40000C80027900024928C082C08375E1F1908F
:104B500004D0E0605114600914605514604D147065
:104B600054120C129004BFE0F97AC07B04120E229A
:104B70009082451216FC120E589082411216FC12B9
:104B80000E2E9004D1E0F9120E3A7901120E941211
:104B90004C67241AF582E438F583742AF0A3740C68
:104BA000F07900024928120C1880B9120C1E80B44A
:104BB000120C2480AF791280EA74F412188A75D925
:104BC0000D9004C6E0A2E0E4331313F8124D9F48A1
:104BD0004401F5D97582C0758304124DA97004E5AE
:104BE00083640470F57582C7758304124EE8E5820C
:104BF00064CD7004E583640470F175E1959004C69A
:104C0000E0F97AC77B04120E2890162074B8F0A33E
:104C1000740B124CDE124D28124D1F124E6290047E
:104C2000D0E064019004BD700B124C701216DE903F
:104C300082658009124C701216DE90828578081207
:104C4000166A90823D78081216B8124C67124D16FB
:104C500078081216ED124C67124D0D7413F0900384
:104C6000767402F0024B289004BDE0F8A3E0C8225D
:104C7000125A1878082274F712188A124D8FF5D933
:104C80007582C0758304124DA97004E583640470B5
:104C9000F59004D6E0600A78D77904FA124D83DAE9
:104CA000FB124E30124DA97004E583640470F59038
:104CB00004F6E0600A78F77904FA124D83DAFB759E
:104CC000E19590162074C4F0A3740B124CDE124CC4
:104CD000E87412F09003767401F0FF02195C124E32
:104CE0004B74BEF0A3740B22124D28124D1F124EAE
:104CF000669004BDE0F8A3E0C8124D1674FF12558B
:104D0000979004BDE0F8A3E0C8124D0D222414F5DD
:104D100082E438F58322240EF582E438F58322F00C
:104D2000A374D6F0A3740B22124D2C22124D302204
:104D3000F0A3743EF0A3740D2274F712188A124D7A
:104D40008F4402F5D97582C0758304124DA9700491
:104D5000E583640470F59004D6E0600A78D779049E
:104D6000FA124D83DAFB75E195901620124DB1F0E1
:104D7000A3124DB1124CEB7414F09003767404F04E
:104D80000250E488828983124EECA882A983229083
:104D900004D6124D9622E02407F5D9124D9F229099
:104DA00004BFE0C4333354C022124EECE58264C623
:104DB0002274D0124DBE124DBEF0A3740B22F0A38C
:104DC000740BF0A374D02274F712188A124D8F441A
:104DD00006F5D97582C0758304124DA97004E58368
:104DE000640470F59004D6E0600A78D77904FA126A
:104DF0004D83DAFB124E30124DA97004E583640432
:104E000070F59004F6E0600A78F77904FA124D83A1
:104E1000DAFB75E19590162074CAF0A3740B124E5C
:104E200041124CE87415F09003767403F00250E4DC
:104E30009004F6124D964404F5D97582C07583042A
:104E400022124E4B743EF0A3740D22124E4F2212CA
:104E50004E5C743EF0A3740D124E5C22124D30F085
:104E6000A322124E6622F090162E743EF0A3740D0B
:104E7000124E4F743EF0A3740D124D2CF022C082DE
:104E8000C083124C672406F582E438F583E40247B8
:104E9000CF74F712188A9003A412576274A628F8E8
:104EA000740339F9E82405FAE439FB8A828B83120A
:104EB000582588828983A3A3A3A3A3A3A3A3A3ECB8
:104EC000F0A3ED124EE1A3A3A3A3A3A3E024FFF854
:104ED000A3E034FFF98A828B83E8F0A3E9F0025063
:104EE000E4F088828983A322124EEC22E0F5D9A354
:104EF000229061D0E0F87480C398FC124F0422F035
:104F0000124F0422EA2483F582E43BF583E0221267
:104F10004F1A2404F8E43583F922F582E43FF5833F
:104F2000E58222124EECE865822274F712188AEAB2
:104F3000FEEBFF9061D0E0707875D90E75D90375DE
:104F4000D904EE248C124FB6124F237003E9658307
:104F500070F6EE2484124F0F124F237003E965831D
:104F600070F675E1957908EE248CFAE43FFB120C9B
:104F7000D27904EE2484FAE43FFB120CD27C00EEDA
:104F800024ABF8E43FF9ECFAC3E49AFA95E0FBEEBF
:104F90002AFAEF3BFBEA248B125A3288828983F08B
:104FA0000CA3A882A983ECC3940840DA1250C580F0
:104FB0000279000250E4124F1A2408F8E43583F90C
:104FC00022C082C08375D90275D90375D90575E1F0
:104FD00095EA246FF582E43B12576EEA2471F5825C
:104FE000E43B1250D202492874F612188AEAFEEB0A
:104FF000FF9005217406125047121A9D7C01790317
:10500000120D32740212183075D90675D9037582E3
:105010002175830512503F7004E583640570F575B2
:10502000E195900376E064087010EE246FF582E459
:105030003F12576EEE24711258A6790102520D12DA
:105040004EECE582642622F0750821750905780882
:105050002274F612188AEAFEEBFF9061D0E07036F7
:105060007801900521740BF0900376E064077019C5
:105070007508217509057808121A9D7C01790312BB
:105080000D3274021218307805125315124EE8DAF8
:10509000FB1250C28002790002520D74F712188A76
:1050A000EAFEEBFF75D90375D90375D90DEE24DE41
:1050B000125A0CF5D975E1957904120E5E1250C59D
:1050C000802275E195EE246F125AAFEE2471F582BD
:1050D000E43FF583E8F0A3E9F0790122F0EEA2E0E5
:1050E00092AF79007F0102195C74F612188A12528D
:1050F0001A6004780480027800E8240BF8EAC39868
:1051000040457C09900521EC125161125170DDFB84
:10511000125A09601B7508217509057808121A9D35
:105120007903EEFAEFFB120D3274021218307C0D87
:1051300012514C12521270FB75E1957904120E5EF9
:1051400012529579018002790002520D1251528C4F
:10515000082274012CF5D975D90375822175830550
:1051600022F0EE24E3F8E43FF97A227B057D082261
:105170001251742288828983E08A828B83124EE1E5
:10518000A882A9838A828B83A3AA82AB832274F626
:1051900012188A12521A6004780480027800E824F7
:1051A00008F8EAC39840647806900521740CF090E2
:1051B0000393E0900522F0900394E0900523F09093
:1051C0000395E0900524F0900396E0900525F0907B
:1051D0000397E09005261252A9601B7508217509F6
:1051E000057808121A9D7C067903EEFA120D3274C6
:1051F00002121830780A1252A312521270FB75E193
:10520000957904120E5E1250C5800279007F020269
:10521000195C124EEC1508E50822EAFEEBFF9061DE
:10522000D0E0F87480C398FA1252AE2274F61218C5
:105230008A12521A6004780480027800E82404F884
:10524000EAC398404B7802900521E8F0EE24F5126D
:105250005A0C9005221252A9601B75082175090588
:105260007808121A9D7C027903EEFA120D3274024C
:1052700012183078061252A312521270FB75E19583
:105280001252957904120E5EEE240D1250C880025F
:10529000790002520DEE241DF582E43FF583E4F01F
:1052A000A3F02212531B880822F01252AE22EE24E1
:1052B00083F582E43FF583E02274F612188A124ED9
:1052C000F16004780480027800E82404F8ECC398C4
:1052D000403E78029005217407F0EA24F6125A3213
:1052E000900522124EFF601975082175090578088E
:1052F000121A9D7C027903120D3274021218307852
:1053000006125315124EE8DAFB75E1957901800219
:10531000790002520D12531BE8FA22740128F5D9C4
:1053200075D9037582217583052274F712188AE9ED
:10533000FFA2AFE433FEC2AF7C0080010C1253C168
:105340005011ECF8EA28F8E43BF91253B7E06F701B
:10535000EB8016EA246EF8E43BF9E0FCEA2CFAE470
:105360003BFB1253E4EF1254A8EEA2E092AF0250BE
:10537000E4C082C083A2AFE433FDC2AF125A2F143F
:10538000F07C00801BECF8EA28F8E43BF9E8246B99
:10539000F582E439F583E0C0E01253B7D0E0F00CB9
:1053A0001253C140E0EA246DF582E43BF58374FFBB
:1053B0001253EEED024924E8246AF582E439F583BC
:1053C00022125A2FF8ECC39822C082C083A8A8C228
:1053D000AF1253E4E91253EEE8A2E7E433FAE8A28D
:1053E000E7024926EA246AF582E43BF58322F0EAE3
:1053F0002469F582E43BF583E4F02274F312188A01
:10540000EAFEEBFFECFAEDFB8A828B83A3A3A3A356
:10541000E0541FF0EE2436F582E43FF583E4F075A6
:105420000A00EE245DFCE43FFD8A828B83E08C82DF
:105430008D83F0750B00E50A33333354F8F50C8A8D
:10544000828B83E0F508750900E50B78081217E8F0
:10545000E508A2E05027EE2436F8E43FF988828977
:1054600083E0F508EE2508F508E43FF509E5082492
:1054700038F582E43509F583E50C1254A8050B05CF
:105480000CE50BC3940840B7050A8A828B83A3AA54
:1054900082AB838C828D83A3AC82AD83E50AC394F7
:1054A0000540867F0502195C1254AE04F022F08894
:1054B000828983E02274F712188A9003A2E06401C3
:1054C000700302558F9003A8E0600302558F7401AA
:1054D000F0A3E4F0A3F090040804F090040DF09021
:1054E00003AB1255969003B504F09003DBE4F09003
:1054F00003BE12559DA3F0900425F0900419F0907E
:105500000428F090040E7480F0A3E4F0900414F0EA
:105510009004911255B490049AF0900429F09004EC
:10552000791255B4A3F0A3F0900485F0900487F0AD
:10553000900483F090049D1255B49004B0F0900450
:10554000AA12559D74FF9004107804F0A3D8FC7A39
:10555000037B0478B179041255AF64B67003E96433
:105560000470F47A897B04788A79031255AF6492C7
:105570007003E9640370F49003A2E004F064017026
:10558000089003AAE09003A4F07AA67B0380047A33
:10559000007B000250E4E41255A9A3F0221255A1A9
:1055A000221255A9A31255A922F0A3F0A3F02212AA
:1055B0005174E8221255A1A3F0A3F022C082C08347
:1055C0008A828B83A3A3A3E0600F8A828B83A3A329
:1055D000A3E4F09003A3E014F09003A2E014F070B1
:1055E000069003A474FFF08A828B83A3A3E4F09057
:1055F00004B6E0700D9003A3E06401700579001219
:105600000E40024928C082C0839003A9E4F09003B1
:10561000A8F09003A2F0A3F0A374FFF075E1F102EB
:105620004928C082C083780079009003A9E0600413
:1056300078A6790388828983A3A3A3A3E0F902490A
:105640002874EE12188A8A0A890C9003A3E0F8E9FC
:10565000C398502278FF79FF9003A9E0601390046B
:1056600019E06401700590041F80039003D4125761
:1056700070E8FEE98011E96009A3125762125753DE
:105680008005EA2AFEEB33FF8E0E8F0F7403780E2F
:105690001217F89003A3E0F8C3E50E98E50F940005
:1056A000500302573FE50A25E0F50AEB33F50BEC12
:1056B0002CF508ED33F509AC0AAD0B8007EC24029C
:1056C000FCE43DFDC3E5089CE5099D4060C3EC9EFC
:1056D000ED9F403FECF8EDF9EEFAEFFB12178F8BE0
:1056E0000FEA450F60068E0E8F0F8006750E00754F
:1056F0000F00ECF8EDF9EEFAEFFB12178F8A108B22
:1057000011EC9510F8ED9511F9E8250EFCE9350F2F
:10571000FD801AE0F8E50CC3985012EEF8EFF9ECB2
:10572000FAEDFB12178F8B0FEA450F7090C3EC95C3
:105730000AED950B4009C3E5089CE5099D50067AE2
:10574000FF7BFF8009ECFAEDC313FBEA13FA7F0A33
:1057500002195C74D428F582740339F583E0FEA342
:10576000E022E0F875F00BA4C8AAF02AF922F5832C
:10577000125AB52274F612188A74FC12181AEAFE2C
:10578000EBFF803CEE2463F8E43FF97A007B00A253
:10579000AFE433F50812581FEC4D600F125A6E70CB
:1057A0000A88828983A3A3E4F0A3F0E508A2E0922B
:1057B000AF1213329004B7E004F09004B8E004F0A4
:1057C000EE2463F582E43FF583125AA970B6900483
:1057D000B8E060358E828F83A3A3A3A3E0851882EF
:1057E000851983F0A3E4F09004B8E0F8740212186D
:1057F00066E8F0A3E4F07402121880AA18AB1979D5
:10580000011209B49004B8E4F0EEFAEFFB120C8A2E
:10581000EEFAEFFB120D68740412183002520DC23A
:10582000AF88828983E0FCA3E0FD2274F712188A16
:10583000EAFEEBFF8E828F83A3A3A3A3E0FA7B0093
:1058400012098AEEFAEFFB120CA2120D4A0250E482
:10585000C082C083E490038A7808F0A3D8FC900348
:105860008A040247D174F612188AEAFEEBFFEC2490
:1058700003F8E43DF988088909EC2407F8E43DF9C8
:10588000E8FCE9FD1258B212178FEE240D1258A64B
:105890001258B212178F8B09EA45096006EE240DE3
:1058A0001258C502520DF582E43FF583E8F0A3E9F2
:1058B000F0228C828D83125AB5850882850983E097
:1058C000FAA3E0FB22F582E43FF583E02401F0A394
:1058D000E03400F02274F612188AEAFEEBFFEE24A0
:1058E0002EF582E43FF583125825780079FAECFA18
:1058F000EDFB12178FEE246F1258A6780079FAECA0
:10590000FAEDFB12178F8B09EA45096006EE246F4A
:105910001258C502520D74F412188AEAFEEBFF12F7
:105920000E048A088B098C0A8D0B90824978081224
:10593000166A90823D78081216B87808121A998E65
:10594000828F83125A141216FC1223F57404121853
:1059500030E96003025A048E828F83E02402F8A3A8
:10596000E03400F9E8FAE9FB740C121866780812C2
:1059700016DE8A828B83780812167D90823D780825
:105980001216DE8A828B8378081216CBEE240BF572
:1059900082E43FF583C082C0838E828F83A3A3A35A
:1059A000A3A3E02401F8A3E03400F9D083D082E07F
:1059B000687003A3E06970047901804A8E828F8346
:1059C000A3A3A3A3A3A3A31258CBEE2473125A0C30
:1059D00064017013EE2474125A1E7003A3E0697000
:1059E00006EE24741258C5EE247F125A0C6401701E
:1059F00013EE2480125A1E7003A3E0697006EE2491
:105A0000801258C57900024B28EE2483F582E43FCA
:105A1000F583E022125A1822125A53A3A322125AD3
:105A2000AF8E828F83A3A3A3A3A3A3A3E06822EADC
:105A3000246EF582E43BF583E02274F712188A1293
:105A40005A9E8A828B836005A3A3125A53125A5C12
:105A50000250DCE0F8A3E0F583888222125A94A376
:105A6000A3ECF0A3EDF08C828D83E4F0A322888276
:105A70008983E0FAA3E0FB8A828B83E0FCA3E0FD4C
:105A800088828983125A94E4F0A31254AEFCA3E0F6
:105A9000FDEC4D22ECF0A3EDF08A828B8322A2AFC5
:105AA000E433FEC2AF8A828B83125AB5E84922F5ED
:105AB00082E43FF583E0F8A3E0F92274F712188A34
:105AC000E96006F8125AD0D8FBECFAEDFB0250E47C
:105AD0008C828D83E08A828B83125AE68A828B8342
:105AE000A3AA82AB8322F08C828D83A3AC82AD8388
:105AF0002274F012188A74FA12181AECFEEDFF756F
:105B000008008A0A8B0B780A121AE1000410FE5C66
:105B1000325B4F5B685B7F5B9C5BB35BD35BEA5B39
:105B2000FD5B265C995CA95CBF5CD95CFE5CFE5C9D
:105B30003C5C7401696003025CF98C828D83E0F83F
