:020000040000FA
:0600000002011A02226950
:03002B0002292285
:030033000229049B
:030053000222DFA7
:03006B000228DB8D
:100083000220BFE5C754F84401F5C77901220000F7
:100093000080FB120086B90003020104E479217891
:1000A30008B800028004F709D8FCE479297802B87B
:1000B30000028004F709D8FCE490028178BB79132D
:1000C3008002F0A3D8FCD9FA781A90014A7A01BACF
:1000D30000028007E493A3F608DAF97A3B7B1590D4
:1000E300014B783879048015E493A3AD82AE838AFB
:1000F300828B83F0A3AA82AB838D828E83D8E9D9C6
:10010300E77582997583FF740112012C75829175CD
:100113008300740012012C75D00075813F7518811E
:10012300751902759F00020096C09FF59FE473D076
:100133009F22D083D082C09FE493C0E0740193C018
:10014300E0740293F59F2201FF0000B40000280031
:100153002800283075A000A000A000A0000008001F
:1001630008E001F000100010001000100010001053
:100173000050005000500010001000D00700000095
:100183000000000F0001000500307507001000019A
:100193000081FF00000000FFFFFFA406C206AA06BD
:1001A300E606FF02020208025000A0000000E80376
:1001B30002F490010000D99002F09001000096151E
:1001C30002EA90010000BF0202F0900100009715BF
:1001D30002E890010000D50202F09001000098159A
:1001E30002E490010000D70202F09001000099158B
:1001F30002E290080000D80202F0900100009A1574
:1002030002E0900100009B15FF0100FF2002F49023
:10021300010000CD9002F090010000FF1502DE9076
:10022300000000000002EC90030000060317009496
:100233000D940D940D940D940D940D940D940D94B3
:100243000D940D940D940D940D7C108E1076100268
:100253000202020202020202010D0000001001026A
:10026300F490010000D09002F090010000421602C9
:100273001691010000400702F090010000431602AE
:1002830008910100005B8F02F09001000044160208
:1002930006910100004D8F02F09001000045160207
:1002A3000491010000CB8E02F0900100004616027B
:1002B3000291010000B98E02F0900100004716027E
:1002C300FE90010000DD8E02F0900100004816024E
:1002D300FC90010000958E02F09001000049160287
:1002E300FA900100003F8F02F0900100004A1602CD
:1002F300F8900100004B1601E8030577100AFFFF91
:10030300FF00013075030201060000000000000039
:1003130000000000000000000000000000000000DA
:100323000000000000FFFF0600800CE8030B0945F6
:1003330052435F44657669636505122003401F02DB
:100343000A000201060302F0FF53696D706C652019
:10035300424C45205065726970686572616C5C152A
:10036300000062150A4368617261637465726973A0
:10037300746963203100024368617261637465725A
:10038300697374696320320008436861726163743E
:100393006572697374696320330010436861726125
:1003A300637465726973746963203400024368611E
:1003B300726163746572697374696320350002F452
:1003C30090010000D39002F0900100005717020C37
:1003D30091030000241502EE90010000581702F06B
:1003E300900100006917020E91010000251502EE2D
:1003F300900100006A1702F0900100007B170210C1
:1004030091020000261502EE900100007C1702F015
:10041300900100008D17021291000000271502ECD5
:1004230090030000311502EE900100008E1702F0D8
:10043300900100009F17021491040000331502EE8F
:1004430090010000A017104B6579205072657373FB
:100453002053746174650002F490010000D6900289
:10046300F090010000391802E690000000381502F0
:10047300EC90030000391502EE900100003A1812C7
:100483000135FE9C03120135119D03120135429D76
:10049300031201357C9D03120135D59D03120135ED
:1004A3001C9E03120135649E03120135939E0312B1
:1004B3000135C29E03120135F99E03120135409F97
:1004C30003120135599F03120135AE9F0312013503
:1004D300C79F0312013515A0031201354FA0031264
:1004E300013583B70212013586B802120135BFB850
:1004F30002120135E2B802120135F4B802120135D5
:1005030032B902120135AEB90212013576BA0212BE
:10051300013598BA021201352FBB0212013581BB96
:1005230002120135B2BB02120135BFBB0212013503
:1005330029BC0212013580BC0212013583BC0212B0
:100543000135BCBC02120135BFBC02120135C9BC66
:10055300021201351DBD021201355EBD02120135C5
:1005630091BD02120135CEBD02120135D0BE021279
:10057300013574BF02120135DDBF021201351BC004
:10058300021201354A9103120135729103120135AA
:100593009F9103120135D79103120135359203124E
:1005A3000135819203120135E89203120135289334
:1005B3000312013565930312013593930312013539
:1005C3003D940312013547940312013554940312E9
:1005D3000135879403120135939403120135AB94CB
:1005E30003120135B59403120135F4C30312013527
:1005F30002C4031201351AC40312013531C40312B4
:100603000135A8C80112013552C90112013565CA65
:1006130001120135E1CA01120135FFCB0112013587
:100623003BCC01120135D6CC01120135BACD0112F2
:10063300013586CE0112013514D00112013585D062
:10064300011201353FD10112013531D201120135B9
:1006530071D20112013525D30112013557D301128D
:1006630001354DD5011201358FD501120135ADD5B7
:100673000112013513D601120135E2D601120135FB
:10068300A6D701120135C5D9011201352FD802129F
:10069300013519D902120135C4D90212013515DA0F
:1006A30002120135C5DA0212013536DB02120135B9
:1006B3001BDC021201354FDC0212013548DD021248
:1006C300013585DD0212013561DE02120135A0DE3E
:1006D30002120135BCDE02120135E5B30312013506
:1006E30069B40312013594B403120135AEB5031294
:1006F3000135439503120135599503120135779559
:1007030003120135889603120135929603120135BF
:10071300BD9703120135B4980312013521990312D1
:1007230001351DDF0212013553E0021201358AE063
:1007330002120135E1E002120135F6E2021201353F
:100743001CA401120135A8A4011201350CA6011243
:10075300013518A60112013553A601120135C2A6AF
:1007630001120135CBA701120135D4A801120135BD
:100773009BA901120135F8AA0112013516AB01122A
:10078300013533AB01120135E0AB011201355DAC2C
:100793000112013585AC011201354FAF011201354C
:1007A30054AF011201356DB101120135BBB1011214
:1007B30001352BB20112013569B20112013545B37E
:1007C3000112013505B40112013551B4011201358D
:1007D30054B40112013598B401120135E0B4011289
:1007E30001351FB50112013541B50112013575B54A
:1007F30001120135D8B501120135EDE902120135B7
:10080300FBE9021201354EEA021201356DEA0212CA
:100813000135B2EA02120135F6EB0212013591EC11
:1008230002120135D5EC02120135FFEC021201353B
:100833006EED02120135B4ED021201352BEE0212F8
:100843000135DCEE02120135502900120135602911
:1008530000120135012A001201355D2A001201350B
:100863001A2B00120135362C00120135682C0012A8
:100873000135972C00120135442E00120135BB308F
:10088300001201352B33001201351D3400120135DE
:100893001635001201351D3700120135113A0012C9
:1008A3000135403B00120135443D00120135543EF1
:1008B30000120135E33F00120135D4400012013527
:1008C300224100120135914100120135B541001258
:1008D3000135064200120135A74600120135A8472B
:1008E3000012013509480012013534480012013560
:1008F300FA4800120135108D031201351A8D0312C7
:1009030001355F8D03120135738D03120135038E9B
:10091300031201353C8E03120135778E0312013524
:10092300A08E03120135F48E03120135098F0312D1
:1009330001352B8F03120135408F03120135548F7C
:1009430003120135698F03120135A38F0312013599
:10095300CF8F031201351890031201358A900312C9
:100963000135CD9003120135F79003120135229121
:100973000312013506C003120135FAA30212013531
:10098300DDA40212013558A50212013593A5021206
:100993000135E4A60212013572A70212013504AA39
:1009A30002120135B6AA02120135C2AB0212013599
:1009B30035AD021201358EAD02120135C088031226
:1009C30001350389031201358789031201355E8CD2
:1009D3000312013574AD0312013526AE031201353E
:1009E30022AF0312013561AF03120135BBAF03120E
:1009F3000135B7B7031201351AB803120135B7B879
:100A030003120135ECB8031201351CB90312013589
:100A130057B90312013577B903120135ADF3021249
:100A2300013539F402120135F8F40212013510F6DA
:100A3300021201352AF802120135668D02120135C0
:100A43008B8D02120135588E021201352C8F021242
:100A53000135998F02120135D98F02120135759034
:100A630002120135A9910212013584920212013555
:100A7300E392021201356F9302120135DD930212E4
:100A83000135699402120135AF94021201352195A3
:100A930002120135B3950212013554960212013543
:100AA300749602120135BC960212013505970212A3
:100AB3000135219702120135479702120135C1977B
:100AC30002120135CF97021201355E9802120135E9
:100AD300C7980212013561F802120135E6F80212D5
:100AE300013528F9021201350CFA0212013579FA9F
:100AF30002120135BDFA0212013501FB0212013562
:100B03002EFB0212013556FB021201358EFB021237
:100B13000135CCFB02120135F3FB021201356DFCEA
:100B230002120135B7FC02120135B0B601120135CC
:100B330058B80112013585BA01120135D9BA01122B
:100B4300013504BB01120135D6BB011201351ABCB4
:100B5300011201355EBC0112013571BC0112013570
:100B6300B2BC01120135DFBC011201352DBD0112EA
:100B730001356EBD011201359CBD01120135EFBD7A
:100B83000112013586BE0112013570C10112013512
:100B930086C301120135C4C30112013557C50112C1
:100BA30001359CC5011201350EC6011201355FC620
:100BB3000112013599C6011201359EC60112013594
:100BC3003EC70112013574C80112013585C80112EF
:100BD3000135E7F50112013566F6011201355FFCB7
:100BE3000112013565FD01120135D8FE01120135EF
:100BF3006FFF01120135664900120135AF4900123A
:100C03000135DC49001201350E4A001201351B4A39
:100C130000120135274A00120135394A0012013505
:100C2300144B00120135724B00120135A74B001211
:100C33000135DE4C001201352B4D001201354F4DAD
:100C430000120135BF4D00120135804E00120135EF
:100C5300434F00120135B14F001201356E5000129F
:100C63000135815000120135FF50001201359251B8
:100C730000120135B951001201352152001201351C
:100C8300725200120135C75200120135625300122D
:100C930001350D5400120135B954001201352B559D
:100CA300001201357F5500120135DF550012013561
:100CB3000F5600120135A55600120135CE5700120A
:100CC30001351658001201353358001201355258B8
:100CD3000012013581580012013596590012013571
:100CE3001C5A00120135415A00120135565A00129E
:100CF3000135C95A001201350A5B00120135265C21
:100D030000120135C75C00120135155D0012013573
:100D13007F5D00120135985D0012013537AE021276
:100D230001358BAE0212013597AE0212013561AF68
:100D3300021201358EAF02120135BCAF021201352A
:100D430028B0021201355EB00212013597B00212CB
:100D53000135AFB00212013504B1021201351DB1E4
:100D63000212013562B10212013575B10212013569
:100D73008FB102120135A5B102120135C3B20212BD
:100D83000135EEB302120135D8B402120135C9B5EB
:100D93000212013545290012013500800212013586
:100DA300328002120135F883021201355385021293
:100DB30001351986021201359887021201356F88B1
:100DC30002120135BE8802120135D888021201359C
:100DD3001A89021201352589021201356C89021222
:100DE3000135758902120135218A02120135FA8A09
:100DF30002120135418B02120135A98B0212013512
:100E0300EB8B02120135198C02120135568C02123A
:100E130001351D9101120135E39401120135E99465
:100E2300011201358D9B01120135E19F011201353C
:100E3300CAA3011201352B9903120135A19903129B
:100E43000135B79903120135479A03120135849A84
:100E530003120135BE9A03120135F89A03120135C4
:100E63006B9B03120135AC9B03120135B59B031237
:100E73000135C19B03120135E09B031201350A9C26
:100E8300031201351F9C03120135479C03120135E0
:100E9300A99C03120135D09C03120135EEEE021218
:100EA300013501EF021201351BEF0212013548EF44
:100EB300021201358EEF02120135C1EF0212013524
:100EC300FFEF0212013564F00212013579F00212CC
:100ED300013584F00212013591F002120135A8F0B8
:100EE30002120135B6F002120135C1F002120135CA
:100EF300CDF002120135E0F002120135EBF00212DF
:100F030001350EF102120135B2F102120135C2F1BF
:100F130002120135DCF102120135F9F10212013539
:100F230014F20212013539F20212013544F20212AF
:100F3300013559F2021201356DF202120135CEF27A
:100F430002120135D4F202120135DAF2021201352E
:100F5300E0F202120135F8F2021201352BF302120C
:100F6300013564E801120135FBE80112013593E90B
:100F73000112013583EA01120135BAEA0112013582
:100F8300CDEA011201353BEB01120135D6EC01121A
:100F93000135FDEC011201359FED01120135D4ED50
:100FA30001120135E5ED011201355EEE0112013545
:100FB3007FEE0112013597EE01120135EFEF0112B9
:100FC3000135F8F10112013548F4011201354BF5F1
:100FD300011201359AF501120135D2D901120135F9
:100FE300CFDA01120135BADB01120135C4DB01127C
:100FF3000135E6DB01120135F2DB0112013544DD77
:101003000112013573DD01120135A3DE0112013531
:10101300E5DE0112013511E001120135E7E00112AD
:10102300013539E10112013598E101120135CFE1B2
:10103300011201350AE201120135A5E5011201355C
:10104300BEE50112013540E6011201354EE60112FB
:101053000135A3E601120135B1E6011201351EE7A0
:101063000112013590E701120135D6E7011201356E
:10107300EA98021201350C9902120135F69A02120E
:1010830001359B9E02120135DE9F02120135B8A085
:101093000212013585B903120135AAB903120135CC
:1010A3001BBA0312013541C0021201354AC00212B4
:1010B300013553C00212013584C102120135A3C3A5
:1010C30002120135D9C30212013513C402120135CC
:1010D30049C40212013583C402120135B7C4021296
:1010E3000135E3C4021201352CC50212013566C570
:1010F30002120135AEC50212013504C602120135D2
:1011030039C60212013594C602120135CEC6021247
:1011130001351FC70212013555C7021201358FC7AA
:1011230002120135BDC702120135E0C702120135B3
:1011330075C503120135A1C503120135FCC50312A0
:10114300013506C60312013516C6031201359AC7C7
:1011530003120135A5C703120135F7FC021201354D
:101163001EFD0212013549FD02120135E6AF0312DD
:10117300013507B003120135BEB003120135CBB1FF
:1011830003120135DEB103120135C1C60312013565
:10119300C85D001201351F6000120135CF610012D6
:1011A30001352C6200120135296300120135A66353
:1011B300001201352E64001201355364001201350B
:1011C3002E6700120135A2670012013591680012E3
:1011D3000135C768001201350A6900120135816AB9
:1011E30000120135C36A001201350C6B0012013580
:1011F300756B00120135976B00120135B16B00124C
:101203000135CF6C00120135DF6C00120135626EBF
:1012130000120135826E00120135B86E00120135DD
:101223003E70001201357B7000120135B57100125A
:101233000135638403120135B38403120135ED854F
:10124300031201355C860312013500870312013551
:101253001F87031201356D8703120135AF87031210
:101263000135C1C403120135D2C4031201350BC7C2
:10127300031201354AC70312013554C8031201355D
:1012830017C30312013527C3031201353CC30312ED
:101293000135EEC3031201351AC1031201359EC194
:1012A3000312013506C2031201353BBB031201359C
:1012B30064BB03120135CABB03120135E9BB031238
:1012C30001353CBC0312013595BC03120135D0BC7A
:1012D30003120135D3BC0312013584A70312013570
:1012E30099A703120135A0A80312013527A90312F8
:1012F30001359BA903120135B5A903120135CCA908
:1013030003120135DFA903120135F7A903120135D1
:101313000CAA031201352DAA031201357EAA03126A
:1013230001353EC8031201354EC80312013551C8B9
:1013330003120135F87F00120135DDB503120135C3
:1013430053B703120135B4B7031201357BBE031241
:101353000135A4BE03120135CDBE0312013567BFAB
:10136300031201357FBF03120135C1BF03120135DB
:1013730052D0021201355CD0021201359CD0021208
:101383000135E5D0021201351FD10212013575D1A5
:101393000212013594D1021201351CD40212013517
:1013A30025D40212013576D4021201359FD40212DC
:1013B3000135B4D40212013524D502120135B2D558
:1013C30002120135F6D5021201351FD6021201357C
:1013D3009ED602120135DBD60212013512D7021254
:1013E300013524D70212013543D7021201354CD7F8
:1013F3000212013503D802120135DDBC0312013597
:101403002EBD03120135B7BD031201351DBE0312F4
:101413000135B3AA03120135DDAA03120135D2AB9C
:101423000312013501AC0312013588AC03120135F7
:101433003DA40312013534A50312013545A503125A
:10144300013564A703120135E9B1031201351FB257
:101453000312013552B203120135ABB30312013546
:1014630020C60312013536C60312013540C60312E6
:10147300013596C603120135767F001201356EC819
:10148300021201352BC90212013566C90212013558
:1014930097C902120135F9C90212013545CA021270
:1014A3000135B0CA021201352ACB0212013529CC0B
:1014B30002120135B0CD0212013533CE02120135CD
:1014C30099CE02120135ACCE02120135A7CF02121A
:1014D3000135F4CF02120135008003120135168065
:1014E30003120135B78003120135F680031201356B
:1014F30013810312013544810312013591810312D3
:101503000135C58103120135008203120135FD83C4
:1015130003120135DA7100120135627500120135CB
:10152300F176001201354877001201356777001212
:101533000135E577001201356B79001201353E7AEA
:1015430000120135F87D00120135E07E00120135ED
:10155300BDE402120135EAE602120135F8E7021290
:1015630001358CE902120135B7A0031201351AA126
:101573000312013537A10312013506A20312013507
:1015830068A20312013533A30312013524C20312E7
:10159300013586C20312013554C703120135CCFF4E
:1015A30002120135DEC70312013515C803120135D6
:1015B300D57F00E066701008A3E066700A08A3E018
:1015C30066700408A3E06622C3E7960809E7960855
:1015D30009E7960809E79622C3E09608A3E0960870
:1015E300A3E09608A3E09622C008C3E096F5080896
:1015F300A3E096420808A3E096420808A3E09645B4
:10160300087001D3D00822080808EAC0E0EBC0E064
:1016130086F0E7A4FA180986F0E7A42AFA180986DF
:10162300F0E7A42AFA180986F0E7A42AFA1986F043
:10163300E7A4FBE5F02AFA190886F0E7A42BFBE5FB
:10164300F03AFA190886F0E7A42BFBE5F03AFA180A
:10165300180986F0E7A4C5F02BFBE43AFA1908E76A
:10166300C5F0C6A426F6E5F03BFBE43AFA1886F08B
:10167300E7A4F6E5F00826F6E43B08F6E43A08F6B4
:10168300D0E0FBD0E0FA22E4CFC0E0E4CEC0E0E457
:10169300CDC0E0E4CCC0E075F020E626F608E633E2
:1016A300F608E633F608E633F6181818EC33FCEDC3
:1016B30033FDEE33FEEF33FFC3EC9709ED9709EEED
:1016C3009709EF97191919400FFFEC97FC09ED974C
:1016D300FD09EE97FE191906D5F0BFECF709EDF7F2
:1016E30009EEF709EFF7191919D0E0FCD0E0FDD0A6
:1016F300E0FED0E0FF226016080808C6C313C61830
:10170300C613C618C613C618C613C6D5E0EA227098
:1017130009080808226016181818C6C333C608C675
:1017230033C608C633C608C633C6D5E0EA22E62761
:10173300F60809E637F60809E637F60809E637F644
:1017430022E026F608A3E036F608A3E036F608A35F
:10175300E036F622E026F008A3E036F008A3E036F0
:10176300F008A3E036F022C3E697F60809E697F6F9
:101773000809E697F60809E697F622C3E096F0080B
:10178300A3E096F008A3E096F008A3E096F022E029
:1017930056F608A3E056F608A3E056F608A3E0566B
:1017A300F622E056F008A3E056F008A3E056F0084E
:1017B300A3E056F022E0F608A3E0F608A3E0F6085B
:1017C300A3E0F622E6F008A3E6F008A3E6F008A3F8
:1017D300E6F022E0FAA3E0FBA3E0FCA3E0FD22E0B5
:1017E300F8A3E0F9A3E0FAA3E0FB22E8F0A3E9F011
:1017F300A3EAF0A3EBF022CAC0E0E6F0A308DAFA0A
:10180300D0E0FA22CAC0E0E0A3C582CCC582C5837A
:10181300CDC583F0A3C582CCC582C583CDC583DA8C
:10182300E6D0E0CA22C3E498F8E499F91218698073
:1018330026C3E49AFAE49BFBE920E7E9121869E47A
:1018430098F8E499F922C3E498F8E499F91218692D
:10185300E498F8E499F9C3E49AFAE49BFB22EB20B9
:10186300E7CFE920E7E0B90010BB0008E88AF0847D
:10187300F8AAF022E4FBC8FA22EB70227B10C833EB
:10188300C8C933C9335007C39AC3DBF280069A50E1
:10189300012ADBEAC833F4C8C933F4C9FA2275F064
:1018A30008E4C833C8C933C933C99AC99B5004C9AA
:1018B3002AC93BD5F0ECFBC833F4C8E4C9FA22606B
:1018C3000D08C6A2E713C618C613C6D5E0F32260F7
:1018D3000C08C6C313C618C613C6D5E0F422700499
:1018E30022600D18C6C333C608C633C6D5E0F41844
:1018F30022251810AF08F518400C15198008F518A3
:1019030040021519D2AF2200C0D0251810AF08F538
:1019130018500C05198008F51850020519D2AFD0DC
:10192300D0222518F58210AF08F518400C15198040
:1019330008F51840021519D2AF851983222518F529
:1019430082E43519F583222518F8E43519F922259F
:1019530018FAE43519FB222518FCE43519FD22E4B5
:10196300732518C582C0E0E51934FFC583C0E0E5DF
:1019730018C3958224F810AF0885831985821880CF
:1019830008858319858218D2AFCEF0A3E520F0A392
:101993007808E608F0A3DEFAEFF0A3E58124FAF86D
:1019A300E608F0A3E608F0A3E608F0A30808E608B3
:1019B300F0A3E608F0A315811581D0E0FED0E0F88E
:1019C300158115811581E8C0E0EEC0E0222518C518
:1019D30082C0E0E51934FFC583C0E0E518C39582F2
:1019E30024F910AF08858319858218800885831927
:1019F300858218D2AFCEF0A3E520F0A37808E608DD
:101A0300F0A3DEFAEFF0A3E58124FBF8E608F0A3E8
:101A1300E608F0A30808E608F0A3E608F0A315819A
:101A23001581D0E0FED0E0F815811581E8C0E0EE25
:101A3300C0E022851983851882E0A3FEE0A3F52088
:101A43007808E0A3F608DFFAE0A3FFE0A3C0E0E034
:101A5300A3C0E0E0A3C0E0E0A3C0E0E0A3C0E010C7
:101A6300AF088582188583198008858218858319B4
:101A7300D2AFD083D082020132851983851882E0E8
:101A8300A3FEE0A3F5207808E0A3F608DFFAE0A3BD
:101A9300FFE0A3C0E0E0A3C0E0E0A3C0E0E0A3C098
:101AA300E010AF0885821885831980088582188520
:101AB3008319D2AFD083D08222C0D02518C582C06B
:101AC300E0E51934FFC583C0E0E518C3958224F32C
:101AD30010AF08858319858218800885831985824C
:101AE30018D2AFC8F0A3E9F0A3EAF0A3EBF0A3790F
:101AF30008E709F0A3D8FAECF0A3EDF0A3EEF0A306
:101B0300EFF0A3D0E0F0A3D0E0F0A3D0E0F0A3E5A2
:101B130020F0A3E5F0F0A322851983851882E0C0A5
:101B2300E0A3E0F9A3E0FAA3E0FBA37808E0F6085A
:101B3300A3DFFAE0FCA3E0FDA3E0FEA3E0FFA3E044
:101B4300C0E0A3E0C0E0A3E0F5D0A3E0F520A3E06C
:101B5300A3F5F010AF088583198582188008858363
:101B630019858218D2AFD082D083D0E0F8D0E0328A
:101B730074048006740280027401C0E0F404121934
:101B830025D0E01217FA227404800474028000CC7A
:101B9300C0E0EDC0E0E518C39CCCAD1950011D10A9
:101BA300AF068C188D1980068C188D19D2AF1218B8
:101BB30007D0E0FDD0E0FC22D083D082E9C0E0E48E
:101BC30093A3C386F0C5F095F0F908E493A386F0D8
:101BD300C5F095F0700BE493A3C3994005E9048025
:101BE30002A3E475F002A42582F582E5F03583F5BE
:101BF30083D0E0F9E493A3C0E0E493C0E022D08370
:101C0300D082ECC0E0EDC0E0E493A3FCE493A3FD39
:101C1300ED4C600D121C4DEC24FFFCED34FFFD80F8
:101C2300EFE493A3FCE493A3FDED4C600D121C8C35
:101C3300EC24FFFCED34FFFD80EFD0E0FDD0E0FCB1
:101C4300E493A3C0E0E493C0E022C0E0C3E493962E
:101C5300087401939618400FE493667008087401A2
:101C630093661870007019A3A3C3E49396087401D4
:101C7300939618A3A3400DD0E0D0E0D0E0021C3D22
:101C8300A3A3A3A3A3A3D0E022C0E0C0F088F0E401
:101C9300936670080874019366187000A8F0A3A3F4
:101CA300700BD0F0D0E0D0E0D0E0021C3DA3A3D075
:041CB300F0D0E0226B
:101CB80074F61219D0EAFEEBFF8C088D09EE243475
:101CC800F8E43FF9E8FCE9FD121DEAE0FAEE2437F2
:101CD800F582E43FF583E0F88508F0A4C885F00AAA
:101CE8008509F0A4250AF9EA28F8E439F97A257B68
:101CF80000121869EA8C828D83F0FA131313541FAB
:101D0800F8EE28F8E43FF9E8245DF582E439F58334
:101D1800E0C0E074075AF8D0E0B800028004C313AA
:101D2800D8FCA2E05003EA8020EE2436F582E43F96
:101D3800F583E0F5F0EA84A8F0EE28F8E43FF9E846
:101D48002438F582E439F583E0F97F03021A7C74BC
:101D5800F51219D0EAFEEBFFEE2434F582E43FF5E4
:101D680083E0C0E0121DEAD0E0F08E828F83A3A347
:101D7800A3A3A3E0FAA3E0FB8E828F83A3A3A3A36C
:101D8800A3A3A3E0C39AF508A3E09BF509EE247F7B
:101D9800F8E43FF9880A890B8882F583E0640170CA
:101DA8002CEE2480F582E43FF583EA2401F8E43B35
:101DB800F9E0687003A3E06970137CB17D04EEFA62
:101DC800EFFB120CB0850A82850B83E4F0AC08ADFA
:101DD80009EEFAEFFB121CB8E9F91228CD7F0402CC
:101DE8001A7CEE2435F582E43FF58322C082C08355
:101DF800851882851983E0F8A3E0F9C3EA9CEB9D76
:101E08005010C3EC98ED99401BC3EA98EB99501415
:101E1800800EC3EA98EB994007C3EC98ED9940040B
:101E2800790180027900D083D08222EAC39CFAEB40
:101E38009DFB2274ED1219D0900376E064086005CA
:101E4800E06407702C9061C8E060269003A4E0F875
:101E580074FF68601CE875F00BA4C8AAF02AF9742E
:101E6800A628FE740339FF8E828F83A3A3A3E07094
:101E7800057900021FD4EE2468F50EE43FF50F90B3
:101E88006060E0850E82850F83F07510217511055D
:101E9800750800750900E5D914F50AE5D95403F564
:101EA8000B601FEE2483F50CE43FF50D7403650BFE
:101EB8006059E50A6017EE2467F582E43FF583E090
:101EC800700B793DEEFAEFFB120CE080A490051C34
:101ED800E064016023850C82850D83E060047A0448
:101EE80080027A00E50AC39AFA95E0FB120B3C8A55
:101EF800088B09EA45097006120F44021E79850C01
:101F080082850D83E070048A108B117A008014E5B5
:101F1800D9C0E0EAF8E51028F582E43511F583D058
:101F2800E0F00AEAC3950A40E6850C82850D83E055
:101F3800602874FC250AF50A7810121B77AC0AA9E8
:101F48000BEEFAEFFB120D8E740212190AE9700AF1
:101F5800AA08AB09121400021ECA7403650B605468
:101F6800850A0C750D00780C121B77AC10AD11AA00
:101F780008AB09120D52740212190A850E82850FD8
:101F880083E0F87480687005750C7F8002880CE522
:101F98000CF50D780D121B7B780B121B7BA90AAC74
:101FA80008AD099003A4E0FA7B00120974740212C8
:101FB800190A8013900376E06408600BAC10AD1129
:101FC800EEFAEFFB120E24120F5079017F0C021A61
:101FD8007C74F31219D074FC1218F4EAFEEBFF8932
:101FE80009A2AFE433F508C2AFEE2463F50AE43F73
:101FF800F50B8010AA0AAB0B120D0A1214009004FC
:10200800B8E004F0850A82850B83E0F8A3E0F9E8DC
:1020180049602DE82402FAE439FBEA2402F50CE4CD
:102028003BF50D780C121B778A828B83E0FCA3E0CA
:10203800F9EEFAEFFB120CFE740212190AE960B409
:102048009004B8E0604D9004B9E0F89004B8E0C39B
:1020580098500C74026509703A9004BAE060348EA6
:10206800828F83A3A3A3A3E08518828519831220F6
:10207800AB7402121940E81220AB9004B7E028F0C4
:10208800740212195AAA18AB1979011209C89004D6
:10209800B8E4F0E508A2E092AF740412190A7F06CA
:1020A800021A7CF0A3E4F09004B8E0F822000000E3
:1020B8008521878522C622C0E074EB121ABCA2AF24
:1020C800E433F508C2AF759B00906182E0A2E0504E
:1020D80030E591A2E0502A7591FE740165217021C6
:1020E800122252120E7E122240121B8A1226777476
:1020F8000412190AE9640170057901120ED8121E3A
:102108003B906182E0A2E5505DE591A2E5505775EC
:1021180091DF900376E064076005E06408702F1291
:10212800225274016521703E120E7E122240121B4B
:102138008A122677740412190AE964017005790174
:10214800120ED87901EEFAEFFB121FD98018E0645D
:102158000D7013900398E004F064287002E4F07A9C
:1021680000E0F9120F56906182E0A2E640030222D5
:1021780015E591A2E640030222157591BF900376FA
:10218800E064057008120E66120E728003120E6C5F
:10219800752100120EE4E9900377F07900120ED849
:1021A800120C1A7A017B00900375E0F91213D09093
:1021B8007803E064427056900520E014F0704EC237
:1021C800AF1221CC00782AD0E0F618D0E0F6E59FCF
:1021D8005407F87005750DFF8003750D7FC4C0E0C6
:1021E8007829E6F50A08E6550DF50B740B780A12FE
:1021F80018D2D0E0250AF8906270E0A2E740F8E82B
:10220800C333906272F0906270E0D2E0F090618126
:10221800E0A2E35009E5E9A2E3500375E9F7A3E07A
:10222800A2E75009E591A2E7500375917FE508A25E
:10223800E092AF7F08021B1B8E828F83E0F8A3E039
:10224800C82416F582E438F583229003A4E0F875D3
:10225800F00BA4C8AAF02AF974A628FE740339FF63
:1022680022C0E0C0D0C082C083906183E0A2E05069
:1022780009E5BFA2E0500375BFFEE0A2E15009E501
:10228800BFA2E1500375BFFDE0A2E25009E5BFA27D
:10229800E2500375BFFBE0A2E35009E5BFA2E3509B
:1022A8000375BFF7E0A2E45009E5BFA2E450037547
:1022B800BFEFE0A2E55009E5BFA2E5500375BFDF17
:1022C800E0A2E65009E5BFA2E6500375BFBFD08380
:1022D800D082D0D0D0E032C0E074F2121ABCE5A7A8
:1022E800A2E4500FE5A1A2E4500953A7EF75A1EFAE
:1022F800122333E5A7A2E5500CE5A1A2E550065349
:10230800A7DF75A1DFE5A7A2E15009E5A1A2E15089
:102318000375A1FDE5A7A2E2500CE5A1A2E25006D3
:1023280053A7FB75A1FB7F01021B1B74F81219D080
:10233800752101900376E0640670077A007B00122D
:102348000E4EA2AFE433FED2AF90037CE06401707E
:10235800187A207B00900375E0F91214FC7A207B30
:1023680000900375E0F91213D6906182E0D2E6F08E
:1023780090051DE0602185C622801690037BE064ED
:10238800017008E5C654F84405F5C653BEFC122092
:10239800B87401652160E4EEA2E092AF7F01021AF1
:1023A8007C0000008E238F2485822885832785184A
:1023B80082851983E0CEA3E0CF852882852783EB29
:1023C800C9EAC8EDCBECCA75F010C3E833C8E933E5
:1023D800C9EA33CAEB33CBC3EA9EF526EB9FF52552
:1023E800B35004AB25AA26EC33CCED33CDD5F0DAC7
:1023F800AE23AF242274E91219D074FA1218F4EA41
:10240800FEEBFF8C088D09120E90EAF8EBF9ECFA56
:10241800EDFB8E828F831217EE900376E024F7C3CC
:1024280094055006751001022534120DC48A0A8BD2
:102438000BEA450B7003022531120E848A0C8B0DB2
:10244800120E84EA650C7003EB650D60ECEEFCEF90
:10245800FDAA18AB19120E8A850A82850B83A3A3DD
:10246800780C1217B8909045780C1217928518823C
:1024780085198378141217B890904578141217921A
:10248800780C79141215CB501F780C791412176A2E
:1024980090905D780C1215EB4047850C10850D1156
:1024A800850E12850F13804590905D851410851553
:1024B800118516128517137810790C12176A78107F
:1024C8001215EB501C75100075110075120075136C
:1024D800017810791412176A7810790C1217318064
:1024E8000C751001751100751200751300740978C8
:1024F800101217129090AD780C1217B87810790C4A
:1025080012168A900376E06408600AE064066005A3
:10251800E06405702090905178101215EB501690D9
:1025280090397810121744800C75100075110075D9
:10253800120075130085088285098378101217C761
:10254800740612190A7F10021A7C74F71219D01235
:102558000EA290051BE064017010906245E4F0A3A0
:10256800F053F4F343FE0C5390F3120E3CE5C654BB
:10257800B84441F5C6E59E5447644170F8906185BA
:10258800740FF0900519E0F47002A3E0602C750850
:1025980001750900900519E078081218E1E508F4BA
:1025A800FAA3E0600814600A14600C800DEA5280F7
:1025B8008008EA52908003EA52A079007F02021A4A
:1025C8007C74F71219D0E9FEEAFF74016E700C7A78
:1025D800807B00900375E0F91213D0902948E493AA
:1025E800F46008E493F9120BFC800953C6B8E59E21
:1025F800544770FA120E4290051BE06401700312F2
:102608000C32900519E0F47002A3E0602B75080104
:10261800750900900519E078081218E1E508FAA391
:10262800E0600814600A14600C800DEA428080089B
:10263800EA42908003EA42A0120DC48A088B09A8D6
:1026480008A909E8496016E5E170FCE82414F58258
:10265800E439F583E0F874FF68600288E174016F7B
:10266800700A7A01900375E0F912146C0225C4749B
:10267800F11219D08A088B098C0A8D0B9090457835
:1026880008121792740F121940780C1217B890900C
:1026980045780C1217927808790C1215CB90905D3A
:1026A80050107808790C12176A78081215EB401444
:1026B800800E780C790812176A780C1215EB500402
:1026C8007901800279007F08021A7C74ED1219D012
:1026D8008A088B098C0A8D0B9090457808121792FE
:1026E8007413121940780C1217B8909045780C1290
:1026F8001792780C79081215CB40117808790C12CA
:10270800176AAA08AB09AC0AAD0B802275100075D0
:1027180011007512007513017810790C12176A7878
:10272800107908121731AA10AB11AC12AD137F0C37
:10273800021A7C90904578081217B88A828B8378A1
:10274800081217A57F04021A7C74F51219D08C821E
:102758008D8378081217B88A828B83780812177EBF
:102768001227A5C3E098F0A3E099122797401E907E
:10277800909178081217B88A828B837808121757B5
:102788008E828F83E02420F0A3E0344EF080A4F002
:102798008E828F83C3E09420A3E0944E22EA24041F
:1027A800F8E43BF9E8FEE9FF8C828D83A3A3A3A399
:1027B800E0F8A3E0F98E828F832274F51219D0E92C
:1027C800FE9004D3E0FAA3E0FBEE29F8E433F974B1
:1027D8000028F582748F39F583E02AF508A3E03BD9
:1027E800F5097808121B779090711217D61223AC4E
:1027F800740212190A8A088B098C0A8D0B741078D6
:10280800081216F9AA08AB097F04021A7C74F1129F
:1028180019D08A0C8B0D8C0E8D0F74111219401261
:102828001B8E7411121940E02401F508A3E034004E
:10283800F509E4F50AF50B780C790812160A909058
:102848002D78081217B8780C790812160AAA0CAB5A
:102858000DAC0EAD0F1223AC740212190A8B09EAE3
:10286800450960047A0180027A00EC2AFCE43DFD07
:102878007413121940E0F8A3E0F9E8FEE9FFECF858
:10288800EDF97A717B0212186988088909E4F50A5A
:10289800F50B8E828F8378081217C7ECF8EDF97A5A
:1028A800717B021218698A088B0974057808121856
:1028B800E18E828F83A3A3A3A3E508F0A3E509F023
:1028C8007F08021A7CC082C083E9906000F0D08340
:1028D800D08222C0E074F2121ABCA2AFE433FED256
:1028E800AFE589A2E150031212C8758900C2C57507
:1028F8001A00EEA2E092AF7F01021B1BC0E074F247
:10290800121ABCA2AFE433FED2AFE58BA2E05003AB
:102918001212C8758B00C2E880D5C0E0C0D0E8C0EC
:10292800E0A8A8D2AFC2C7751A00E8A2E792AFD054
:10293800E0F8D0D0D0E032C2AF020000220201326B
:10294800FFFFFFFFFFFFFFFFC082C083E99015FE76
:10295800F0D083D08202013274F6121964E9900231
:10296800E8F0900348E0F508750900740278081249
:1029780018E1AA08AB091214549002E91233139013
:1029880002E9123700606F900348E075F003A4FA7B
:10299800ABF0121454900306123313900306123747
:1029A80000700B9002E91236D112145A8048900335
:1029B800061246657AFF7BFF1212327A0080198A66
:1029C80008750900740278081218E112410D74FFA5
:1029D800122B13E4F0A3F00A900348E0F8EAC39836
:1029E80040DD79051208609002E8E0F912074C7A98
:1029F800EA7B08120ADC0241B074F41219648A08EE
:102A08008B09EB548060479002E8E0F91213B88A0A
:102A18000A8B0BAE0AAF0BEE4F602A8E828F83E0D3
:102A280064B0701A120872E960148E828F83A3A3AF
:102A3800A3A3E0F9EE2405FAE43FFB120842EEFAFC
:102A4800EFFB1213A6AA08E5096480FB80047A004C
:102A58007B00022C6374F212196474FB1218F4EAF6
:102A6800FEEBFFEE4F60457403121940EEF0A3EF42
:102A7800F0851882851983ECF0A3EDF07402121921
:102A880040E9F0AA18AB19120746E9F50870757401
:102A980013121940E0F50AA3E0F50BE50A450B60AF
:102AA800638E828F8312309CEE4F7005750802800A
:102AB800537A067B001214548A0C8B0DA80CA90DAE
:102AC800E8497005750813803B88828983E4122BD6
:102AD80013EEF0A3EF122C2FE50AF0A3E50BF0900C
:102AE80002EC122C289002EC6017E0FCA3E08003B3
:102AF800EAFCEBFD8C828D83122C2870F38C828D7E
:102B080083123D28A90874050248E5F0A312464738
:102B1800A32274F21219648908890C750D007403D4
:102B2800780C1218E1850C0A850D0B9002EBF090D9
:102B380002E9123B33122C26602E12145A790080B7
:102B48001D890C750D007402780C1218E19002E9C9
:102B5800123FCC8882F583A3A3E4F0A3F009900385
:102B680048E0F8E9C39840D9900348E0FA850AF0AC
:102B7800A4CAA8F0850BF0A428FB1214548A0C8B65
:102B88000DAE0CAF0DEE4F7003022C1C900348E005
:102B9800FC850AF0A4CCA8F0850BF0A428FD7900E8
:102BA80012138E7C0080318D0C750D007403780C27
:102BB8001218E18A828B83122C2188828983E4F09F
:102BC800122C2EA3A3F0A3F00DEDC3950840D8EE68
:102BD800250AFEEF350BFF0C900348E0F8ECC3988C
:102BE80050288C0C750D007402780C1218E19002B4
:102BF800E9122C21E82402500109FAE9FB8A828BA8
:102C080083EEF0A3EFF07D0080BFE5089002EBF0C3
:102C18007900800279130248E8123FD0F922A3A371
:102C28001236D5EA4B22A3124647A3A3A32274F473
:102C38001219647900EAA2E0501F7508FE75098F21
:102C48007808121B7779107C047D007A007B1612B5
:102C5800085A740212190AE9F980007F04021A3628
:102C6800C082C0839002EC123700601C888289837E
:102C7800A3A3E06A7003A3E06B8882898370E8A34A
:102C8800A3A3A31236D180047A007B0002295974C9
:102C9800F212196474FD1218F4EAFEEBFF8518822B
:102CA800851983E4F0A3F074021219407401F0123C
:102CB80036FD7014120A161214549002EF123313D0
:102CC8001236FD7003022E29123413EE2404F50A7D
:102CD800E43FF50B850A82F583E024FE603C24FC82
:102CE800607424FE607E24FE7003022D7924FE7039
:102CF80003022D8624FE7003022D9324FE70030226
:102D08002DA024FE7003022DAD24FC7003022DCEED
:102D180024FE7003022DE6022E22120A169002F1FA
:102D2800EAF0A3EB122E3512048EE96003022E227C
:102D38009002F1121B8E8E828F83A3A3A3A3A312EA
:102D480046658508828509831236D112082A7402DD
:102D580012190A022E22AC18AD19EEFAEFFB12086E
:102D680078022DF1AC18AD19EEFAEFFB12087E804F
:102D780078AC18AD19EEFAEFFB120884806BAC182A
:102D8800AD19EEFAEFFB12088A805EAC18AD19EEA9
:102D9800FAEFFB1208908051AC18AD19EEFAEFFB70
:102DA8001208968044740212194A880C890D780C0E
:102DB800121B77740212195AEEFAEFFB12089C7470
:102DC8000212190A8023AC18AD19EEFAEFFB1208AB
:102DD800A2E9F870167402121940E4F0803CAC18AD
:102DE800AD19EEFAEFFB1208A8E9F8E8602C8E821C
:102DF8008F83A3E064146022850A82850B83E090A8
:102E080002F1F08518828519831236D19002F212E8
:102E18003313E8A3122E35120488EEFAEFFB1208DA
:102E2800007402121940E0F974030248E5F07CF1DD
:102E38007D028508828509831236D52274E8121925
:102E48006474FA1218F47404121940ECF0A3EDF04B
:102E58008A128B13EA2405F50EE43513F50FEA24DC
:102E680002F510E43513F511851082F5831236D179
:102E780012057E8A0A8B0B7508007C037D00790099
:102E88007AF17B0212138EE50E2402F516E4350F53
:102E9800F517740212194A880C890D780C121B77E1
:102EA800850E82850F83A3A3A3A3E0F50C750D00FF
:102EB800780C121B77E50E2405F50CE4350FF50D9B
:102EC800780C121B778516828517831239D812075A
:102ED80064740612190A8A0C8B0DE50C450D7003F3
:102EE8000230658020851882851983E0888289836D
:102EF800F00508851882851983A3E0C0E01230A682
:102F0800D0E0F00508E50A24FBFAE50B34FFFBC323
:102F1800E5089AE49B40030230657E007F00851235
:102F280082851383A3A3A3A3E0F5097809121B7B69
:102F3800E4F514F5157814121B777514EE7515025F
:102F48007814121B779002EF121B8E740912194025
:102F5800121B8EE50A24F9F9AC0CAD0D851082859B
:102F680011831236D11208D2740912190AE96003C2
:102F7800023006850E82850F83A3A3A3A3A3A3A370
:102F8800E0F89002EEE0687075E0F5148E1578149C
:102F9800121B77124662850E82850F83A3A3A3A313
:102FA800A3A3A3A31236D1121388740212190AE933
:102FB800604C9002F2123700703BE4F5147814125A
:102FC8001B777CFF7DFF7907851082851183123678
:102FD800D112083C740212190A1237067017850EAE
:102FE80082850F831247FF74041219401240C012E1
:102FF8003A09023099850C82850D8312309CA818F5
:10300800A919881489157814121B777404121940A9
:10301800121B8E8516828517831233091207707466
:103028000412190A8A0C8B0DEE4F7003022EE2125D
:1030380030A6EE1230B11239BFEF1230B1F8A3E06A
:103048003400F9E50C450D6003022EED8882898372
:1030580074FFF005081230A674FFF00508E5086053
:103068001A1313543F12331912049AE96009900293
:10307800F21236D112140079008016850E82850F5F
:10308800831247FF74041219401240C0123D287978
:103098000A023992A3A3A3A3E0FEA3E0FF22A80893
:1030A8009002F2E0281239BF22F00508089002F2D7
:1030B800E0282274E812196474FA1218F4740212DF
:1030C80019401233137404121940ECF0A3EDF07494
:1030D80002121940E024051239A8E0F50CA3E0F526
:1030E8000D7402121940E02402F510A3E03400F533
:1030F80011851082F5831236D112057E7508007588
:103108000900EA24FCFEEB34FFFF8008050CE50CFF
:103118007002050DA808C3EE98EF94005003023220
:10312800C5A818A919880E890F780E121B7785145F
:1031380082851583A3A3A3A3124669121B77E514FE
:103148002405F50EE43515F50F780E121B77851456
:1031580082851583123307120764740612190A8AC6
:103168000E8B0FEA450F70030232C5EA2404F516E8
:10317800E4350FF517851682F583E0F50CA3E0F525
:103188000D8518828519831246658A828B83A3A3CD
:10319800A3E0F98510828511831236D1120752E90E
:1031A800F50960030232C574021219401239CFF5CD
:1031B800097809121B7BE4F512F5137812121B77B4
:1031C8007512EE7513027812121B779002EF121B1C
:1031D8008E7407121940121B8EEEF9AC0EAD0F85D6
:1031E80010828511831236D11208D2740912190A75
:1031F800E9F50960030232C5E508703FE4F50EF50C
:103208000F780E121B777CFF7DFF79098510828568
:1032180011831236D112083C740212190A1239F5B8
:10322800700D74041219401232FC79110232F990AF
:1032380002EEE024029002F2F080149002F2E0FA2A
:103248009002EEE0790024025001096A497072A8E0
:10325800089002EEE0FAE82AFAE43400FBEE9AEF6E
:103268009B405A851682851783E0C0E09002F312CE
:1032780030ABD0E0F00508851682851783A3E0C03F
:10328800E0089002F31230ABD0E0F005089002EEAF
:10329800124669121B77124662A80812399C12134B
:1032A80076740212190A9002EEE02508F50874FFF8
:1032B800650C700474FF650D6003023114E5086045
:1032C8001F9002F2E0F5F0E508841233191204A009
:1032D800E960099002F31236D112140079008011C6
:1032E800E509700375090A74041219401232FCA921
:1032F80009023992123B37E50CF0A3E50DF022A341
:10330800A31248F4AA0CAB0D22A3A3EAF0A3EBF096
:10331800229002F1F07CF17D0285108285118312E2
:1033280036D52274EC12196474FC1218F4123E3863
:10333800740212195A1236CB12076A8A0C8B0DEADC
:10334800450D7003023403123413A818A919881004
:1033580089117810121B777CFF7DFF790B85088215
:103368008509831236D112083C740212190A1235E3
:1033780009700C850A82850B83123A060234108E76
:10338800828F83A3A3A3A3E0F5127812121B7BE418
:10339800F512F5137812121B777512F1751302786E
:1033A80012121B777810121B777409121940121B1E
:1033B8008E7409121940E0F9AC0CAD0D85088285B0
:1033C80009831236D11208D2740912190AE9FE705B
:1033D800157CF17D028508828509831236D1120495
:1033E800A6E97009802074166E70027E009002F2C1
:1033F8001236D1121400EE7004800B7E01850A8209
:10340800850B83123D25EEF9023D3AEE2402F508BC
:10341800E43FF5092274EC12196474FC1218F4EAFA
:10342800FEEBFF8C0E8D0FEE2405F508E43FF50941
:10343800740212195A8508828509831236D1120737
:103448006A8A0C8B0DEA450D70030234F9EE2402EA
:10345800F50AE43FF50BA818A91988108911781006
:10346800121B777CFF7DFF790D1236CB12083C7456
:103478000212190A123509700B8508828509831210
:103488003A06807A8E828F83A3A3A3A3E0F51278ED
:1034980012121B7B850882850983A3A3121B8E75D4
:1034A80012F17513027812121B777810121B7774B9
:1034B80009121940121B8E7409121940E0F91236CC
:1034C800C71208D2740912190AE9FE700F7CF17D3F
:1034D800021236CB1204ACE97009802074166E70A3
:1034E800027E009002F21236D1121400EE700480AF
:1034F8000B7E01850882850983123D25EEF9023D80
:103508003A123710F510A3E0F511EA45112274E8D4
:1035180012196474FE1218F48A168B178C148D1500
:10352800EA2405F50CE43517F50DEA2402F50EE456
:103538003517F50F850E82F5831236D112057E8A6E
:10354800088B09750B007C037D0079007AF17B02FA
:1035580012138E750A00E50814F5100424FFF50807
:10356800E50934FFF50980549002F1E0FA9002EE83
:10357800E0F8EA28F8E43400F9E50898E5099950F4
:103588000D9002F1E0F8E510C3989002EEF0E0F536
:10359800127513007812121B771246629002F2E03D
:1035A8002AFAA3E03400FB121376740212190A9067
:1035B80002EEE0F89002F1E028F0050A850C828519
:1035C8000D83A3A3123FDC40030236AC9002F1E066
:1035D800C39508E4950940030236ACAE0AEE2EFE08
:1035E800E433FF1236EBAC18AD1912467DE439FB13
:1035F80012076A8A128B13AC12AD13EC4D701B754F
:103608000B011236DB123D299002F2122C286003BE
:10361800121400A90B740202399485168285178347
:10362800A3A3A3A3E0F50B780B121B7BE4F512F51B
:10363800137812121B777512EE7513027812121B8B
:10364800779002EF121B8E7407121940121B8EA975
:1036580010850E82850F831236D11208D274091292
:10366800190AE9F50B709B9002F212370060030209
:103678003570E4F512F5137812121B777CFF7DFF85
:10368800790F850E82850F831236D112083C740299
:1036980012190A12370660030235701236DB123A25
:1036A8000A02361D7CF17D02850E82850F83123653
:1036B800D11204B2E96003023610790002361DAC5B
:1036C8000CAD0D850A82850B831236D522E0FAA34C
:1036D800E0FB221236EBE0FAA3E0F9EA85148285D2
:1036E800158322850C82850D83E02EF8A3E03FF92F
:1036F80088828983229002EF124803E84922123710
:1037080010F8A3E0F9E849229002F2EAF0A3EBF0FE
:103718009002F2E02274E812196474FA1218F47430
:10372800041219401233138C168D177404121940A1
:10373800E02405F50EA3E03400F50F7404121940D7
:10374800E024021239A81236D112057E8A0A8B0BA0
:103758007F007E00A818A919880889097808121B13
:1037680077850E82850F83A3A3A3A3E0F5088E09AE
:103778007808121B77E50E2405F508E4350FF509DE
:103788007808121B77850E82850F83A3A31239D878
:10379800120764740612190A8A0C8B0D80291239D3
:1037A800C9F00F1239C9F00F9002EE123D14121B26
:1037B80077124662EFF812399C12137674021219C6
:1037C8000A9002EEE02FFFE50C450D700302385811
:1037D800851882851983123E4AA3A3A3E0F98514AC
:1037E800828515831236D1120752E9FEE50C2404AE
:1037F800F510E4350DF511EE7050740412194012ED
:1038080039CFF5087808121B7BE4F508F509780824
:10381800121B777508EE7509027808121B7790025B
:10382800EF121B8E7407121940121B8EE50A24FA38
:10383800F9AC0CAD0D8514828515831236D11208AA
:10384800D2740912190AE9FE60391239E5123D28C5
:10385800EF700302397F9002F2E0F5F0EF849002F6
:10386800F1F07CF17D028514828515831236D11220
:1038780004B8E960099002F31236D11214007900F5
:103888000239928F08EF703BE4F512F513781212A3
:103898001B777CFF7DFF791185148285158312368D
:1038A800D112083C740212190A1239F5700912393A
:1038B800E5123A090239929002EEE024049002F2ED
:1038C800F080359002EEE0F89002F2E0FAE8240485
:1038D800FCE43400FDEC6A4D600302385EE50A241E
:1038E800FAFAE50B34FFFBE50828F8E43400F9EAB6
:1038F80098EB99500302385E851082851183E0C0E9
:10390800E09002F3E02FF8A3E034008882F583D03A
:10391800E0F00F851082851183A3E0C0E01239B66C
:10392800D0E0F00F740212194A8808890978081241
:103938001B777402121940121B8E850E82850F8325
:10394800123307120770740412190A8A0C8B0DEAD5
:10395800450D70030237A67402121940E0C0E01248
:1039680039B6D0E0F00F7402121940A3E0C0E0129B
:1039780039B6D0E00237AEEE70027E0A850E828537
:103988000F831239EB123D28EEF9740612190A7FDB
:1039980010021A369002F3E028FAA3E03400FB2262
:1039A800F514A3E03400F515851482F58322123945
:1039B800BA229002F3E02FFAA3E034008A82F5835A
:1039C800221239BA74FF22123B37A3A3A3A3E02221
:1039D8001248F4850E82850F831236D5228510820F
:1039E800851183124803851682851783229002F376
:1039F800EAF0A3EBF09002F3124803E84922123DE3
:103A08002EE8F0A3E9F079112274EA12196474FE21
:103A18001218F48A088B098C128D13EA2405FEE427
:103A28003509FFAC18AD198E828F831236D1120773
:103A38006A8A0C8B0DEE2406F50EE43FF50FEA4575
:103A48000D7003023B09E5082402F50AE43509F57F
:103A58000B8A828B83A3A3A3E0A2E5502885188252
:103A68008519831236D11208C68A108B11EA4511BE
:103A7800602079121236C785108285118312196267
:103A8800E9F50C707F850E82850F83E06009795215
:103A98008011750C0E806D850882850983A3A3A308
:103AA800A3E0F9E4F508F5097808121B778E828FF0
:103AB80083A3A3E0F5087808121B778E828F83A36F
:103AC800A3A3121B8E8E828F831246651236CB12E9
:103AD80008D8740612190AE9F50C7011850E82854A
:103AE8000F83E0702D1236CB1204BE802574166544
:103AF8000C7011750C007418121940123B33E480D5
:103B080010750C011247FB851282851383E8F0A318
:103B1800E9F0850E82850F83E0600479008002A9B0
:103B28000C740212190A7F0E021A36123B3722E071
:103B3800F8A3E0F58388822274EC12196474F712F2
:103B480018F48A0A8B0B8C108D11EA2405FEE435D3
:103B58000BFF750C00AC18AD198E828F831236D10D
:103B680012076A8A088B09EA45097003023CFFE5D7
:103B78000A2402F50A5002050B8A828B83A3A3A3A9
:103B8800E0A2E5502F8518828519831236D11208D4
:103B9800C68A0C8B0DEA450D604F7912AC08AD0949
:103BA8001236CB850C82850D83121962E9F50C60FB
:103BB80003023D02850A82850B83E0F508A3E0F540
:103BC80009AA08FB1208BAEA4B70197AFF7BFF12A0
:103BD80008BAEA4B7003023CF58A828B83E508F049
:103BE800A3E509F07508008008750C0E023D020572
:103BF800089002EBE0F8E508C3984003023CF5851D
:103C0800080E750F007403780E1218E18A828B83F0
:103C1800A3A3E0250EF8A3E0350F1240C970D08E9B
:103C2800828F83123D1D1233138E828F83A3A312BA
:103C38003D1D123311EE2404F508E43FF50985080B
:103C480082F583E088828983A3A3A3A3F0A3E4F089
:103C5800EE2405F50EE43FF50F850E82F583123D3F
:103C68001DA3A3A3A31233117512077513007812AD
:103C7800121B77EEFCEFFD740412195212137674BE
:103C88000212190AE4F5127812121B778508828548
:103C98000983E0FC7D0079171236CB12083C7402C8
:103CA80012190A74071219401233137407121940B3
:103CB800E0FA4B603D850882850983123D14121B8A
:103CC80077850E82850F8312466512137674021269
:103CD800190A740212195A1236CB1204C4E9602662
:103CE80074071219401236D11214008019750C0984
:103CF8008008750C118003750C011247FB85108232
:103D0800851183123D28A90C74098028E0F50875EF
:103D180009007808221236D58882898322123D2E1E
:103D2800E8F0A3E9F022E0F8A3E0F9850E82850F18
:103D38008322740412190A7F0C021A3674EC1219C1
:103D480064123E38751000EE2402F50CE43FF50DC0
:103D5800850C82F5831236D11208BA8A088B09EAD3
:103D680045097003023E1C850A82850B83E06401C5
:103D78006003023E11AC08AD09AA0AAB0B1208AEEB
:103D8800E9606E85088285098312309EEE2406F567
:103D98000AE43FF50B8E828F83A3A3121B8E8E82BB
:103DA8008F83A3A3A3A3121B8E850A82850B83127C
:103DB8001B8E79188E828F83123E4A1236D11208D2
:103DC800D8740612190AE9F8741668700B850A8205
:103DD800850B83E4F0A38014E860128E828F83122F
:103DE80036D1850E82850F83EAF0A3EBF088108028
:103DF80018780E121B77AC08AD09EEFAEFFB120823
:103E0800B4740212190AE9F510AA08AB091208C01D
:103E1800E510700E850C82850D831236D11204CA06
:103E28008009741665107003751000A910023D3FD3
:103E3800EAFEEBFF8C0E8D0FEE2405F50AE43FF544
:103E48000B221248F4850C82850D832274EA12191C
:103E5800647508007509007E007F00750A00EC246F
:103E680002F510E43DF5118035EC65087003ED6549
:103E7800096003023F0988828983A3A3E06A70036B
:103E8800A3E06B707C88828983A3A3A3A31247FF56
:103E9800EE28FEEF39FFEA28FAEB39FB050A123F54
:103EA800D9503A850A0C750D007403780C1218E184
:103EB800851082851183123FCC1240C9601FE50826
:103EC800450970A58C088D098882898312309C88E1
:103ED800828983A3A3E02EFAA3E03F80BEE50AC34C
:103EE80094025003023FC7750800750900EE4F6041
:103EF80010EEFAEFFB1213FA8A0E8B0FEA450F70D9
:103F0800057900023FC9750B00023F9C850B0C75B3
:103F18000D007403780C1218E1851082851183E076
:103F2800250CF50CA3E0350DF50DE50C2406F5146C
:103F3800E4350DF515851482F5831240CE6042E50F
:103F48000C2404F512E4350DF513851282F583125D
:103F58001B8EE50E2508FAE50F3509FB121376745A
:103F68000212190A851282851383E02508F508A331
:103F7800E03509F5098514828515831236D11214A6
:103F880000E50B600D7C087D007900AA0CAB0D12D2
:103F9800138E050BE50BC3950A5003023F148510D9
:103FA800828511831247FF88828983A3A3A3A3A3D1
:103FB800A3E50EF0A3E50F122C2FEEF0A3EFF07996
:103FC80001023B2E123FD022E0250CF8A3E0350D6C
:103FD800229002EBE0F8E50AC3982274F012196403
:103FE8008A0E8B0F8C0A8D0B750D00750C00805096
:103FF8007916EE2406F508E43FF5098E828F83A32F
:10400800A3121B8E8E828F83A3A3A3A3121B8E855C
:104018000882850983121B8E850E82850F83A3A3D0
:104028001236D11208D8740612190AE9F50D741659
:10403800650D706C850882850983E4F0A3F0050C92
:104048009002EBE0F8E50CC3985066AA0C8A087554
:104058000900740378081218E1850A82850B83A386
:10406800A3124118E8FEE9FF8E828F831240CE60CA
:1040780040EA2401F508E43400F5099002EBE06514
:10408800087002E509601488828983A3A3A3A3A307
:10409800A3A3A31237006003023FF87918023FFA7E
:1040A800E9609B1247FB74101219401240C0123D80
:1040B80028A90D7F08021A36E0FAA3E0F5838A8260
:1040C80022F9888289831248F4EC4D2274F6121979
:1040D800647C0080010C900348E0F8ECC398501E03
:1040E8008C08750900740278081218E112410DE075
:1040F8006A7003A3E06B70DDE8FAE9FB80047A00DC
:104108007B000241B09002E912411888828983221B
:10411800E02508F8A3E03509F92274F21219648A37
:10412800088B09750A0080278E828F83A3A3A3A317
:10413800122C2660031214007C087D007900EEFA28
:10414800EFFB12138E8E828F83E4F0A3F0050A1220
:104158003FD95027850A0C750D007403780C121886
:10416800E1850882850983A3A3E0250CFEA3E03539
:104178000DFF8E828F8312370070AD850882850906
:104188008374FFF0A3F00248E874F6121964120869
:104198006C8A828B83E582458370067A007B008077
:1041A80007A3A3A3A31236D17F02021A3674F4120E
:1041B800196489088C828D83E06402703C12479EE2
:1041C800FEA3E0F9EEF87402687003742969702997
:1041D800750A02750B00780A121B777410121940C1
:1041E800121B8E7410121940121B8EA90812124449
:1041F800740612190AE9F980027901022C6374E83D
:1042080012196474FB1218F4E9851882851983F071
:104218008A168B17ECFEEDFF7510008E828F83A334
:10422800A3A3E0A2E4502D741D1219401236D11236
:1042380008C68A828B83E5824583700302463D79EE
:104248000AEEFCEFFDAA16AB17121962E9F5106029
:1042580003024640741F121940E0F508A3E0F5096F
:104268007421121940E0F50AA3E0F50B7423121922
:1042780040E0F50EA3E0F50F8E828F83E0640260C4
:10428800030245DEA31247FF850882850983A385BB
:104298008212858313EE2406F50CE43FF50D88821F
:1042A800898312467DF514E439F5157814121C013A
:1042B800010000280128E04207000228A54303283E
:1042C80013430029D4440129FF440229A0440329A7
:1042D800D44404297845DE45E50E450F60030245C0
:1042E800D9850C82850D831247FFE8FAE9FB8A829B
:1042F8008B83E0850A82850B83124688121B778A96
:10430800828B83A3E0FCA3E0024562E50E450F60C3
:10431800030245D9850A82850B837401F01246721F
:10432800850882850983F07C007D008E828F83A3B7
:10433800A3A3A3E02401FAA3E03400FB12076AEA6E
:104348004B60408A828B83E02402F8850A82850BC1
:1043580083E028F0EA2404F8E43BF988828983E0C2
:10436800851282851383124696124688121B778A15
:10437800828B83A3124665E5082403FAE43509FB1A
:10438800024567850A82850B83E02404F07C047D5E
:10439800007900AA12AB1312138E024640E50E45AF
:1043A8000F60030245D9124672FEA3E0FF850A8218
:1043B800850B837404F0EE850882850983F0EF8508
:1043C8001282851383F0740312195AEEFAEFFB1266
:1043D800076A8A0C8B0DEA450D70030244838A82B2
:1043E8008B83A3A312309C740112194A880E890F7B
:1043F800780E121B777405121940121B8E7CFF7DF4
:10440800FF120770740412190A8B0FEA450F7033F4
:10441800850C82850D83124669121B77850C82856F
:104428000D83A3121B8E7C027D007AF27B9012050D
:104438006C740412190AE9700A740112194074FFA5
:10444800F0A3F08E828F83E064027039750C0275D8
:104458000D00780C121B778E828F83A3124665E5B8
:10446800082404FAE43509FB121376740212190AB7
:10447800850A82850B83E0240280097401121940A1
:10448800EEF0A3EFF07401121940124657740112AE
:10449800194012464E0245D3E50E450F600302450A
:1044A800D9850C82850D831248EDAA16AB17121216
:1044B8004A850A82850B837402F085088285098300
:1044C800EAF0851282851383EB0245D6E50E450F87
:1044D80060030245D9124672F8A3E0F9850A82857D
:1044E8000B837402F0E8850882850983F0E9851258
:1044F800828513830245D6850C82850D831236D1B9
:10450800121370EAFAF8C3950EE4950F405CE8655B
:104518000E450F70047A008021851882851983E082
:10452800FCE50E2CFCE4350FFDC3EC98ED9400502F
:1045380003E08005E50ECAC39AFAEA850A82850B6C
:1045480083F08A0A750B00780A121B77850C82851E
:104558000D83E0250EFCA3E0350FFDAA08AB091278
:104568001376740212190A02464075100702464073
:10457800E50E450F705B850C82850D831247FF851C
:104588000A82850B837407F08882898312464F124A
:104598004647E0851282851383F0E82402FAE4395D
:1045A800FB8A828B831246578A828B8312464EA3DC
:1045B800A3122C2E12465CF0E82405F85001098855
:1045C80082898312465CA3124696A3A3A3A3F08014
:1045D8006775100B8062741D1219401236D11208CB
:1045E8006C8A828B83E5824583604A1247FF880C78
:1045F800890DE8450D603E7425121940E0F51078E4
:1046080010121B7B780E121B77780A121B7778081A
:10461800121B777407121940E0F9EEFCEFFDAA1699
:10462800AB17850C82850D83121962740712190A5B
:10463800E9F510800375100EA9107405023994F07D
:1046480088828983A322A3E08508828509832212B0
:10465800469DF02212469DA3A3229002EF1248F431
:1046680022E0F50E750F00780E22850C82850D83E9
:10467800123B37E022E0FAA3E0F8E4C8F9EA28227E
:10468800F08A828B83E0F50A750B00780A221246BD
:104698004712469D22E0850882850983A3A32274D8
:1046A800EE12196474FE1218F48A088B09ECFEEDF8
:1046B800FF890AAC18AD19EEFAEFFB12076A8A0CEB
:1046C8008B0DEA450D700302478F85188285198383
:1046D8001236D112086C8A828B83E5824583700377
:1046E80002478AA3A31247FF880E890FE8450F7077
:1046F8000302478A7414121940E0F510A3E0F5117B
:10470800E50AF50B780B121B7B7419121940121B62
:104718008E7810121B77741B121940E0F9AC0CAD9F
:104728000DAA08AB09850E82850F831219627405DC
:1047380012190AE9F50B705274FE650A604C850C73
:1047480082850D83E06402704112479EFAA3E0F966
:10475800EAF87402687003742969702E85108285DE
:10476800118312467DF50CE439F50D780C121B7790
:10477800EEFCEFFDAA08AB091208F0740212190A40
:104788008008750B0E8003750B01A90B74021219B2
:104798000A7F0A021A36A312480388828983E02214
:1047A80074F612196474FE1218F4740C121940127B
:1047B80047FFE8851882851983F07401121940E9CA
:1047C800F0E4F508F5097808121B777508027808EF
:1047D800121B77740412194A880889097808121B71
:1047E8007779FE1208D8740612190A740212190A87
:1047F8000241B08E828F8312480322E0F8A3E0F9C9
:104808002274F7121964EAFEEBFF89089003061276
:10481800466512124AEA5402600BA908EEFAEFFB49
:1048280012075E800279017F01021A3674F21219AA
:104838006474FE1218F4EAFEEBFF890A7401650A33
:1048480060147402650A60030248E37901120AFAE7
:10485800E960030248E3EEFAEFFB1208BAEA4B609C
:10486800031208C0A818A919880889097808121B12
:10487800777508027509007808121B777508EC75BA
:1048880009907808121B777CFF7DFF7A017B001264
:104898000764740612190A8038850882850983A37B
:1048A800A3A3A3A3A31248EDEEFAEFFB121232E47E
:1048B800F50CF50D780C121B777402121940121BB7
:1048C8008E7CFF7DFFAA08AB0912077074041219C9
:1048D8000A8A088B09E508450970BE740212190A8C
:1048E8007F06021A36123B371248F422E0FCA3E096
:1048F800FD2274F41219648A088B09ECFEEDFF900E
:1049080015FEE0F4604B7A097B001213A0EA4B60B5
:10491800408A828B8374B1F0A3E412495CF08A82E6
:104928008B83A3A3E508F0A3E50912495CA3EEF085
:10493800A3EFF0740C1219401247FF8A828B83A3ED
:10494800A3A3A3A3A3A3123D289015FEE0F9121375
:10495800AC022C63F08A828B83A3A3A3A322C08218
:10496800C0839061907404F0A37448F0A3E4F090BD
:1049780061807440F09061BC7407F090618774693D
:10498800F09061B67416F07900120C207902120CBE
:1049980026902948E493F46006E493F9120BFC7915
:1049A80005120F38024D48C082C083E9540FF990B0
:1049B8006185E0696012E5C654B84441F5C6E59ED4
:1049C8005447644170F8E9F053C6B8E59E544770FF
:1049D800FA024D4874F7121964AEA853A87E120C57
:1049E80008C2BA539AFEC289759B00C2C2120C0E45
:1049F80075A91175B905120C14D2BA439A017480BD
:104A08005E42A802518DC082C083906181E4F0A308
:104A1800024D4575E90075910075BF00020132C06D
:104A280082C083906181E4F0A374C0F0A3E4024DD6
:104A380047C082C08374F81218F4900378125D5846
:104A48007003024B0C900378E0544060177908AA71
:104A580018AB19120D28AA18AB1912095C90037823
:104A6800E054BFF0E054806010790C7A417B051265
:104A78000D28900378E0547FF0E0A2E0500F790011
:104A8800120C20120962900378E054FEF0E0540200
:104A9800600F7901120C20120962900378E054FD2E
:104AA800F0E05404600F7900120C26120968900394
:104AB80078E054FBF0E05408600F7901120C2612DC
:104AC8000968900378E054F7F0E05410600F790219
:104AD800120C26120968900378E054EFF0E0542095
:104AE800600F7903120C26120968900378E054DFEE
:104AF800F0A3E05401600D120C3212096E90037994
:104B0800E054FEF0740812190A024D48C082C083AE
:104B1800E9600514602A804F90619A7433F0A37499
:104B280055F09061A0743AF090051BE0640170099B
:104B3800C29190037A7467802D90037A74618026FD
:104B480090619A743FF0A3745AF09061A0747FF05A
:104B580090051BE064017009D29190037A7471800A
:104B68000590037A746AF0024D48C082C083E960F8
:104B78000B14600D14601714600C802090294C8071
:104B88001590294D801090051BE06401700590294F
:104B98004E800390294FE493906186F0024D48744B
:104BA800EE12196474F41218F4909035AC18AD191B
:104BB800740412180790294C93F46003024CBF90B8
:104BC8007808E0C394025003024CA3908FE6740463
:104BD80012195A74081218077F00750CFF750DFF1B
:104BE800750EFF7E00EFFC800F74086E606D74090F
:104BF8006E6068740A6E60638E08750900740278C6
:104C0800081218E1124CC91217B8A909E50AC9F81F
:104C18008810741878081216F9E5104508FAE9FBA7
:104C2800EC2CF8E433F97404121940E58228F58273
:104C3800E58339124CD8C3E89AE99B4008E8C39A3F
:104C4800F8E99B8006EAC398F8EB99F9C3E8950C54
:104C5800E9950D5006880C890D8E0E0EEEC394133F
:104C6800408774FF650C700474FF650D6023850E22
:104C780008740278081218E1124CC91217B885187E
:104C880082851983E5822CF582E43583F583E5086E
:104C9800F00FEFC394045003024BE2750801750945
:104CA800007808121B77740212195A7A537B0A1279
:104CB800129E740212190A740C12190A7F0A021A37
:104CC8003674482508F58274783509F58378082202
:104CD800F583125D7322C082C083906186E0F890EC
:104CE800294FE49368700990294EE493906186F007
:104CF8009061AE7468F0A3746AF090624574FBF03A
:104D0800A304F053F4FD43FE0290051B7401F090D8
:104D180061A0E0643A7004790080027901120C20E5
:104D2800024D48C082C0839004CDE06401700A90AF
:104D380004D2E06004790C800279008003F0A3F0CB
:104D4800D083D082020132C082C08375E1F1900421
:104D5800D0E0605014600914605414604C1470530F
:104D6800120C449004BFE0F97AC07B04120EBA908A
:104D780090551217D6120EF09090491217D6120EAF
:104D8800C69004D1E0F9120ED27901120F2C124EFE
:104D980067241AF582E438F583745CF0A3740CF088
:104DA8007900809C120C4A80BA120C5080B5120C03
:104DB8005680B0791280EB74F412196475D90D908D
:104DC80004C6E0A2E0E4331313F8124E5D48440130
:104DD800F5D97A00124ED840FB7A00EAF874C71267
:104DE80057B13404124EE240F275E1959004C6E0E2
:104DF800F97AC77B04120EC090162274D2F0A374FD
:104E08000B124EE8124F32124F291250529004D012
:104E1800E064019004BD700B124E701217B89090A8
:104E28008D8009124E701217B890904D780812179D
:104E3800449090457808121792124E67124F2078C6
:104E4800081217C7124E67124F177413F0900376A3
:104E58007402F0801E9004BFE0C4333354C0229023
:104E680004BDE0F8A3E0C822125C037808227404A9
:104E780012190A7F04021A3674F7121964125019AB
:104E88008CD97A00124ED840FB7A008006124F90D7
:104E98001250DAEAC39B40F512500B124ED840FB71
:104EA8007A0080081257AD34041250DAEAC39B40E6
:104EB800F375E19590162274DEF0A3740B124EE898
:104EC800124EF27412F09003767401F0FF021A3653
:104ED800EAF874C028F582E434041250F6940622E5
:104EE80012503B74D8F0A3740B22124F32124F2980
:104EF8001250569004BDE0F8A3E0C8124F2074FF8A
:104F08001257A59004BDE0F8A3E0C8124F17222459
:104F180014F582E438F58322240EF582E438F5830B
:104F280022F0A374F0F0A3740B22124F3622124F12
:104F38003A22F0A37494F0A3740D2274F712196442
:104F4800124F85124E5D4402F5D97A00124ED840B0
:104F5800FB7A008006124F901250DAEAC39B40F5A4
:104F680075E195901622124F9BF0A3124F9B124E9B
:104F7800F57414F09003767404F002518D9004D601
:104F8800E0FB74072BF5D922EAF874D728F582E4F8
:104F980034042274EA124FA8124FA8F0A3740B220B
:104FA800F0A3740BF0A374EA2274F7121964125078
:104FB8001974064CF5D97A00124ED840FB7A008055
:104FC80006124F901250DAEAC39B40F512500B12AA
:104FD8004ED840FB7A0080081257AD34041250DADC
:104FE800EAC39B40F375E19590162274E4F0A3742C
:104FF8000B125031124EF27415F09003767403F0D0
:1050080002518D9004F6124F8874044CF5D97A0039
:1050180022124F859004BFE0C4333354C0FC22EA07
:10502800F8EE28F8E43FF9E82212503B7494F0A314
:10503800740D2212503F2212504C7494F0A3740D38
:1050480012504C22124F3AF0A32212505622F090DE
:1050580016307494F0A3740D12503F7494F0A37436
:105068000D124F36F022C082C083124E672406F517
:1050780082E438F583E4024D4574F712196490030D
:10508800A412598A74A628F8740339F9E82405FA91
:10509800E439125C17A3A3A3A3A3A3A3A3A3ECF0CF
:1050A800A3ED1254B3A3A3A3A3A3A3A3E024FFF8DF
:1050B800A3E034FFF98A828B83E8F0A3E9F0025178
:1050C8008DEAFEEBFF9061D0E0F87480C39822125D
:1050D80050E1F583E0F5D90A22EAF8742128F5822F
:1050E800E43405221250F2940422F582E439F5835F
:1050F800E0F5D90AEAC32274F7121964EAFEEBFF55
:105108009061D0E0706F75D90E75D90375D9047A9E
:1051180000125027248C12518140F67A0012502731
:1051280024841250EC40F675E1957908EE248CFA47
:10513800E43FFB120D1C7904EE2484FAE43FFB12D1
:105148000D1C7C00ECF8C3E498FA95E0FBEE2AFA13
:10515800EF3BFBEA248B12580EC0E012502924AB17
:10516800F582E439F583D0E0F00CECC3940840D420
:105178001252A580027900800C1250F2940822A2E3
:10518800E092AF79007F01021A36C082C08375D9D8
:105198000275D90375D90575E195EA246FF582E49E
:1051A8003B124CD8EA2471F582E43B1252B8024D06
:1051B8004874F6121964EAFEEBFF90052174061292
:1051C8005217121B777C017903120D887402121989
:1051D8000A75D90675D9037A0012520E40FB75E19B
:1051E80095900376E064087018EE246FF582E43F2A
:1051F800124CD8EE2471F582E43FF583E8F0A3E978
:10520800F079010254841250E11250F6940522F00C
:1052180075082175090578082274F6121964EAFEE2
:10522800EBFF9061D0E0703D7A01900521740BF09E
:10523800900376E06407701B7508217509057808E6
:10524800121B777C017903EEFA120D887402121989
:105258000A7A0512549780031254A2EBC39A40F8B5
:105268001252A28002790002548474F7121964EA77
:10527800FEEBFF75D90375D90375D90DEE24DE123F
:10528800529AF5D975E1957904120EF61252A502D3
:10529800518DF582E43FF583E02275E195EE246FA8
:1052A800F582E43FF583125D73EE2471F582E43FE5
:1052B800F583E8F0A3E9F07901227F03021A367436
:1052C800F51219641253516004780480027800E8DA
:1052D800240BF8EAC3984055750A0990052174090A
:1052E800F07908125339120D16850882850983E072
:1052F800601E7508217509057808121B777C0979E5
:1053080003EEFAEFFB120D88740212190A750A0DE2
:1053180012534580031250D7EAC3950A40F775E146
:10532800957904120EF61254897901800279008069
:1053380089EE24E3FCE43FFD7A227B0522740125F3
:105348000AF5D975D9037A00221253FBF8E43FF91C
:10535800880889098882F583E02274F21219641298
:1053680053EB6004780480027800E82408F8EAC364
:10537800984069750A06900521740CF0900393E033
:10538800900522F079027C947D037A237B05120D27
:105398001679027C967D03120D168508828509838D
:1053A800E0601E7508217509057808121B777C06D0
:1053B8007903EEFAEFFB120D88740212190A750AC6
:1053C8000A12534580031250D7EAC3950A40F7756D
:1053D800E1957904120EF61252A5800279007F0633
:1053E800021A361253FBF508E43FF509850882F5E1
:1053F80083E022EAFEEBFF9061D0E0F87480C39866
:10540800FAEE24832274F61219641250C9FCEE24B1
:1054180083F8E43FF988828983E060047A04800293
:105428007A00EA2404FAECC39A404F7A02900521E4
:10543800EAF0EE24F5F582E43F1254ADE0601B7506
:1054480008217509057808121B777C027903EEFAA2
:10545800120D88740212190A7A06125497800312E0
:1054680054A2EBC39A40F875E19512548979041255
:105478000EF6EE240D1252A8800279007F02021A5D
:1054880036EE241DF582E43FF583E4F0A3F02274A0
:10549800012AF5D975D9037B0022EB1250E2F58376
:1054A800E0F5D90B22F583E0900522F08882898304
:1054B8002274F61219641250CDFEEA2483F8E43BF4
:1054C800F988828983E060047C0480027C00EC24F3
:1054D80004FCEEC39C40477C029005217407F0EA67
:1054E80024F6F582E43B1254ADE060177508217587
:1054F80009057808121B777903120D8874021219AE
:105508000A7C0674012CF5D975D9037A0080031238
:1055180050D7EAC39C40F875E1957901800279007B
:1055280002548474F71219648908A2AFE433FFC2E5
:10553800AF7E001255CA80010E8C828D83E0F8EE92
:10554800C398500CEEF812556BE0650870EA800BB2
:1055580012556BE508125D79E004F0EFA2E092AF16
:1055680002518DEA28F8E43BF912557522E8246ABD
:10557800F582E439F5832274F7121964A2AFE43393
:10558800FFC2AF1255CA8C828D83E014F07E008072
:1055980016EE1255D6246BF582E439F583E0C0E0A7
:1055A800125575D0E0F00E8C828D83E0F8EEC3982A
:1055B80040DFEA246DF582E43BF58374FF1256025E
:1055C8008099EA246EF8E43BF9E8FCE9FD22F8EA60
:1055D80028F8E43BF9E822C082C083A8A8C2AFEA51
:1055E800246AF582E43BF583E9125602E8A2E7E46F
:1055F80033FAE8A2E792AF024D48F0EA2469F5824F
:10560800E43BF583E4F02274F21219648C828D83F2
:10561800A3A3A3A3E0541FF0EA2436125AB28E8241
:105628008F83E4F0750C00A80CEC28F508E43DF530
:1056380009850882F583E0C0E01255D7245DF5821C
:10564800E439F583D0E0F0750D008508828509837B
:10565800E0F50A750B00E50D780A1218C2E50AA2F2
:10566800E05025E50C33333354F8250DC0E08E8225
:105678008F83E01255D62438F582E439F583D0E0DB
:10568800F08E828F83E004F0050DE50DC394084089
:10569800B9050CE50CC39405408D0253E674F71266
:1056A80019649003A2E06401700302579D7A009088
:1056B80003A8E0600302579D7401F0A3E4F0A3F08F
:1056C80090040804F090040DF09003AB1257A490D6
:1056D80003B504F09003DBE4F09003BE1257B6A3C1
:1056E800F0900425F0900419F0900428F090040E2E
:1056F8007480F0A3E4F0900414F09004911257C65B
:1057080090049AF0900429F09004791257C6A3F0F7
:10571800A3F0900485F0900487F0900483F090043F
:105728009D1257C69004B0F09004AA1257B674FFA1
:105738009004107804F0A3D8FCEAF874B11257B1B9
:105748003404F583E0C0E074031257B13404F583E0
:10575800D0E0F00AEAC3940540DF7A00EAF8748AD8
:105768001257B13403F583E0C0E074891257B1349D
:1057780004F583D0E0F00AEAC3940840DF9003A25E
:10578800E004F0640170089003AAE09003A4F07AA2
:10579800A67B0380047A007B0002518DE4F0A3F01D
:1057A800A3F0A3F022EAF874F728F582E42212574E
:1057B800BA22F0A3F0A3F0A3F0A3F0A3F0221257AB
:1057C800BAA3F0A3F022C082C083EA240312580EC1
:1057D8006008E4F09003A3E014F09003A2E014F052
:1057E80070069003A474FFF08A828B83A3A3E4F06D
:1057F8009004B6E0700D9003A3E064017005790091
:10580800120ED8024D48F582E43BF583E022C082AF
:10581800C0839003A9E4F09003A8F09003A2F0A33A
:10582800F0A374FFF075E1F1024D48C082C083789F
:105838000079009003A9E0600478A679038882893A
:1058480083A3A3A3A3E0F9024D48C082C08378FFD5
:1058580079FF9003A9E06013900419E064017005D2
:1058680090041F80039003D4124CDAC3EA98EB9992
:105878004004E8FAE9FB024D4874F01219648C08F8
:105888008D09890F9003A3E0F50EEA2AF50AEB3398
:10589800850A0CF50DE9C3950E50117AFF7BFF12AE
:1058A8000CCE8A0A8B0BAE0AAF0B8010E96009A3F5
:1058B80012598A12597A8004AE0CAF0D8E0A8F0BDA
:1058C8007403780A1218D2A80EC3E50A98E50B9457
:1058D800005003025966850C0A850D0BE50825E082
:1058E800F508E50933F509AC0AAD0B8007EC24028D
:1058F800FCE43DFDC3E5089CE5099D404FC3EC9ED3
:10590800ED9F402FECF8EDF9EEFAEFFB1218698ADB
:105918000C8B0DA80CA90DE8496006EEFAEFFB8088
:10592800047A007B00EC98F8ED99F9E82AFCE93B49
:10593800FD8019E50FC3950E5012EEF8EFF9ECFA59
:10594800EDFB1218698B0DEA450D70A1C3EC950AA1
:10595800ED950B4009C3E5089CE5099D50067AFFC3
:105968007BFF8009ECFAEDC313FBEA13FA7F080208
:105978001A3674D428F582740339F583E0FEA3E05F
:10598800FF22E0F875F00BA4C8AAF02AF92274F4F3
:1059980012196474FC1218F4EAFEEBFFEE2463F5A6
:1059A80008E43FF5098016AA08AB09120D0A12147B
:1059B800009004B7E004F09004B8E004F085088291
:1059C800850983125D5870DF9004B8E060358E82D7
:1059D8008F83A3A3A3A3E0851882851983F0A3E48A
:1059E800F09004B8E0F87402121940E8F0A3E4F06B
:1059F800740212195AAA18AB1979011209C890042D
:105A0800B8E4F0EEFAEFFB120CBCEEFAEFFB120D65
:105A1800BE024E7674F7121964EAFEEBFF8E828F8F
:105A280083A3A3A3A3E0FA7B0012099EEEFAEFFB7F
:105A3800120CDA120DA002518DC082C083E49003CB
:105A48008A7808F0A3D8FC90038A04024D4774F6BC
:105A5800121964EA240D125AB2EC2403F8E43DF951
:105A680088088909EC2407F8E43DF9E8FCE9FD8C8D
:105A7800828D83124CDA850882850983E0FAA3E0D7
:105A8800FB1218698E828F83E8F0A3E9125D6C859A
:105A98000882850983E0FAA3E0FB1218698B09EAFA
:105AA80045096003125ABB025484F8E43BF9E8FE46
:105AB800E9FF228E828F83E02401F0A3E03400F016
:105AC8002274F6121964EA242E12580EFCA3E0FD83
:105AD800EA246F125AB2780079FAECFAEDFB121840
:105AE800698E828F83E8F0A3E9F0780079FAECFAFE
:105AF800EDFB1218698B09EA45096003125ABB02CB
:105B0800548474F4121964EAFEEBFF120E7E8A08BC
:105B18008B098C0A8D0B9090897808121744909005
:105B28004578081217927808121B738E828F831299
