:020000040000FA
:0600000002011A0222C1F8
:03002B00022A03A3
:030033000229E5BA
:030053000223374E
:03006B000229BCAB
:10008300022117E5C754F84401F5C779012200009E
:100093000080FB120086B90003020104E479217891
:1000A30008B800028004F709D8FCE479297802B87B
:1000B30000028004F709D8FCE490028178BB79132D
:1000C3008002F0A3D8FCD9FA781A90014A7A01BACF
:1000D30000028007E493A3F608DAF97A3B7B1590D4
:1000E300014B783879048015E493A3AD82AE838AFB
:1000F300828B83F0A3AA82AB838D828E83D8E9D9C6
:10010300E77582A37583FF740112012C75829175C3
:100113008300740012012C75D00075813F7518811E
:10012300751902759F00020096C09FF59FE473D076
:100133009F22D083D082C09FE493C0E0740193C018
:10014300E0740293F59F2201FF0000B40000280031
:100153002800283075A000A000A000A0000008001F
:1001630008E001F000100010001000100010001053
:100173000050005000500010001000D00700000095
:100183000000000F0001000500307507001000019A
:100193000081FF00000000FFFFFFA406C206AA06BD
:1001A300E606FF02020208025000A0000000E80376
:1001B30002F182010000D38202ED82010000961554
:1001C30002E782010000BF0202ED820100009715E1
:1001D30002E582010000D50202ED820100009815BC
:1001E30002E182010000D70202ED820100009915AD
:1001F30002DF82080000D80202ED820100009A1596
:1002030002DD820100009B15FF0100FF2002F18245
:10021300010000E18102ED82010000FF1502DB8293
:10022300000000000002E9820300000603170052E9
:100233000D520D520D520D520D520D520D520D52C3
:100243000D520D520D520D520D101022100A1002B4
:100253000202020202020202010D0000001001026A
:10026300F182010000CD8202ED82010000421602FC
:100273001383010000400702ED82010000431602D0
:1002830005830100005D8102ED8201000044160236
:1002930003830100004F8102ED8201000045160235
:1002A3000183010000DF8002ED8201000046160297
:1002B300FF82010000A98002ED82010000471602BF
:1002C300FB82010000978002ED82010000481602C4
:1002D300F982010000BB8002ED8201000049160291
:1002E300F782010000418102ED820100004A1602FB
:1002F300F5820100004B1601E8030577100AFFFFA2
:10030300FF00013075030201060000000000000039
:1003130000000000000000000000000000000000DA
:100323000000000000FFFF0600800CE8030B0945F6
:1003330052435F44657669636505125000200302EA
:100343000A000201060302F0FF53696D706C652019
:10035300424C45205065726970686572616CF01497
:100363000000F6140A43686172616374657269730D
:10037300746963203100024368617261637465725A
:10038300697374696320320008436861726163743E
:100393006572697374696320330010436861726125
:1003A300637465726973746963203400024368611E
:1003B300726163746572697374696320350002F155
:1003C30082010000D08202ED82010000571702096A
:1003D30083030000241502EB82010000581702ED8D
:1003E300820100006917020B83010000251502EB4F
:1003F300820100006A1702ED820100007B17020DE3
:1004030083020000261502EB820100007C1702ED37
:10041300820100008D17020F83000000271502E9F7
:1004230082030000311502EB820100008E1702EDFA
:10043300820100009F17021183040000331502EBB1
:1004430082010000A017104B657920507265737309
:100453002053746174650002F182010000D68202A8
:10046300ED82010000391802E38200000038150212
:10047300E982030000391502EB820100003A1812E9
:100483000135E18703120135F4870312013525880D
:10049300031201355F8803120135B8880312013551
:1004A300FF88031201354789031201357689031248
:1004B3000135A58903120135DC8903120135238A2D
:1004C300031201353C8A03120135918A0312013567
:1004D300AA8A03120135F88A03120135328B0312FB
:1004E300013520A90212013523AA021201355CAAA3
:1004F300021201357FAA0212013591AA02120135B7
:10050300CFAA021201354BAB0212013513AC021212
:10051300013535AC02120135CCAC021201351EADEA
:10052300021201354FAD021201355CAD02120135E5
:10053300C6AD021201351DAE0212013520AE021204
:10054300013559AE021201355CAE0212013566AEB9
:1005530002120135BAAE02120135FBAE02120135A9
:100563002EAF021201356BAF021201356DB00212CC
:10057300013511B1021201357AB102120135B8B158
:100583000212013500800312013528800312013560
:100593005580031201358D8003120135EB80031260
:1005A30001353781031201359E8103120135DE8146
:1005B300031201351B8203120135498203120135EF
:1005C300F38203120135FD82031201350A830312FC
:1005D30001353D83031201354983031201356183DC
:1005E300031201356B83031201355BB4031201352A
:1005F30069B40312013581B40312013598B40312AF
:100603000135D1A7011201357BA8011201358EA94D
:10061300011201350AAA0112013528AB0112013575
:1006230064AB01120135FFAB01120135E3AC0112DA
:100633000135AFAD011201353DAF01120135AEAF4A
:100643000112013568B0011201355AB101120135A9
:100653009AB1011201354EB20112013580B2011275
:10066300013576B401120135B8B401120135D6B49F
:10067300011201353CB5011201350BB601120135EA
:10068300CFB601120135EEB8011201358BC9021242
:10069300013575CA0212013520CB0212013571CB27
:1006A3000212013521CC0212013592CC021201351E
:1006B30077CD02120135ABCD02120135A4CE021261
:1006C3000135E1CE02120135BDCF02120135FCCF57
:1006D3000212013518D0021201352CA5031201357F
:1006E300B0A503120135DBA503120135F5A60312EC
:1006F3000135F983031201350F84031201352D846B
:10070300031201353E850312013548850312013575
:100713007386031201356A8703120135D7870312E3
:10072300013579D002120135AFD102120135E6D17C
:10073300021201353DD20212013552D402120135A3
:100743001B8301120135A783011201350B850112A9
:100753000135178501120135528501120135C18515
:1007630001120135CA8601120135D3870112013501
:100773009A8801120135F78901120135158A011290
:100783000135328A01120135DF8A011201355C8B92
:1007930001120135848B011201354E8E0112013590
:1007A300538E011201356C9001120135BA9001127A
:1007B30001352A91011201356891011201354492E4
:1007C30001120135049301120135509301120135D1
:1007D300539301120135979301120135DF930112EF
:1007E30001351E94011201354094011201357494B0
:1007F30001120135D7940112013548DB021201358C
:1008030056DB02120135A9DB02120135C8DB0212E5
:1008130001350DDC0212013551DD02120135ECDD2B
:100823000212013530DE021201355ADE02120135A1
:10083300C9DE021201350FDF0212013586DF021213
:10084300013537E002120135302A00120135402A02
:1008530000120135E12A001201353D2B001201354A
:10086300FA2B00120135162D00120135482D001206
:100873000135772D00120135242F001201359B31EC
:10088300001201350B3400120135FD34001201351D
:10089300F63500120135FD3700120135F13A001229
:1008A3000135203C00120135243E00120135343F4E
:1008B30000120135C34000120135B4410012013565
:1008C30002420012013571420012013595420012B5
:1008D3000135E64200120135874700120135884889
:1008E30000120135E948001201351449001201359F
:1008F300DA4900120135E4FA02120135EEFA021266
:10090300013533FB0212013547FB02120135D7FBD8
:100913000212013510FC021201354BFC02120135A3
:1009230074FC02120135C8FC02120135DDFC02120F
:100933000135FFFC0212013514FD0212013528FDB9
:10094300021201353DFD0212013577FD0212013518
:10095300A3FD02120135ECFD021201355EFE021207
:100963000135A1FE02120135CBFE02120135F6FE5E
:10097300021201354DB103120135848B0212013588
:10098300678C02120135E28C021201351D8D0212B1
:1009930001356E8E02120135FC8E021201358E91E5
:1009A300021201354092021201354C9302120135B5
:1009B300BF940212013518950212013552F2021248
:1009C300013595F20212013519F302120135F0F5E2
:1009D30002120135BB9E031201356D9F03120135CF
:1009E30069A003120135A8A00312013502A1031265
:1009F3000135FEA80312013561A903120135FEA9D1
:100A03000312013533AA0312013563AA0312013518
:100A13009EAA03120135BEAA0312013549E0021250
:100A23000135D5E00212013594E102120135ACE241
:100A330002120135C6E402120135008002120135AB
:100A4300258002120135F28002120135C68102129D
:100A530001353382021201357382021201350F838D
:100A6300021201354384021201351E85021201353B
:100A73007D8502120135098602120135778602123D
:100A83000135038702120135498702120135BB87FD
:100A9300021201354D8802120135EE88021201352A
:100AA3000E89021201355689021201359F890212FD
:100AB3000135BB8902120135E189021201355B8AD6
:100AC30002120135698A02120135F88A02120135D0
:100AD300618B02120135FDE40212013582E5021237
:100AE3000135C4E502120135A8E60212013515E706
:100AF3000212013559E7021201359DE70212013551
:100B0300CAE702120135F2E7021201352AE802129E
:100B1300013568E8021201358FE80212013509E94F
:100B23000212013553E902120135FBB801120135F6
:100B33009ABA01120135D2BC0112013526BD011248
:100B4300013551BD011201352DBE011201355DBEC6
:100B5300011201358CBE011201359FBE0112013510
:100B6300E0BE011201350DBF011201355BBF011259
:100B7300013597BF01120135DCBF0112013529C0D0
:100B830001120135A3C001120135E4C2011201357E
:100B9300CEC4011201350AC50112013599C60112ED
:100BA3000135DEC60112013551C701120135A6C751
:100BB30001120135ABC70112013535C801120135E8
:100BC30054C90112013565C901120135819F021211
:100BD3000135FA9F02120135B4A502120135BFA6F1
:100BE3000212013568A802120135F6A80212013576
:100BF300464A00120135C74A00120135F44A001271
:100C030001353D4B001201353E4C00120135974C26
:100C130000120135134E00120135954E00120135B5
:100C2300B04E00120135214F00120135DE4F001284
:100C33000135A150001201352F5100120135E65143
:100C430000120135F951001201359252001201359B
:100C5300295300120135505300120135B9530012C4
:100C63000135035400120135515400120135F65475
:100C73000012013594550012013521560012013539
:100C8300925600120135D956001201353157001220
:100C930001356357001201351D58001201352459DF
:100CA300001201356D59001201358A5900120135C0
:100CB300A95900120135DC5A00120135935B001269
:100CC3000135B85B00120135CD5B001201353D5C87
:100CD300001201357E5C00120135A25D0012013560
:100CE300235E00120135C195021201350C960212E2
:100CF3000135189602120135EC960212013503975D
:100D03000212013540970212013571970212013523
:100D1300A99702120135FF970212013515980212A5
:100D230001355198021201356498021201358B98EE
:100D330002120135BF9802120135E59902120135FD
:100D43002F9B021201352B9C02120135489D021282
:100D53000135F37F0012013588C901120135C3C97A
:100D63000112013515CD0112013571CE0112013584
:100D730030CF0112013597D20112013581D301120F
:100D83000135CDD301120135E7D30112013524D446
:100D9300011201352FD4011201356ED40112013530
:100DA30077D40112013521D501120135F8D501128D
:100DB30001354CD601120135A9D6011201351BD7D5
:100DC30001120135AF95011201350E99011201355A
:100DD30014990112013545A0011201354CA40112E9
:100DE30001359A8B03120135308C03120135468C81
:100DF300031201359F8C03120135E38C0312013575
:100E03001D8D03120135B58D03120135248E031296
:100E130001352D8E03120135398E03120135538EA0
:100E2300031201357D8E03120135928E03120135B3
:100E3300F48E031201351B8F03120135A2F6021241
:100E43000135AFF602120135C9F602120135FCF67F
:100E5300021201353AF7021201359FF702120135EA
:100E6300B4F702120135BFF702120135CCF70212B3
:100E73000135E3F702120135F1F702120135FCF7F0
:100E83000212013508F80212013517F80212013572
:100E930022F80212013545F802120135E9F802126F
:100EA3000135F9F80212013513F90212013530F94F
:100EB300021201354BF90212013570F902120135A4
:100EC3007BF90212013590F902120135A4F90212DD
:100ED300013505FA021201350BFA0212013511FA36
:100EE3000212013517FA021201352FFA02120135E7
:100EF30062FA021201357072001201350773001293
:100F030001359F73001201358F7400120135C674C9
:100F130000120135D97400120135477500120135ED
:100F2300E27600120135097700120135AB77001222
:100F33000135E07700120135F177001201356A7847
:100F4300001201358B7800120135A37800120135A8
:100F5300FB7900120135047C00120135547E001226
:100F63000135577F00120135A67F001201356AD87B
:100F73000112013567D90112013552DA0112013527
:100F83005CDA011201357EDA011201358ADA0112C7
:100F93000135DCDB011201350BDC011201353BDDD0
:100FA300011201357DDD01120135A9DE0112013582
:100FB3007FDF01120135D1DF0112013530E001126B
:100FC300013567E001120135A2E0011201353DE46C
:100FD3000112013556E401120135D8E4011201353D
:100FE300E6E4011201353BE50112013549E5011241
:100FF3000135B6E50112013528E6011201356EE629
:101003000112013593F401120135B5F401120135D2
:101013009FF60112013544FA0112013587FB0112D3
:10102300013561FC01120135CCAA03120135F1AA85
:101033000312013562AB03120135DEB10212013531
:10104300E7B102120135F0B10212013521B30212E8
:10105300013540B50212013576B502120135B0B53E
:1010630002120135E6B50212013520B6021201352E
:1010730054B60212013580B602120135C9B6021206
:10108300013503B7021201354BB702120135A1B77F
:1010930002120135D6B70212013531B802120135F9
:1010A3006BB802120135BCB802120135F2B8021254
:1010B30001352CB9021201355AB9021201357DB935
:1010C30002120135DCB50312013508B603120135EE
:1010D30063B6031201356DB6031201357DB60312F3
:1010E30001355EB80312013569B8031201352B9936
:1010F300031201355299031201357D99031201350B
:101103002DA1031201354EA10312013505A20312CD
:10111300013512A30312013525A30312013585B747
:1011230003120135595E00120135B060001201351A
:10113300606200120135BD6200120135BA6300120C
:101143000135376400120135BF6400120135E464D0
:1011530000120135BF6700120135336800120135F3
:101163002269001201355869001201359B6900128A
:101173000135126B00120135546B001201359D6B62
:1011830000120135066C00120135286C001201357E
:10119300426C00120135606D00120135706D001252
:1011A3000135F36E00120135136F00120135496FDB
:1011B30000120135CF70001201350C710012013598
:1011C300467200120135F5ED0212013545EE0212A9
:1011D30001357FEF02120135EEEF0212013592F075
:1011E30002120135B1F002120135FFF0021201358E
:1011F30041F10212013528B50312013539B5031245
:101203000135CFB7031201350EB80312013562B9A8
:10121300031201351EFF021201352EFF02120135A2
:1012230043FF02120135F5FF0212013561B20312C9
:101233000135E4B2031201354AB30312013582AC1E
:1012430003120135ABAC0312013511AD03120135A5
:1012530030AD0312013583AD03120135DCAD03124A
:10126300013517AE031201351AAE03120135CF92C1
:1012730003120135E49203120135E293031201359F
:101283007A9403120135EE94031201350895031283
:1012930001351F95031201352D950312013545952F
:1012A300031201355A95031201357F950312013557
:1012B300D095031201354CB9031201355CB9031201
:1012C30001355FB903120135F87F0012013524A7F8
:1012D300031201359AA803120135FBA80312013545
:1012E300C6AF03120135E9AF0312013512B0031281
:1012F3000135ACB003120135C2B00312013504B19C
:10130300031201350BBA0212013515BA0212013567
:1013130055BA021201359EBA02120135D6BA02122B
:1013230001352CBB0212013549BB02120135C8BD80
:1013330002120135D1BD0212013516BE021201356A
:101343003FBE0212013554BE02120135C4BE021261
:10135300013551BF02120135A5BF02120135C8BFC5
:101363000212013547C00212013582C00212013553
:10137300B7C002120135C9C002120135E8C002121A
:101383000135F1C002120135A8C10212013524AEA4
:101393000312013575AE03120135FEAE031201359A
:1013A30068AF03120135009C03120135289C031218
:1013B30001351D9D03120135429D03120135D19D57
:1013C30003120135059603120135FB96031201350D
:1013D3000C97031201350B990312013530A3031245
:1013E300013566A30312013599A303120135F2A453
:1013F3000312013587B6031201359DB60312013579
:10140300A7B603120135FBB60312013526B7031243
:101413000135D4C1021201358EC202120135C9C28F
:1014230002120135FAC2021201355AC30212013502
:10143300A4C302120135F9C30212013584C4021296
:1014430001357DC502120135F3C60212013583C78A
:1014530002120135E9C702120135FCC70212013538
:10146300E1C8021201352BC90212013593E90212B8
:101473000135A9E9021201354AEA0212013589EA66
:1014830002120135A6EA02120135D7EA021201352A
:1014930024EB0212013557EB0212013592EB0212D3
:1014A30001358DED02120135F7E6011201357FEAB0
:1014B300011201350EEC0112013565EC0112013503
:1014C30084EC0112013502ED0112013588EE01129F
:1014D30001355BEF0112013515F301120135FDF3FF
:1014E3000112013519D60212013545D80212013510
:1014F30053D902120135E7DA02120135498F03127B
:101503000135AC8F03120135C98F03120135989051
:1015130003120135FA9003120135C5910312013507
:1015230068B303120135CAB30312013518B80312A5
:101533000135D9B803120135A2B80312013505B933
:10154300031201352EB903E066701008A3E066703C
:101553000A08A3E066700408A3E06622C3E79608BE
:1015630009E7960809E7960809E79622C3E0960873
:10157300A3E09608A3E09608A3E09622C008C3E080
:1015830096F50808A3E096420808A3E096420808E7
:10159300A3E09645087001D3D00822080808EAC0E2
:1015A300E0EBC0E086F0E7A4FA180986F0E7A42A86
:1015B300FA180986F0E7A42AFA180986F0E7A42A9C
:1015C300FA1986F0E7A4FBE5F02AFA190886F0E792
:1015D300A42BFBE5F03AFA190886F0E7A42BFBE508
:1015E300F03AFA18180986F0E7A4C5F02BFBE43AA1
:1015F300FA1908E7C5F0C6A426F6E5F03BFBE43A82
:10160300FA1886F0E7A4F6E5F00826F6E43B08F6B8
:10161300E43A08F6D0E0FBD0E0FA22E4CFC0E0E4FD
:10162300CEC0E0E4CDC0E0E4CCC0E075F020E62617
:10163300F608E633F608E633F608E633F618181824
:10164300EC33FCED33FDEE33FEEF33FFC3EC9709D0
:10165300ED9709EE9709EF97191919400FFFEC97CA
:10166300FC09ED97FD09EE97FE191906D5F0BFECBD
:10167300F709EDF709EEF709EFF7191919D0E0FCAF
:10168300D0E0FDD0E0FED0E0FF226016080808C6D7
:10169300C313C618C613C618C613C618C613C6D5B1
:1016A300E0EA227009080808226016181818C6C351
:1016B30033C608C633C608C633C608C633C6D5E024
:1016C300EA22E627F60809E637F60809E637F608B8
:1016D30009E637F622E026F608A3E036F608A3E08B
:1016E30036F608A3E036F622E026F008A3E036F04B
:1016F30008A3E036F008A3E036F022C3E697F60825
:1017030009E697F60809E697F60809E697F622C36D
:10171300E096F008A3E096F008A3E096F008A3E0B3
:1017230096F022E056F608A3E056F608A3E056F634
:1017330008A3E056F622E056F008A3E056F008A30B
:10174300E056F008A3E056F022E0F608A3E0F6081E
:10175300A3E0F608A3E0F622E6F008A3E6F008A368
:10176300E6F008A3E6F022E0FAA3E0FBA3E0FCA383
:10177300E0FD22E0F8A3E0F9A3E0FAA3E0FB22E80E
:10178300F0A3E9F0A3EAF0A3EBF022CAC0E0E6F08D
:10179300A308DAFAD0E0FA22CAC0E0E0A3C582CCFB
:1017A300C582C583CDC583F0A3C582CCC582C5835D
:1017B300CDC583DAE6D0E0CA22C3E498F8E499F908
:1017C3001217FD8026C3E49AFAE49BFBE920E7E9BC
:1017D3001217FDE498F8E499F922C3E498F8E49920
:1017E300F91217FDE498F8E499F9C3E49AFAE49B33
:1017F300FB22EB20E7CFE920E7E0B90010BB0008AC
:10180300E88AF084F8AAF022E4FBC8FA22EB7022FB
:101813007B10C833C8C933C9335007C39AC3DBF23B
:1018230080069A50012ADBEAC833F4C8C933F4C9E5
:10183300FA2275F008E4C833C8C933C933C99AC951
:101843009B5004C92AC93BD5F0ECFBC833F4C8E468
:10185300C9FA22600D08C6A2E713C618C613C6D577
:10186300E0F322600C08C6C313C618C613C6D5E03E
:10187300F422700422600D18C6C333C608C633C6EB
:10188300D5E0F41822251810AF08F518400C1519E7
:101893008008F51840021519D2AF2200C0D02518D0
:1018A30010AF08F518500C05198008F518500205FB
:1018B30019D2AFD0D0222518F58210AF08F5184001
:1018C3000C15198008F51840021519D2AF85198334
:1018D300222518F582E43519F583222518F8E43515
:1018E30019F9222518FAE43519FB222518FCE435E9
:1018F30019FD22E4732518C582C0E0E51934FFC53C
:1019030083C0E0E518C3958224F810AF08858319D6
:101913008582188008858319858218D2AFCEF0A3FB
:10192300E520F0A37808E608F0A3DEFAEFF0A3E5DC
:101933008124FAF8E608F0A3E608F0A3E608F0A38A
:101943000808E608F0A3E608F0A315811581D0E0A6
:10195300FED0E0F8158115811581E8C0E0EEC0E006
:10196300222518C582C0E0E51934FFC583C0E0E530
:1019730018C3958224F910AF0885831985821880CE
:1019830008858319858218D2AFCEF0A3E520F0A392
:101993007808E608F0A3DEFAEFF0A3E58124FBF86C
:1019A300E608F0A3E608F0A30808E608F0A3E608B3
:1019B300F0A315811581D0E0FED0E0F815811581E3
:1019C300E8C0E0EEC0E022851983851882E0A3FE1B
:1019D300E0A3F5207808E0A3F608DFFAE0A3FFE030
:1019E300A3C0E0E0A3C0E0E0A3C0E0E0A3C0E0E068
:1019F300A3C0E010AF08858218858319800885820B
:101A030018858319D2AFD083D0820201328519831E
:101A1300851882E0A3FEE0A3F5207808E0A3F6088A
:101A2300DFFAE0A3FFE0A3C0E0E0A3C0E0E0A3C0CF
:101A3300E0E0A3C0E010AF08858218858319800811
:101A4300858218858319D2AFD083D08222C0D02556
:101A530018C582C0E0E51934FFC583C0E0E518C3AB
:101A6300958224F310AF0885831985821880088531
:101A73008319858218D2AFC8F0A3E9F0A3EAF0A3D3
:101A8300EBF0A37908E709F0A3D8FAECF0A3EDF0A3
:101A9300A3EEF0A3EFF0A3D0E0F0A3D0E0F0A3D047
:101AA300E0F0A3E520F0A3E5F0F0A32285198385F8
:101AB3001882E0C0E0A3E0F9A3E0FAA3E0FBA37877
:101AC30008E0F608A3DFFAE0FCA3E0FDA3E0FEA331
:101AD300E0FFA3E0C0E0A3E0C0E0A3E0F5D0A3E013
:101AE300F520A3E0A3F5F010AF08858319858218CC
:101AF3008008858319858218D2AFD082D083D0E045
:101B0300F8D0E03274048006740280027401C0E0ED
:101B1300F4041218B9D0E012178E227404800474EE
:101B2300028000CCC0E0EDC0E0E518C39CCCAD1949
:101B330050011D10AF068C188D1980068C188D1955
:101B4300D2AF12179BD0E0FDD0E0FC22D083D0822D
:101B5300E9C0E0E493A3C386F0C5F095F0F908E487
:101B630093A386F0C5F095F0700BE493A3C399405B
:101B730005E9048002A3E475F002A42582F582E559
:101B8300F03583F583D0E0F9E493A3C0E0E493C098
:101B9300E022D083D082ECC0E0EDC0E0E493A3FC6C
:101BA300E493A3FDED4C600D121BE1EC24FFFCED6F
:101BB30034FFFD80EFE493A3FCE493A3FDED4C60BD
:101BC3000D121C20EC24FFFCED34FFFD80EFD0E070
:101BD300FDD0E0FCE493A3C0E0E493C0E022C0E0C6
:101BE300C3E49396087401939618400FE4936670C8
:101BF3000808740193661870007019A3A3C3E493D3
:101C030096087401939618A3A3400DD0E0D0E0D0BA
:101C1300E0021BD1A3A3A3A3A3A3D0E022C0E0C0EF
:101C2300F088F0E4936670080874019366187000F6
:101C3300A8F0A3A3700BD0F0D0E0D0E0D0E0021B5B
:081C4300D1A3A3D0F0D0E022F0
:101C4C0074F6121964EAFEEBFF8C088D09EE24344D
:101C5C00F8E43FF9E8FCE9FDEE2435121F5FFAEEDB
:101C6C002437121F5FF88508F0A4C885F00A85098F
:101C7C00F0A4250AF9EA28F8E439F97A257B001250
:101C8C0017FDEA8C828D83F0FA131313541FF8EEB0
:101C9C0028F8E43FF9E8245DF582E439F583E0C0E7
:101CAC00E074075AF8D0E0B800028004C313D8FCE3
:101CBC00A2E0EE50082434F582E43F80182436125A
:101CCC001F5FF5F0EA84A8F0EE28F8E43FF9E82469
:101CDC0038F582E439F583E0F97F03021A1074F7C2
:101CEC00121964EAFEEBFFEE2434121F5FC0E0EE23
:101CFC002435F582E43FF583D0E0F08E828F83A308
:101D0C00A3A3A3A3A3A3C082C0838E828F83A3A308
:101D1C00A3A3A3E0F8A3E0F9D083D082E0C398F5A5
:101D2C0008A3E099F509EE247F121F5F6401703E51
:101D3C00EE2480F582E43FF583C082C0838E828FCF
:101D4C0083A3A3A3A3A3E0240108A3E03400F9D048
:101D5C0083D082E0687003A3E06970127CB17D04CB
:101D6C00120C92EE247FF582E43FF583E4F0AC088C
:101D7C00AD09EEFAEFFB121C4CE9F91229AE7F0209
:101D8C00021A10C082C083851882851983E0F8A3DB
:101D9C00E0F9C3EA9CEB9D5010C3EC98ED99401B05
:101DAC00C3EA98EB995014800EC3EA98EB9940075C
:101DBC00C3EC98ED994004790180027900D083D06E
:101DCC008222EAC39CFAEB9DFB2274EF12196490F9
:101DDC000376E064086005E06407702A9061C8E04F
:101DEC0060249003A4E0F4601DE0F875F00BA4C827
:101DFC00AAF02AF974A628FE740339FF8E828F8309
:101E0C00A3A3A3E07003021EE4906060E0C0E0EEC8
:101E1C002468F582E43FF583D0E0F0750C21750D54
:101E2C0005750800750900E5D914F50AE5D95403C0
:101E3C00F50E60127403650E6043E50A600AEE2429
:101E4C0067121F5F7002807590051CE06401601FB3
:101E5C00121F5C60047A0480027A00E50AC39AFAC5
:101E6C0095E0FB120B3C8A088B09EA4509700512B8
:101E7C000ED88064121F5C70048A0C8B0DE50A600E
:101E8C0012850C82850D83F50BE5D9F0A3150BE5B6
:101E9C000B70F6121F5C604474FC250AF50A780C72
:101EAC00121B0BAC0AA90EEEFAEFFB120D4C7402CE
:101EBC0012189EE97026AA08AB09121394793D8E6C
:101ECC00828F83A3A3A3A3E0FA7B0012099EEEFAF0
:101EDC00EFFB120CB6120D5E7900806F7403650E69
:101EEC006051850A107511007810121B0BAC0CADEB
:101EFC000DAA08AB09120D10740212189EEE24687C
:101F0C00121F5F64807004747F8001E0F50C780C04
:101F1C00121B0FE50EF50C780C121B0FA90AAC085E
:101F2C00AD099003A4E0FA7B001209747402121834
:101F3C009E8013900376E06408600BAC0CAD0DEE44
:101F4C00FAEFFB120DD6120EE479017F0A021A1079
:101F5C00EE2483F582E43FF583E02274F2121964D7
:101F6C0074FC121888EAFEEBFF8909A2AFE433F582
:101F7C0008C2AF022031E0601B780C121B0BAC0BBB
:101F8C00A90EEEFAEFFB120D46740212189E7404A1
:101F9C00250BF50B7401250BF5D9850ED9E50B60D6
:101FAC0018F50A850C82850D83E0F5D9A385820C82
:101FBC0085830D150AE50A70EA75E195EE2463F840
:101FCC00E43FF97A007B00A2AFE433F50BC2AF8893
:101FDC00828983E0FCA3E0FDEC4D603A8882898322
:101FEC00E0FAA3E0FB8A828B83E0FCA3E0FD88820D
:101FFC008983ECF0A3EDF08A828B83E4F0A3F08864
:10200C00828983E0FCA3E0FDEC4D700A8882898311
:10201C00A3A3E4F0A3F0E50BA2E092AF121394900B
:10202C0004B8E004F0EE2463121F5FF8A3E0F9E8B3
:10203C00496064EE2463121F5F2402F8A3E03400AD
:10204C00F988828983E5822402F50CE43583F50D49
:10205C00E0F50BA3E0F50EEE2462121F5F64017035
:10206C00369061D0E0F8121F5C60047C0480027C26
:10207C00007480C398FA95E0FBE50B2CF8E434006F
:10208C00F9E82402F8500109C3EA98EB99A2D26549
:10209C00D0334003021F829004B8E0604D9004B925
:1020AC00E0F89004B8E0C398500C74026509703ADB
:1020BC009004BAE060348E828F83A3A3A3A3E0853F
:1020CC00188285198312210674021218D4E8122181
:1020DC00069004B7E028F074021218EEAA18AB1997
:1020EC0079011209C89004B8E4F0E508A2E092AFB7
:1020FC00740412189E7F07021A10F0A3E4F09004E7
:10210C00B8E0F8228521878522C622C0E074EB1244
:10211C001A50A2AFE433F508C2AF759B00906182F0
:10212C00E0A2E05030E591A2E0502A7591FE7401D6
:10213C00652170211222AA120E24122298121B1E43
:10214C00122758740412189EE96401700579011263
:10215C000E6C121DD6906182E0A2E5505DE591A255
:10216C00E550577591DF900376E064076005E064F5
:10217C0008702F1222AA74016521703E120E2412CF
:10218C002298121B1E122758740412189EE964011F
:10219C0070057901120E6C7901EEFAEFFB121F67D4
:1021AC008018E0640D7013900398E004F0642870BC
:1021BC0002E4F07A00E0F9120EEA906182E0A2E605
:1021CC00400302226DE591A2E6400302226D759157
:1021DC00BF900376E064057008120E0C120E188086
:1021EC0003120E12752100120E78E9900377F07924
:1021FC0000120E6C120C027A017B00900375E0F950
:10220C00121364907803E064427056900520E01439
:10221C00F0704EC2AF12222400782AD0E0F618D00B
:10222C00E0F6E59F5407F87005750DFF8003750DFA
:10223C007FC4C0E07829E6F50A08E6550DF50B7465
:10224C000B780A121866D0E0250AF8906270E0A2AA
:10225C00E740F8E8C333906272F0906270E0D2E02D
:10226C00F0906181E0A2E35009E5E9A2E350037527
:10227C00E9F7A3E0A2E75009E591A2E750037591B5
:10228C007FE508A2E092AF7F08021AAF8E828F839F
:10229C00E0F8A3E0C82416F582E438F58322900315
:1022AC00A4E0F875F00BA4C8AAF02AF974A628FECD
:1022BC00740339FF22C0E0C0D0C082C08390618318
:1022CC00E0A2E05009E5BFA2E0500375BFFEE0A21A
:1022DC00E15009E5BFA2E1500375BFFDE0A2E25059
:1022EC0009E5BFA2E2500375BFFBE0A2E35009E58C
:1022FC00BFA2E3500375BFF7E0A2E45009E5BFA20B
:10230C00E4500375BFEFE0A2E55009E5BFA2E5502C
:10231C000375BFDFE0A2E65009E5BFA2E6500375E6
:10232C00BFBFD083D082D0D0D0E032C0E074F212E4
:10233C001A50E5A7A2E6500FE5A1A2E6500953A753
:10234C00BF75A1BF12238BE5A7A2E5500CE5A1A296
:10235C00E5500653A7DF75A1DFE5A7A2E15009E51B
:10236C00A1A2E1500375A1FDE5A7A2E2500CE5A1E5
:10237C00A2E2500653A7FB75A1FB7F01021AAF74B2
:10238C00F7121964752101900376E064067015123A
:10239C000D828A828B83A3A3A3A3A3A3E0FAA3E059
:1023AC00FB120DFAA2AFE433FED2AF90037CE064D3
:1023BC000170187A207B00900375E0F91214907A62
:1023CC00207B00900375E0F912136A906182E0D2D1
:1023DC00E6F090051DE0602185C622801690037BF7
:1023EC00E064017008E5C654F84405F5C653BEFC1C
:1023FC001221107401652160E4EEA2E092AF7F021D
:10240C00021A10008E238F24858228858327851835
:10241C0082851983E0CEA3E0CF852882852783EBC4
:10242C00C9EAC8EDCBECCA75F010C3E833C8E93380
:10243C00C9EA33CAEB33CBC3EA9EF526EB9FF525ED
:10244C00B35004AB25AA26EC33CCED33CDD5F0DA62
:10245C00AE23AF242274E912196474FA121888EAB4
:10246C00FEEBFF8C0A8D0B120E30EAF8EBF9ECFA4E
:10247C00EDFB8E828F83121782900376E024F7C3D4
:10248C00940550067514010225C8120D828A088B1A
:10249C0009EA450970030225C5EEFCEFFDAA18AB4D
:1024AC0019120E2A850882850983A3A3780C1217AA
:1024BC004C908289780C121726851882851983789E
:1024CC001012174C9082897810121726780C7910FC
:1024DC0012155F501F780C79101216FE90825978E5
:1024EC000C12157F4047850C14850D15850E16852D
:1024FC000F17804590825985101485111585121679
:10250C008513177814790C1216FE781412157F5057
:10251C001C75140075150075160075170178147963
:10252C00101216FE7814790C1216C5800C75140155
:10253C00751500751600751700740978141216A617
:10254C009082AD780C12174C7814790C12161E85EB
:10255C000882850983A3A3A3A3A3A31225E61217BC
:10256C00FD880C890DE4F50EF50F7814790C121614
:10257C00C574041218D41225E61217FDE8FA8A0C59
:10258C00E4F50D7814790C12155F50077814790C5A
:10259C001216FE900376E06408600AE0640660059B
:1025AC00E064057020908255781412157F501690B7
:1025BC00824D78141216D8800C75140075150075A0
:1025CC001600751700850A82850B83781412175B29
:1025DC00740612189E7F10021A10E0F8A3E0F97A24
:1025EC00D07B032274F7121964120E4290051BE083
:1025FC0064017010906245E4F0A3F053F4F343FED1
:10260C000C5390F3120DE8E5C654B84441F5C6E5F9
:10261C009E5447644170F8906185740FF0900519D1
:10262C00E0F47002A3E0604E90051AE060081460BC
:10263C001B14602E8040750801750900900519E087
:10264C007808121875E508F45280802A750801750F
:10265C000900900519E07808121875E508F45290F5
:10266C008014750801750900900519E07808121896
:10267C0075E508F452A079007F02021A1074F71263
:10268C001964E9FEEAFF120E4274016E700C7A8036
:10269C007B00900375E0F9121364902A28E493F4FC
:1026AC006008E493F9120BF6800953C6B8E59E5402
:1026BC004770FA120DEE90051BE064017003120CCA
:1026CC0014900519E0F47002A3E0604B90051AE039
:1026DC00600814601A14602C803D7508017509009F
:1026EC00900519E07808121875E508428080287565
:1026FC000801750900900519E07808121875E508AD
:10270C0042908013750801750900900519E078084E
:10271C00121875E50842A0120D828A088B09A808C8
:10272C00A909E8496014E5E170FCE82414F582E499
:10273C0039F583E0F46003E0F5E174016F700A7A17
:10274C0001900375E0F912140002268474F1121939
:10275C00648A088B098C0A8D0B9082897808121771
:10276C0026740F1218D4780C12174C908289780C9E
:10277C001217267808790C12155F90825950107830
:10278C0008790C1216FE780812157F4014800E780A
:10279C000C79081216FE780C12157F500479018002
:1027AC000279007F08021A1074ED1219648A088BE2
:1027BC00098C0A8D0B9082897808121726741312D3
:1027CC0018D4780C12174C908289780C1217267832
:1027DC000C790812155F40117808790C1216FEAAB4
:1027EC0008AB09AC0AAD0B80227510007511007591
:1027FC0012007513017810790C1216FE78107908F6
:10280C001216C5AA10AB11AC12AD137F0C021A1024
:10281C00908289780812174C8A828B837808121759
:10282C00397F04021A1074F51219648C828D837826
:10283C000812174C8A828B83780812171212288A76
:10284C00C3E09CF0A3E09D12287C402290829178FA
:10285C000812174C8A828B8378081216EB8A828BAB
:10286C0083A3A3A3A3E02420F0A3E0344EF080A024
:10287C00F088828983C3E09420A3E0944E22EA245A
:10288C0004F8E43BF98C828D83A3A3A3A3E0FCA3FF
:10289C00E0FD888289832274F5121964E9FE9004A4
:1028AC00D3E0FAA3E0FBEE29F8E433F9740228F53F
:1028BC0082748139F583E02AF508A3E03BF50978A9
:1028CC0008121B0B90827112176A122410740212D8
:1028DC00189E8A088B098C0A8D0B741078081216B6
:1028EC008DAA08AB097F04021A1074F11219648ABC
:1028FC000C8B0D8C0E8D0F74111218D4121B2274AC
:10290C00111218D4E02401F508A3E03400F509E411
:10291C00F50AF50B780C790812159E90824578080B
:10292C0012174C780C790812159EAA0CAB0DAC0E34
:10293C00AD0F122410740212189E8B09EA4509601F
:10294C00047A0180027A00EC2AFCE43DFD74131237
:10295C0018D4E0F8A3E0F9E8FEE9FFECF8EDF97A19
:10296C00717B021217FD88088909E4F50AF50B8EB4
:10297C00828F83780812175BECF8EDF97A717B0281
:10298C001217FD8A088B09740578081218758E8247
:10299C008F83A3A3A3A3E508F0A3E509F07F0802A6
:1029AC001A10C082C083E9906000F0D083D08222DC
:1029BC00C0E074F2121A50A2AFE433FED2AFE58934
:1029CC00A2E1500312125C758900C2C5751A00EEA3
:1029DC00A2E092AF7F01021AAFC0E074F2121A505B
:1029EC00A2AFE433FED2AFE58BA2E0500312125C2F
:1029FC00758B00C2E880D5C0E0C0D0E8C0E0A8A8C4
:102A0C00D2AFC2C7751A00E8A2E792AFD0E0F8D0F7
:0A2A1C00D0D0E032C2AF0200002269
:102A2800FFFFFFFFFFFFFFFFC082C083E99015FE95
:102A3800F0D083D08202013274F61218F8E99002BD
:102A4800E8F0900348E0F508750900740278081268
:102A58001875AA08AB091213E89002E91233F3902B
:102A680002E91237E0606F900348E075F003A4FABA
:102A7800ABF01213E89003061233F39003061237F3
:102A8800E0700B9002E91237B11213EE8048900300
:102A9800061247457AFF7BFF1211C67A0080198A11
:102AA80008750900740278081218751241ED74FF50
:102AB800122BF3E4F0A3F00A900348E0F8EAC39875
:102AC80040DD79051208609002E8E0F912074C7AB7
:102AD800EA7B08120ADC02429074F41218F88A0899
:102AE8008B09EB548060479002E8E0F912134C8A96
:102AF8000A8B0BAE0AAF0BEE4F602A8E828F83E0F3
:102B080064B0701A120872E960148E828F83A3A3CE
:102B1800A3A3E0F9EE2405FAE43FFB120842EEFA1B
:102B2800EFFB12133AAA08E5096480FB80047A00D7
:102B38007B00022D4374F21218F874FB121888EA0D
:102B4800FEEBFFEE4F604574031218D4EEF0A3EFCE
:102B5800F0851882851983ECF0A3EDF07402121841
:102B6800D4E9F0AA18AB19120746E9F5087075748C
:102B7800131218D4E0F50AA3E0F50BE50A450B603B
:102B8800638E828F8312317CEE4F70057508028048
:102B9800537A067B001213E88A0C8B0DA80CA90D3A
:102BA800E8497005750813803B88828983E4122BF5
:102BB800F3EEF0A3EF122D0FE50AF0A3E50BF0906A
:102BC80002EC122D089002EC6017E0FCA3E08003F1
:102BD800EAFCEBFD8C828D83122D0870F38C828DBC
:102BE80083123E08A90874050249C5F0A3124727B5
:102BF800A32274F21218F88908890C750D00740361
:102C0800780C121875850C0A850D0B9002EBF09064
:102C180002E9123C13122D06602E1213EE79008081
:102C28001D890C750D007402780C1218759002E954
:102C38001240AC8882F583A3A3E4F0A3F0099003C3
:102C480048E0F8E9C39840D9900348E0FA850AF0CB
:102C5800A4CAA8F0850BF0A428FB1213E88A0C8BF1
:102C68000DAE0CAF0DEE4F7003022CFC900348E044
:102C7800FC850AF0A4CCA8F0850BF0A428FD790007
:102C88001213227C0080318D0C750D007403780CB2
:102C98001218758A828B83122D0188828983E4F049
:102CA800122D0EA3A3F0A3F00DEDC3950840D8EEA6
:102CB800250AFEEF350BFF0C900348E0F8ECC398AB
:102CC80050288C0C750D007402780C12187590023F
:102CD800E9122D01E82402500109FAE9FB8A828BE6
:102CE80083EEF0A3EFF07D0080BFE5089002EBF0E3
:102CF8007900800279130249C81240B0F922A3A3CF
:102D08001237B5EA4B22A3124727A3A3A32274F4D0
:102D18001218F87900EAA2E0501F750814750982A4
:102D28007808121B0B79107C047D007A007B161240
:102D3800085A740212189EE9F980007F040219CA21
:102D4800C082C0839002EC1237E0601C88828983BD
:102D5800A3A3E06A7003A3E06B8882898370E8A369
:102D6800A3A3A31237B180047A007B00022A397426
:102D7800F21218F874FD121888EAFEEBFF85188223
:102D8800851983E4F0A3F074021218D47401F012C8
:102D980037DD7014120A161213E89002EF1233F39B
:102DA8001237DD7003022F091234F3EE2404F50AFA
:102DB800E43FF50B850A82F583E024FE603C24FCA1
:102DC800607424FE607E24FE7003022E5924FE7077
:102DD80003022E6624FE7003022E7324FE70030283
:102DE8002E8024FE7003022E8D24FC7003022EAE6A
:102DF80024FE7003022EC6022F02120A169002F158
:102E0800EAF0A3EB122F1512048EE96003022F02D9
:102E18009002F1121B228E828F83A3A3A3A3A31275
:102E280047458508828509831237B112082A74023A
:102E380012189E022F02AC18AD19EEFAEFFB120819
:102E480078022ED1AC18AD19EEFAEFFB12087E808D
:102E580078AC18AD19EEFAEFFB120884806BAC1849
:102E6800AD19EEFAEFFB12088A805EAC18AD19EEC8
:102E7800FAEFFB1208908051AC18AD19EEFAEFFB8F
:102E8800120896804474021218DE880C890D780C9A
:102E9800121B0B74021218EEEEFAEFFB12089C7468
:102EA8000212189E8023AC18AD19EEFAEFFB120837
:102EB800A2E9F8701674021218D4E4F0803CAC1839
:102EC800AD19EEFAEFFB1208A8E9F8E8602C8E823B
:102ED8008F83A3E064146022850A82850B83E090C7
:102EE80002F1F08518828519831237B19002F21227
:102EF80033F3E8A3122F15120488EEFAEFFB120839
:102F08000074021218D4E0F974030249C5F07CF188
:102F18007D028508828509831237B52274E8121864
:102F2800F874FA12188874041218D4ECF0A3EDF0AF
:102F38008A128B13EA2405F50EE43513F50FEA24FB
:102F480002F510E43513F511851082F5831237B1B7
:102F580012057E8A0A8B0B7508007C037D007900B8
:102F68007AF17B02121322E50E2402F516E4350FDE
:102F7800F51774021218DE880C890D780C121B0BD9
:102F8800850E82850F83A3A3A3A3E0F50C750D001E
:102F9800780C121B0BE50E2405F50CE4350FF50D26
:102FA800780C121B0B851682851783123AB8120704
:102FB80064740612189E8A0C8B0DE50C450D70037F
:102FC8000231458020851882851983E088828983AB
:102FD800F00508851882851983A3E0C0E0123186C0
:102FE800D0E0F00508E50A24FBFAE50B34FFFBC343
:102FF800E5089AE49B40030231457E007F00851274
:1030080082851383A3A3A3A3E0F5097809121B0FF4
:10301800E4F514F5157814121B0B7514EE751502EA
:103028007814121B0B9002EF121B2274091218D489
:10303800121B22E50A24F9F9AC0CAD0D8510828526
:1030480011831237B11208D2740912189EE960036D
:103058000230E6850E82850F83A3A3A3A3A3A3A3AF
:10306800E0F89002EEE0687075E0F5148E157814BB
:10307800121B0B124742850E82850F83A3A3A3A3BD
:10308800A3A3A3A31237B112131C740212189EE94A
:10309800604C9002F21237E0703BE4F51478141299
:1030A8001B0B7CFF7DFF7907851082851183123702
:1030B800B112083C740212189E1237E67017850E7A
:1030C80082850F831248DF74041218D41241A012AB
:1030D8003AE9023179850C82850D8312317CA81872
:1030E800A919881489157814121B0B74041218D4A2
:1030F800121B228516828517831233E91207707412
:103108000412189E8A0C8B0DEE4F7003022FC21208
:103118003186EE123191123A9FEF123191F8A3E005
:103128003400F9E50C450D6003022FCD88828983B0
:1031380074FFF0050812318674FFF00508E5086091
:103148001A1313543F1233F912049AE960099002D2
:10315800F21237B112139479008016850E82850F0A
:10316800831248DF74041218D41241A0123E087961
:103178000A023A72A3A3A3A3E0FEA3E0FF22A808D1
:103188009002F2E028123A9F22F00508089002F215
:10319800E0282274E81218F874FA121888740212D7
:1031A80018D41233F374041218D4ECF0A3EDF074AD
:1031B800021218D4E02405123A88E0F50CA3E0F5D1
:1031C8000D74021218D4E02402F510A3E03400F5BF
:1031D80011851082F5831237B112057E75080075C6
:1031E8000900EA24FCFEEB34FFFF8008050CE50C1F
:1031F8007002050DA808C3EE98EF9400500302333F
:10320800A5A818A919880E890F780E121B0B85140A
:1032180082851583A3A3A3A3124749121B0BE514A8
:103228002405F50EE43515F50F780E121B0B8514E1
:10323800828515831233E7120764740612189E8A72
:103248000E8B0FEA450F70030233A5EA2404F51626
:10325800E4350FF517851682F583E0F50CA3E0F544
:103268000D8518828519831247458A828B83A3A30B
:10327800A3E0F98510828511831237B1120752E94C
:10328800F50960030233A574021218D4123AAFF597
:10329800097809121B0FE4F512F5137812121B0BAB
:1032A8007512EE7513027812121B0B9002EF121BA7
:1032B8002274071218D4121B22EEF9AC0EAD0F853A
:1032C80010828511831237B11208D2740912189E20
:1032D800E9F50960030233A5E508703FE4F50EF54A
:1032E8000F780E121B0B7CFF7DFF790985108285F4
:1032F80011831237B112083C740212189E123AD583
:10330800700D74041218D41233DC79110233D99079
:1033180002EEE024029002F2F080149002F2E0FA49
:103328009002EEE0790024025001096A497072A8FF
:10333800089002EEE0FAE82AFAE43400FBEE9AEF8D
:103348009B405A851682851783E0C0E09002F312ED
:10335800318BD0E0F00508851682851783A3E0C07D
:10336800E0089002F312318BD0E0F005089002EEED
:10337800124749121B0B124742A808123A7C121333
:103388000A740212189E9002EEE02508F50874FFF0
:10339800650C700474FF650D60030231F4E5086084
:1033A8001F9002F2E0F5F0E508841233F91204A048
:1033B800E960099002F31237B11213947900801171
:1033C800E509700375090A74041218D41233DCA9CC
:1033D80009023A72123C17E50CF0A3E50DF022A39E
:1033E800A31249D4AA0CAB0D22A3A3EAF0A3EBF0D5
:1033F800229002F1F07CF17D028510828511831202
:1034080037B52274EC1218F874FC121888123F1899
:1034180074021218EE1237AB12076A8A0C8B0DEA87
:10342800450D70030234E31234F3A818A919881063
:1034380089117810121B0B7CFF7DFF790B850882A0
:103448008509831237B112083C740212189E12358E
:10345800E9700C850A82850B83123AE60234F08EF5
:10346800828F83A3A3A3A3E0F5127812121B0FE4A3
:10347800F512F5137812121B0B7512F175130278F9
:1034880012121B0B7810121B0B74091218D4121B82
:103498002274091218D4E0F9AC0CAD0D85088285A8
:1034A80009831237B11208D2740912189EE9FE7006
:1034B800157CF17D028508828509831237B11204D3
:1034C800A6E97009802074166E70027E009002F2E0
:1034D8001237B1121394EE7004800B7E01850A82B4
:1034E800850B83123E05EEF9023E1AEE2402F5081A
:1034F800E43FF5092274EC1218F874FC121888EAF3
:10350800FEEBFF8C0E8D0FEE2405F508E43FF50960
:1035180074021218EE8508828509831237B11207E2
:103528006A8A0C8B0DEA450D70030235D9EE240228
:10353800F50AE43FF50BA818A91988108911781025
:10354800121B0B7CFF7DFF790D1237AB12083C7400
:103558000212189E1235E9700B85088285098312BC
:103568003AE6807A8E828F83A3A3A3A3E0F512782C
:1035780012121B0F850882850983A3A3121B2275CB
:1035880012F17513027812121B0B7810121B0B74B0
:10359800091218D4121B2274091218D4E0F9123730
:1035A800A71208D2740912189EE9FE700F7CF17DEB
:1035B800021237AB1204ACE97009802074166E70E1
:1035C800027E009002F21237B1121394EE7004805A
:1035D8000B7E01850882850983123E05EEF9023EBD
:1035E8001A1237F0F510A3E0F511EA45112274E834
:1035F8001218F874FE1218888A168B178C148D15F9
:10360800EA2405F50CE43517F50DEA2402F50EE475
:103618003517F50F850E82F5831237B112057E8AAC
:10362800088B09750B007C037D0079007AF17B0219
:10363800121322750A00E50814F5100424FFF50892
:10364800E50934FFF50980549002F1E0FA9002EEA2
:10365800E0F8EA28F8E43400F9E50898E509995013
:103668000D9002F1E0F8E510C3989002EEF0E0F555
:10367800127513007812121B0B1247429002F2E0E7
:103688002AFAA3E03400FB12130A740212189E905F
:1036980002EEE0F89002F1E028F0050A850C828538
:1036A8000D83A3A31240BC400302378C9002F1E0C3
:1036B800C39508E49509400302378CAE0AEE2EFE46
:1036C800E433FF1237CBAC18AD1912475DE439FB70
:1036D80012076A8A128B13AC12AD13EC4D701B756E
:1036E8000B011237BB123E099002F2122D0860033B
:1036F800121394A90B7402023A74851682851783F3
:10370800A3A3A3A3E0F50B780B121B0FE4F512F5A6
:10371800137812121B0B7512EE7513027812121B16
:103728000B9002EF121B2274071218D4121B22A945
:1037380010850E82850F831237B11208D2740912D0
:10374800189EE9F50B709B9002F21237E0600302B5
:103758003650E4F512F5137812121B0B7CFF7DFF2F
:10376800790F850E82850F831237B112083C7402D7
:1037780012189E1237E660030236501237BB123A0F
:10378800EA0236FD7CF17D02850E82850F831237B1
:10379800B11204B2E960030236F079000236FDACDA
:1037A8000CAD0D850A82850B831237B522E0FAA38A
:1037B800E0FB221237CBE0FAA3E0F9EA8514828510
:1037C800158322850C82850D83E02EF8A3E03FF94E
:1037D80088828983229002EF1248E3E8492212374F
:1037E800F0F8A3E0F9E849229002F2EAF0A3EBF03E
:1037F8009002F2E02274E81218F874FA1218887429
:10380800041218D41233F38C168D1774041218D4BA
:10381800E02405F50EA3E03400F50F74041218D463
:10382800E02402123A881237B112057E8A0A8B0BFD
:103838007F007E00A818A919880889097808121B32
:103848000B850E82850F83A3A3A3A3E0F5088E0939
:103858007808121B0BE50E2405F508E4350FF50969
:103868007808121B0B850E82850F83A3A3123AB822
:10387800120764740612189E8A0C8B0D8029123A5E
:10388800A9F00F123AA9F00F9002EE123DF4121BA4
:103898000B124742EFF8123A7C12130A74021218FC
:1038A8009E9002EEE02FFFE50C450D7003023938BB
:1038B800851882851983123F2AA3A3A3E0F98514EA
:1038C800828515831237B1120752E9FEE50C2404EC
:1038D800F510E4350DF511EE705074041218D41279
:1038E8003AAFF5087808121B0FE4F508F5097808CF
:1038F800121B0B7508EE7509027808121B0B900253
:10390800EF121B2274071218D4121B22E50A24FA9C
:10391800F9AC0CAD0D8514828515831237B11208E8
:10392800D2740912189EE9FE6039123AC5123E088F
:10393800EF7003023A5F9002F2E0F5F0EF84900234
:10394800F1F07CF17D028514828515831237B1125E
:1039580004B8E960099002F31237B11213947900A0
:10396800023A728F08EF703BE4F512F513781212E1
:103978001B0B7CFF7DFF7911851482851583123717
:10398800B112083C740212189E123AD57009123A04
:10399800C5123AE9023A729002EEE024049002F26B
:1039A800F080359002EEE0F89002F2E0FAE82404A4
:1039B800FCE43400FDEC6A4D600302393EE50A245C
:1039C800FAFAE50B34FFFBE50828F8E43400F9EAD5
:1039D80098EB99500302393E851082851183E0C027
:1039E800E09002F3E02FF8A3E034008882F583D05A
:1039F800E0F00F851082851183A3E0C0E0123A96AB
:103A0800D0E0F00F74021218DE88088909780812CD
:103A18001B0B74021218D4121B22850E82850F8389
:103A28001233E7120770740412189E8A0C8B0DEA81
:103A3800450D700302388674021218D4E0C0E012F3
:103A48003A96D0E0F00F74021218D4A3E0C0E01246
:103A58003A96D0E002388EEE70027E0A850E828594
:103A68000F83123ACB123E08EEF9740612189E7FA5
:103A7800100219CA9002F3E028FAA3E03400FB22EE
:103A8800F514A3E03400F515851482F58322123A63
:103A98009A229002F3E02FFAA3E034008A82F58399
:103AA80022123A9A74FF22123C17A3A3A3A3E0227E
:103AB8001249D4850E82850F831237B5228510826C
:103AC8008511831248E3851682851783229002F3B5
:103AD800EAF0A3EBF09002F31248E3E84922123E21
:103AE8000EE8F0A3E9F079112274EA1218F874FECE
:103AF8001218888A088B098C128D13EA2405FEE4B3
:103B08003509FFAC18AD198E828F831237B11207B1
:103B18006A8A0C8B0DEE2406F50EE43FF50FEA4594
:103B28000D7003023BE9E5082402F50AE43509F5BE
:103B38000B8A828B83A3A3A3E0A2E5502885188271
:103B48008519831237B11208C68A108B11EA4511FC
:103B5800602079121237A78510828511831218F612
:103B6800E9F50C707F850E82850F83E06009795234
:103B78008011750C0E806D850882850983A3A3A327
:103B8800A3E0F9E4F508F5097808121B0B8E828F7B
:103B980083A3A3E0F5087808121B0B8E828F83A3FA
:103BA800A3A3121B228E828F831247451237AB12B2
:103BB80008D8740612189EE9F50C7011850E8285D6
:103BC8000F83E0702D1237AB1204BE802574166582
:103BD8000C7011750C0074181218D4123C13E48080
:103BE80010750C011248DB851282851383E8F0A357
:103BF800E9F0850E82850F83E0600479008002A9D0
:103C08000C740212189E7F0E0219CA123C1722E089
:103C1800F8A3E0F58388822274EC1218F874F7127E
:103C280018888A0A8B0B8C108D11EA2405FEE4355E
:103C38000BFF750C00AC18AD198E828F831237B14B
:103C480012076A8A088B09EA45097003023DDFE515
:103C58000A2402F50A5002050B8A828B83A3A3A3C8
:103C6800E0A2E5502F8518828519831237B1120812
:103C7800C68A0C8B0DEA450D604F7912AC08AD0968
:103C88001237AB850C82850D831218F6E9F50C60A6
:103C980003023DE2850A82850B83E0F508A3E0F57F
:103CA80009AA08FB1208BAEA4B70197AFF7BFF12BF
:103CB80008BAEA4B7003023DD58A828B83E508F087
:103CC800A3E509F07508008008750C0E023DE205B1
:103CD800089002EBE0F8E508C3984003023DD5855B
:103CE800080E750F007403780E1218758A828B837C
:103CF800A3A3E0250EF8A3E0350F1241A970D08EDA
:103D0800828F83123DFD1233F38E828F83A3A31219
:103D18003DFD1233F1EE2404F508E43FF50985086A
:103D280082F583E088828983A3A3A3A3F0A3E4F0A8
:103D3800EE2405F50EE43FF50F850E82F583123D5E
:103D4800FDA3A3A3A31233F175120775130078120C
:103D5800121B0BEEFCEFFD74041218E612130A7422
:103D68000212189EE4F5127812121B0B8508828540
:103D78000983E0FC7D0079171237AB12083C740206
:103D880012189E74071218D41233F374071218D439
:103D9800E0FA4B603D850882850983123DF4121BC9
:103DA8000B850E82850F8312474512130A7402127F
:103DB800189E74021218EE1237AB1204C4E960267A
:103DC80074071218D41237B11213948019750C099C
:103DD8008008750C118003750C011248DB85108270
:103DE800851183123E08A90C74098028E0F508752E
:103DF80009007808221237B58882898322123E0E7C
:103E0800E8F0A3E9F022E0F8A3E0F9850E82850F37
:103E18008322740412189E7F0C0219CA74EC1218BB
:103E2800F8123F18751000EE2402F50CE43FF50D6A
:103E3800850C82F5831237B11208BA8A088B09EA11
:103E480045097003023EFC850A82850B83E0640104
:103E58006003023EF1AC08AD09AA0AAB0B1208AE2A
:103E6800E9606E85088285098312317EEE2406F5A5
:103E78000AE43FF50B8E828F83A3A3121B228E8246
:103E88008F83A3A3A3A3121B22850A82850B831207
:103E98001B2279188E828F83123F2A1237B112089B
:103EA800D8740612189EE9F8741668700B850A8291
:103EB800850B83E4F0A38014E860128E828F83124E
:103EC80037B1850E82850F83EAF0A3EBF088108066
:103ED80018780E121B0BAC08AD09EEFAEFFB1208AE
:103EE800B4740212189EE9F510AA08AB091208C0AA
:103EF800E510700E850C82850D831237B11204CA45
:103F08008009741665107003751000A910023E1F11
:103F1800EAFEEBFF8C0E8D0FEE2405F50AE43FF563
:103F28000B221249D4850C82850D832274EA12185B
:103F3800F87508007509007E007F00750A00EC24FA
:103F480002F510E43DF5118035EC65087003ED6568
:103F5800096003023FE988828983A3A3E06A7003AA
:103F6800A3E06B707C88828983A3A3A3A31248DF94
:103F7800EE28FEEF39FFEA28FAEB39FB050A124072
:103F8800B9503A850A0C750D007403780C1218752F
:103F98008510828511831240AC1241A9601FE50883
:103FA800450970A58C088D098882898312317C881F
:103FB800828983A3A3E02EFAA3E03F80BEE50AC36B
:103FC800940250030240A7750800750900EE4F607F
:103FD80010EEFAEFFB12138E8A0E8B0FEA450F7064
:103FE8000579000240A9750B0002407C850B0C7511
:103FF8000D007403780C121875851082851183E002
:10400800250CF50CA3E0350DF50DE50C2406F5148B
:10401800E4350DF515851482F5831241AE6042E54D
:104028000C2404F512E4350DF513851282F583127C
:104038001B22E50E2508FAE50F3509FB12130A7451
:104048000212189E851282851383E02508F508A3BD
:10405800E03509F5098514828515831237B11213E5
:1040680094E50B600D7C087D007900AA0CAB0D125D
:104078001322050BE50BC3950A5003023FF4851084
:10408800828511831248DF88828983A3A3A3A3A30F
:10409800A3E50EF0A3E50F122D0FEEF0A3EFF079D4
:1040A80001023C0E1240B022E0250CF8A3E0350DC9
:1040B800229002EBE0F8E50AC3982274F01218F88F
:1040C8008A0E8B0F8C0A8D0B750D00750C008050B5
:1040D8007916EE2406F508E43FF5098E828F83A34E
:1040E800A3121B228E828F83A3A3A3A3121B228554
:1040F8000882850983121B22850E82850F83A3A35C
:104108001237B11208D8740612189EE9F50D741604
:10411800650D706C850882850983E4F0A3F0050CB1
:104128009002EBE0F8E50CC3985066AA0C8A087573
:10413800090074037808121875850A82850B83A311
:10414800A31241F8E8FEE9FF8E828F831241AE6028
:1041580040EA2401F508E43400F5099002EBE06533
:10416800087002E509601488828983A3A3A3A3A326
:10417800A3A3A31237E060030240D879180240DAFB
:10418800E9609B1248DB74101218D41241A0123E49
:1041980008A90D7F080219CAE0FAA3E0F5838A820C
:1041A80022F9888289831249D4EC4D2274F61218B8
:1041B800F87C0080010C900348E0F8ECC398501E8E
:1041C8008C08750900740278081218751241EDE020
:1041D8006A7003A3E06B70DDE8FAE9FB80047A00FB
:1041E8007B000242909002E91241F888828983227A
:1041F800E02508F8A3E03509F92274F21218F88AC4
:10420800088B09750A0080278E828F83A3A3A3A336
:10421800122D0660031213947C087D007900EEFAD3
:10422800EFFB1213228E828F83E4F0A3F0050A12AB
:1042380040B95027850A0C750D007403780C1218C4
:1042480075850882850983A3A3E0250CFEA3E035C4
:104258000DFF8E828F831237E070AD850882850945
:104268008374FFF0A3F00249C874F61218F8120814
:104278006C8A828B83E582458370067A007B008096
:1042880007A3A3A3A31237B17F020219CA74F412B9
:1042980018F889088C828D83E06402703C12487E8D
:1042A800FEA3E0F9EEF874026870037429697029B6
:1042B800750A02750B00780A121B0B74101218D4B9
:1042C800121B2274101218D4121B22A9081211D81A
:1042D800740612189EE9F980027901022D4374E8E8
:1042E8001218F874FB121888E9851882851983F06A
:1042F8008A168B17ECFEEDFF7510008E828F83A354
:10430800A3A3E0A2E4502D741D1218D41237B112E1
:1043180008C68A828B83E5824583700302471D792C
:104328000AEEFCEFFDAA16AB171218F6E9F51060B5
:1043380003024720741F1218D4E0F508A3E0F5091A
:1043480074211218D4E0F50AA3E0F50B74231218AF
:10435800D4E0F50EA3E0F50F8E828F83E06402604F
:10436800030246BEA31248DF850882850983A38518
:104378008212858313EE2406F50CE43FF50D88823E
:10438800898312475DF514E439F5157814121B95E5
:10439800010000280128C04307000228854403289B
:1043A800F3430029B4450129DF4502298045032943
:1043B800B44504295846BE46E50E450F600302463B
:1043C800B9850C82850D831248DFE8FAE9FB8A82F9
:1043D8008B83E0850A82850B83124768121B0B8A40
:1043E800828B83A3E0FCA3E0024642E50E450F6002
:1043F800030246B9850A82850B837401F01247527D
:10440800850882850983F07C007D008E828F83A3D6
:10441800A3A3A3E02401FAA3E03400FB12076AEA8D
:104428004B60408A828B83E02402F8850A82850BE0
:1044380083E028F0EA2404F8E43BF988828983E0E1
:10444800851282851383124776124768121B0B8ADE
:10445800828B83A3124745E5082403FAE43509FB58
:10446800024647850A82850B83E02404F07C047D9C
:10447800007900AA12AB13121322024720E50E4559
:104488000F60030246B9124752FEA3E0FF850A8275
:10449800850B837404F0EE850882850983F0EF8527
:1044A8001282851383F074031218EEEEFAEFFB12F2
:1044B800076A8A0C8B0DEA450D70030245638A82F0
:1044C8008B83A3A312317C74011218DE880E890F26
:1044D800780E121B0B74051218D4121B227CFF7D58
:1044E800FF120770740412189E8B0FEA450F703381
:1044F800850C82850D83124749121B0B850C82851A
:104508000D83A3121B227C027D007AEF7B821205A9
:104518006C740412189EE9700A74011218D474FF9E
:10452800F0A3F08E828F83E064027039750C0275F7
:104538000D00780C121B0B8E828F83A3124745E562
:10454800082404FAE43509FB12130A740212189EAF
:10455800850A82850B83E02402800974011218D42D
:10456800EEF0A3EFF074011218D412473774011259
:1045780018D412472E0246B3E50E450F60030246D3
:10458800B9850C82850D831249CDAA16AB17121175
:10459800DE850A82850B837402F08508828509838B
:1045A800EAF0851282851383EB0246B6E50E450FC5
:1045B80060030246B9124752F8A3E0F9850A8285DA
:1045C8000B837402F0E8850882850983F0E9851277
:1045D800828513830246B6850C82850D831237B116
:1045E800121304EAFAF8C3950EE4950F405CE865E7
:1045F8000E450F70047A008021851882851983E0A2
:10460800FCE50E2CFCE4350FFDC3EC98ED9400504E
:1046180003E08005E50ECAC39AFAEA850A82850B8B
:1046280083F08A0A750B00780A121B0B850C8285A9
:104638000D83E0250EFCA3E0350FFDAA08AB091297
:10464800130A740212189E024720751007024720A9
:10465800E50E450F705B850C82850D831248DF855A
:104668000A82850B837407F08882898312472F1288
:104678004727E0851282851383F0E82402FAE4399B
:10468800FB8A828B831247378A828B8312472EA339
:10469800A3122D0E12473CF0E82405F850010988B2
:1046A80082898312473CA3124776A3A3A3A3F08071
:1046B8006775100B8062741D1218D41237B1120876
:1046C8006C8A828B83E5824583604A1248DF880CB6
:1046D800890DE8450D603E74251218D4E0F5107870
:1046E80010121B0F780E121B0B780A121B0B78087E
:1046F800121B0B74071218D4E0F9EEFCEFFDAA1692
:10470800AB17850C82850D831218F6740712189E54
:10471800E9F510800375100EA9107405023A74F0BB
:1047280088828983A322A3E08508828509832212CF
:10473800477DF02212477DA3A3229002EF1249D4AD
:1047480022E0F50E750F00780E22850C82850D8308
:10475800123C17E022E0FAA3E0F8E4C8F9EA2822BC
:10476800F08A828B83E0F50A750B00780A221247DB
:104778002712477D22E0850882850983A3A3227436
:10478800EE1218F874FE1218888A088B09ECFEEDF0
:10479800FF890AAC18AD19EEFAEFFB12076A8A0C0A
:1047A8008B0DEA450D700302486F851882851983C1
:1047B8001237B112086C8A828B83E58245837003B5
:1047C80002486AA3A31248DF880E890FE8450F70D4
:1047D8000302486A74141218D4E0F510A3E0F51126
:1047E800E50AF50B780B121B0F74191218D4121B5B
:1047F800227810121B0B741B1218D4E0F9AC0CAD04
:104808000DAA08AB09850E82850F831218F6740568
:1048180012189EE9F50B705274FE650A604C850CFF
:1048280082850D83E06402704112487EFAA3E0F9A4
:10483800EAF87402687003742969702E85108285FD
:10484800118312475DF50CE439F50D780C121B0B3A
:10485800EEFCEFFDAA08AB091208F0740212189ECC
:104868008008750B0E8003750B01A90B74021218D2
:104878009E7F0A0219CAA31248E388828983E0222C
:1048880074F61218F874FE121888740C1218D412E0
:1048980048DFE8851882851983F074011218D4E975
:1048A800F0E4F508F5097808121B0B75080278087A
:1048B800121B0B74041218DE880889097808121B69
:1048C8000B79FE1208D8740612189E740212189EEC
:1048D8000242908E828F831248E322E0F8A3E0F927
:1048E8002274F71218F8EAFEEBFF89089003061203
:1048F80047451211DEEA5402600BA908EEFAEFFBF5
:1049080012075E800279017F010219CA74F2121837
:10491800F874FE121888EAFEEBFF890A7401650A2A
:1049280060147402650A60030249C37901120AFA25
:10493800E960030249C3EEFAEFFB1208BAEA4B60DA
:10494800031208C0A818A919880889097808121B31
:104958000B7508027509007808121B0B7508E975B4
:1049680009827808121B0B7CFF7DFF7A017B0012FD
:104978000764740612189E8038850882850983A307
:10498800A3A3A3A3A31249CDEEFAEFFB1211C6E429
:10499800F50CF50D780C121B0B74021218D4121BAF
:1049A800227CFF7DFFAA08AB091207707404121855
:1049B8009E8A088B09E508450970BE740212189E84
:1049C8007F060219CA123C171249D422E0FCA3E060
:1049D800FD2274F41218F88A088B09ECFEEDFF909A
:1049E80015FEE0F4604B7A097B00121334EA4B6041
:1049F800408A828B8374B1F0A3E4124A3CF08A8225
:104A08008B83A3A3E508F0A3E509124A3CA3EEF0C3
:104A1800A3EFF0740C1218D41248DF8A828B83A398
:104A2800A3A3A3A3A3A3123E089015FEE0F91213B3
:104A380040022D43F08A828B83A3A3A3A322C082C2
:104A4800C0839061907404F0A37448F0A37402F0DA
:104A58009061807440F09061BC7403F09061877439
:104A680019F0906265741BF0906249E0C39413904A
:104A7800619C40107409F09060667401F090619F29
:104A88007428800D740BF0906066E4F090619F7458
:104A98002CF0124C317009C29190037A746780052A
:104AA80090037A7461F0124C82902A28E493F4609F
:104AB80006E493F9120BF67905120ECC024C90C05D
:104AC80082C083E9540FF9906185E0696012E5C6F8
:104AD80054B84441F5C6E59E5447644170F8E9F07E
:104AE80053C6B8E59E544770FA024C90C082C08302
:104AF800A8A853A87E906181E4125911C2BA539AAA
:104B0800FEC289759B00C2C275E90075910075BF28
:104B18000075A91175B905906181F0A374C0F0A35F
:104B2800E4F0D2BA439A0174805842A8024C90F03B
:104B3800A3F0024C90C082C08374F81218889003C6
:104B480078125E117003024C29900378E05440609B
:104B5800177908AA18AB19120CF2AA18AB1912097E
:104B68005C900378E054BFF0E054806010790C7AD0
:104B7800417B05120CF2900378E0547FF0E0A2E04C
:104B8800501E124C317009C29190037A74678005E7
:104B980090037A7461F0120962900378E054FEF091
:104BA800E05402601E124C757009D29190037A7419
:104BB80071800590037A746AF0120962900378E0B4
:104BC80054FDF0E054046010902A2C124C85120910
:104BD80068900378E054FBF0E054086010902A2DA8
:104BE800124C85120968900378E054F7F0E05410ED
:104BF800600D124C82120968900378E054EFF0E0DF
:104C08005420600A120968900378E054DFF0A3E0AA
:104C18005401600D120C1412096E900379E054FED1
:104C2800F0740812189E024C9090619A124E82906D
:104C3800051BE0640122C082C083E9600514601787
:104C48008029124C317009C29190037A7467801AD6
:104C580090037A74618013124C757009D291900395
:104C68007A7471800590037A746AF0801B90619A57
:104C7800124E7490051BE0640122902A2EE4939052
:104C88006186F022A2E092AFD083D0820201327412
:104C9800EA1218F874F4121888908249AC18AD1901
:104CA800740412179B902A2C93F46003024E099007
:104CB8007808E0C394025003024DED9081F2740429
:104CC8001218EE740812179BA818A91988148915C8
:104CD80074041218DE88088909AE08AF097510FF38
:104CE8007511FF750EFF7C00750C48750D788012E4
:104CF80074086C7003024D8374096C607E740A6CCE
:104D08006079850C82850D83780812174C8E828F06
:104D180083A909E50AC9F888127418780812168D4B
:104D2800E5124508F8C3E098A3E099850C82850D43
:104D380083780812174C40188E828F83741878086D
:104D480012168DE5124508F8E0C398F8A3E0801A1A
:104D58007418780812168DE5124508FAE9FB8E8258
:104D68008F83125AD8EAC398F8EB99F9C3E89510DB
:104D7800E995115006881089118C0E0CE50C240455
:104D8800F50C5002050DECC394135003024CF87453
:104D9800FF6510700474FF65116024850E087402A5
:104DA800780812187574482508F58274783509F55D
:104DB80083780812174C851482851583E508F0EE70
:104DC8002402FE50010F851482851583A385821461
:104DD800858315740C1218D4E5826E7003E5836F11
:104DE8006003024CE57508017509007808121B0B71
:104DF80074021218EE7A8B7B0A121232740212189D
:104E08009E740C12189E7F0E0219CAC082C083902D
:104E180061AE7468F0A3746AF090624574FBF0A305
:104E280004F053F4FD43FE0290051B7401F09061F9
:104E3800A0E0643A90619A7019124E82740164017C
:104E48007009C29190037A7467801E90037A746126
:104E58008017124E74740164017009D29190037A1C
:104E68007471800590037A746A024B39743FF0A319
:104E7800745AF09061A0747FF0227433F0A37455D3
:104E8800F09061A0743AF0227F040219CAC082C06F
:104E9800839004CDE06401700A9004D2E060047944
:104EA8000C80027900024C90C082C08375E1F190B9
:104EB80004D0E0605114600914605514604D1470FA
:104EC80054120C269004BFE0F97AC07B04120E4EEF
:104ED80090828D12176A120E8490823512176A1208
:104EE8000E5A9004D1E0F9120E667901120EC01222
:104EF8004FCF241AF582E438F583743EF0A3740C7E
:104F0800F07900024C90120C2C80B9120C3280B44B
:104F1800120C3880AF791280EA74F41218F875D937
:104F28000D9004C6E0A2E0E4331313F812510748C9
:104F38004401F5D97582C07583041251117004E5D6
:104F480083640470F57582C7758304125250E58234
:104F580064CD7004E583640470F175E1959004C62E
:104F6800E0F97AC77B04120E5490162274CCF0A391
:104F7800740B1250461250901250871251CA900466
:104F8800D0E064019004BD700B124FD812174C90FA
:104F980082858009124FD812174C908281780812A6
:104FA80016D89082897808121726124FCF12507E91
:104FB800780812175B124FCF1250757413F09003D4
:104FC800767402F0024E909004BDE0F8A3E0C82287
:104FD800125D8078082274F71218F81250F7F5D984
:104FE8007582C07583041251117004E583640470DE
:104FF800F59004D6E0600A78D77904FA1250EBDA13
:10500800FB1251981251117004E583640470F590F5
:1050180004F6E0600A78F77904FA1250EBDAFB75C7
:10502800E19590162274D8F0A3740B1250461250D2
:10503800507412F09003767401F0FF0219CA1251ED
:10504800B374D2F0A3740B221250901250871251ED
:10505800CE9004BDE0F8A3E0C812507E74FF125849
:10506800FF9004BDE0F8A3E0C8125075222414F59F
:1050780082E438F58322240EF582E438F58322F0A1
:10508800A374EAF0A3740B221250942212509822AF
:10509800F0A37452F0A3740D2274F71218F812508A
:1050A800F74402F5D97582C0758304125111700452
:1050B800E583640470F59004D6E0600A78D7790433
:1050C800FA1250EBDAFB75E195901622125119F09D
:1050D800A31251191250537414F09003767404F00B
:1050E80002544C88828983125254A882A983229040
:1050F80004D61250FE22E02407F5D9125107229057
:1051080004BFE0C4333354C022125254E58264C64B
:105118002274E4125126125126F0A3740B22F0A334
:10512800740BF0A374E42274F71218F81250F744C1
:1051380006F5D97582C07583041251117004E58390
:10514800640470F59004D6E0600A78D77904FA12FE
:1051580050EBDAFB1251981251117004E583640484
:1051680070F59004F6E0600A78F77904FA1250EBCB
:10517800DAFB75E19590162274DEF0A3740B1251D8
:10518800A91250507415F09003767403F002544C31
:105198009004F61250FE4404F5D97582C075830454
:1051A800221251B37452F0A3740D221251B7221275
:1051B80051C47452F0A3740D1251C422125098F0C5
:1051C800A3221251CE22F09016307452F0A3740D1F
:1051D8001251B77452F0A3740D125094F022C08289
:1051E800C083124FCF2406F582E438F583E4024BDE
:1051F8003774F71218F89003A4125ACA74A628F83C
:10520800740339F9E82405FAE439FB8A828B83129E
:105218005B8D88828983A3A3A3A3A3A3A3A3A3ECE1
:10522800F0A3ED125249A3A3A3A3A3A3E024FFF87C
:10523800A3E034FFF98A828B83E8F0A3E9F00254F3
:105248004CF088828983A32212525422E0F5D9A314
:10525800229061D0E0F87480C398FC12526C22F05E
:1052680012526C22EA2483F582E43BF583E0221291
:1052780052822404F8E43583F922F582E43FF58369
:10528800E58222125254E865822274F71218F8EA6D
:10529800FEEBFF9061D0E0707875D90E75D9037573
:1052A800D904EE248C12531E12528B7003E96583C5
:1052B80070F6EE248412527712528B7003E96583DC
:1052C80070F675E1957908EE248CFAE43FFB120C30
:1052D800E67904EE2484FAE43FFB120CE67C00EE47
:1052E80024ABF8E43FF9ECFAC3E49AFA95E0FBEE54
:1052F8002AFAEF3BFBEA248B125D9A88828983F0B5
:105308000CA3A882A983ECC3940840DA12542D8018
:1053180002790002544C1252822408F8E43583F9C9
:1053280022C082C08375D90275D90375D90575E184
:1053380095EA246FF582E43B125AD6EA2471F58285
:10534800E43B12543A024C9074F61218F8EAFEEB59
:10535800FF90052174061253AF121B0B7C017903D1
:10536800120D46740212189E75D90675D9037582F6
:10537800217583051253A77004E583640570F575DC
:10538800E195900376E064087010EE246FF582E4EE
:105398003F125AD6EE2471125C0E7901025575122D
:1053A8005254E582642622F07508217509057808AB
:1053B8002274F61218F8EAFEEBFF9061D0E070361E
:1053C8007801900521740BF0900376E0640770195A
:1053D8007508217509057808121B0B7C01790312E1
:1053E8000D46740212189E780512567D125250DA34
:1053F800FB12542A8002790002557574F71218F8C6
:10540800EAFEEBFF75D90375D90375D90DEE24DED5
:10541800125D74F5D975E1957904120E8A12542D2E
:10542800802275E195EE246F125E17EE2471F582E5
:10543800E43FF583E8F0A3E9F0790122F0EEA2E079
:1054480092AF79007F010219CA74F61218F8125542
:10545800826004780480027800E8240BF8EAC39894
:1054680040457C09900521EC1254C91254D8DDFB43
:10547800125D71601B7508217509057808121B0BF0
:105488007903EEFAEFFB120D46740212189E7C0D9A
:105498001254B412557A70FB75E1957904120E8A8C
:1054A8001255FD7901800279000255751254BA8CA3
:1054B800082274012CF5D975D903758221758305E5
:1054C80022F0EE24E3F8E43FF97A227B057D0822F6
:1054D8001254DC2288828983E08A828B83125249A3
:1054E800A882A9838A828B83A3AA82AB832274F6BB
:1054F8001218F81255826004780480027800E824B3
:1055080008F8EAC39840647806900521740CF09076
:105518000393E0900522F0900394E0900523F09027
:105528000395E0900524F0900396E0900525F0900F
:105538000397E0900526125611601B75082175091E
:10554800057808121B0B7C067903EEFA120D4674D7
:105558000212189E780A12560B12557A70FB75E1E2
:10556800957904120E8A12542D800279007F020266
:1055780019CA1252541508E50822EAFEEBFF906199
:10558800D0E0F87480C398FA1256162274F61218EE
:10559800F81255826004780480027800E82404F840
:1055A800EAC398404B7802900521E8F0EE24F51202
:1055B8005D74900522125611601B75082175090546
:1055C8007808121B0B7C027903EEFA120D4674025E
:1055D80012189E780612560B12557A70FB75E195D3
:1055E8001255FD7904120E8AEE240D1254308002F1
:1055F8007900025575EE241DF582E43FF583E4F049
:10560800A3F022125683880822F012561622EE249E
:1056180083F582E43FF583E02274F61218F81252FB
:10562800596004780480027800E82404F8ECC398F0
:10563800403E78029005217407F0EA24F6125D9A3C
:1056480090052212526760197508217509057808B6
:10565800121B0B7C027903120D46740212189E78F5
:105668000612567D125250DAFB75E19579018002D7
:105678007900025575125683E8FA22740128F5D983
:1056880075D9037582217583052274F71218F8E914
:10569800FFA2AFE433FEC2AF7C0080010C12572991
:1056A8005011ECF8EA28F8E43BF912571FE06F7044
:1056B800EB8016EA246EF8E43BF9E0FCEA2CFAE405
:1056C8003BFB12574CEF125810EEA2E092AF025477
:1056D8004CC082C083A2AFE433FDC2AF125D971401
:1056E800F07C00801BECF8EA28F8E43BF9E8246B2E
:1056F800F582E439F583E0C0E012571FD0E0F00CE2
:1057080012572940E0EA246DF582E43BF58374FFE3
:10571800125756ED024C8CE8246AF582E439F58379
:1057280022125D97F8ECC39822C082C083A8A8C251
:10573800AF12574CE9125756E8A2E7E433FAE8A249
:10574800E7024C8EEA246AF582E43BF58322F0EA0C
:105758002469F582E43BF583E4F02274F31218F827
:10576800EAFEEBFFECFAEDFB8A828B83A3A3A3A3EB
:10577800E0541FF0EE2436F582E43FF583E4F0753B
:105788000A00EE245DFCE43FFD8A828B83E08C8274
:105798008D83F0750B00E50A33333354F8F50C8A22
:1057A800828B83E0F508750900E50B780812185616
:1057B800E508A2E05027EE2436F8E43FF98882890C
:1057C80083E0F508EE2508F508E43FF509E5082427
:1057D80038F582E43509F583E50C125810050B05F8
:1057E8000CE50BC3940840B7050A8A828B83A3AAE9
:1057F80082AB838C828D83A3AC82AD83E50AC3948C
:105808000540867F050219CA12581604F022F0884E
:10581800828983E02274F71218F89003A2E06401E9
:1058280070030258F79003A8E060030258F7740168
:10583800F0A3E4F0A3F090040804F090040DF090B5
:1058480003AB1258FE9003B504F09003DBE4F0902C
:1058580003BE125905A3F0900425F0900419F090A6
:105868000428F090040E7480F0A3E4F0900414F07F
:1058780090049112591C90049AF0900429F0900415
:105888007912591CA3F0A3F0900485F0900487F0D6
:10589800900483F090049D12591C9004B0F0900479
:1058A800AA12590574FF9004107804F0A3D8FC7A62
:1058B800037B0478B1790412591764B67003E9645C
:1058C8000470F47A897B04788A79031259176492F0
:1058D8007003E9640370F49003A2E004F0640170BB
:1058E800089003AAE09003A4F07AA67B0380047AC8
:1058F800007B0002544CE4125911A3F022125909FA
:1059080022125911A312591122F0A3F0A3F0221266
:1059180054DCE822125909A3F0A3F022C082C08304
:105928008A828B83A3A3A3E0600F8A828B83A3A3BD
:10593800A3E4F09003A3E014F09003A2E014F07045
:10594800069003A474FFF08A828B83A3A3E4F090EB
:1059580004B6E0700D9003A3E064017005790012AD
:105968000E6C024C90C082C0839003A9E4F09003AF
:10597800A8F09003A2F0A3F0A374FFF075E1F10280
:105988004C90C082C083780079009003A9E060043D
:1059980078A6790388828983A3A3A3A3E0F9024C9C
:1059A8009074EE1218F88A0A890C9003A3E0F8E9BB
:1059B800C398502278FF79FF9003A9E06013900400
:1059C80019E06401700590041F80039003D4125AF3
:1059D800D8E8FEE98011E96009A3125ACA125ABB35
:1059E8008005EA2AFEEB33FF8E0E8F0F7403780EC4
:1059F8001218669003A3E0F8C3E50E98E50F94002B
:105A08005003025AA7E50A25E0F50AEB33F50BEC3B
:105A18002CF508ED33F509AC0AAD0B8007EC240230
:105A2800FCE43DFDC3E5089CE5099D4060C3EC9E90
:105A3800ED9F403FECF8EDF9EEFAEFFB1217FD8B06
:105A48000FEA450F60068E0E8F0F8006750E0075E3
:105A58000F00ECF8EDF9EEFAEFFB1217FD8A108B48
:105A680011EC9510F8ED9511F9E8250EFCE9350FC4
:105A7800FD801AE0F8E50CC3985012EEF8EFF9EC47
:105A8800FAEDFB1217FD8B0FEA450F7090C3EC95EA
:105A98000AED950B4009C3E5089CE5099D50067A77
:105AA800FF7BFF8009ECFAEDC313FBEA13FA7F0AC8
:105AB8000219CA74D428F582740339F583E0FEA369
:105AC800E022E0F875F00BA4C8AAF02AF922F583C1
:105AD800125E1D2274F61218F874FC121888EAFE79
:105AE800EBFF803CEE2463F8E43FF97A007B00A2E8
:105AF800AFE433F508125B87EC4D600F125DD6708A
:105B08000A88828983A3A3E4F0A3F0E508A2E092BF
:105B1800AF1213949004B7E004F09004B8E004F0D6
:105B2800EE2463F582E43FF583125E1170B69004AB
